:020000040800F2
:10000000C008002089010008AD070008FD040008B1
:10001000FD06000839020008FF1E0008000000006D
:10002000000000000000000000000000010D0008BA
:10003000C903000800000000710B0008150E00083D
:10004000A3010008A3010008A3010008A301000800
:10005000A3010008A3010008A3010008A3010008F0
:10006000A3010008A3010008A3010008A3010008E0
:10007000A3010008A3010008A3010008A3010008D0
:10008000A3010008A3010008A3010008A3010008C0
:10009000A3010008A3010008A3010008A3010008B0
:1000A000A3010008A3010008A3010008A3010008A0
:1000B000ED11000891120008AD120008A30100081C
:1000C000A3010008A3010008A3010008A301000880
:1000D000A3010008DD1C0008A3010008A30100081B
:1000E000A3010008A3010008A301000800F002F822
:1000F00000F03AF80AA090E8000C82448344AAF188
:100100000107DA4501D100F02FF8AFF2090EBAE885
:100110000F0013F0010F18BFFB1A43F0010318473B
:100120000437000024370000103A24BF78C878C193
:10013000FAD8520724BF30C830C144BF04680C60ED
:10014000704700000023002400250026103A28BF35
:1001500078C1FBD8520728BF30C148BF0B60704739
:100160001FB51FBD10B510BD00F033F81146FFF7E5
:10017000F7FF01F093FF00F051F803B4FFF7F2FF2F
:1001800003BC01F067FF00000948804709480047A9
:10019000FEE7FEE7FEE7FEE7FEE7FEE7FEE7FEE737
:1001A000FEE7FEE704480549054A064B7047000094
:1001B000190E0008ED000008C0020020C008002051
:1001C000C0040020C004002070477047704770478B
:1001D0007047754600F02CF8AE4605006946534658
:1001E00020F00700854618B020B5FFF7DBFFBDE81B
:1001F00020404FF000064FF000074FF000084FF08E
:10020000000B21F00701AC46ACE8C009ACE8C0091E
:10021000ACE8C009ACE8C0098D46704710B504468B
:10022000AFF300802046BDE81040FFF7A6BF0000F6
:10023000004870475C02002000BFFEE710B51022A6
:100240000421024800F004FA10BD0000001401402F
:100250002DE9F04782460020374988704870012018
:10026000C870002008718871C8710872334908800D
:100270004880BAF1000F1ED131483249C860C868C1
:1002800002F096FC8046304A304B02F0A9FA06464E
:1002900000222F4B02F0A2FB044602F06FF829491E
:1002A000C860012000F042FA002000F05FFA01204F
:1002B0002149887138E0BAF1010F19D12548214947
:1002C000C860C86802F074FC06461F4A1F4B02F063
:1002D00087FA044602F052F81A49C860002000F07C
:1002E00025FA012000F042FA01201349C8711BE0F1
:1002F000BAF1020F18D117481249C860C86802F055
:1003000057FC0646104A144B02F06AFA044602F003
:1003100035F80C49C860002000F008FA012000F010
:1003200025FA0120044908720020044948608860C9
:1003300001F0C0FFBDE8F08720020020F40100209A
:100340000DCA37C42C0200205C8FC2F5285CEF3F39
:10035000000059400DCA3744285CFF3F2DE9F047A3
:100360008246002012498870012048700020C87021
:100370000871104908804880486088600846C0F8C5
:1003800020A0504602F014FC06460B4A0B4B02F02C
:10039000CFF8044600220A4B02F022FA804601F010
:1003A000EDFF0849C86001F085FFBDE8F087000057
:1003B00020020020F4010020BE9F1A2FDD242E40D1
:1003C000004090402C02002070472DE9F041024689
:1003D00000250026002000230024002791F803C0F8
:1003E0000CF00F0591F803C00CF0100CBCF1000FDD
:1003F00003D091F802C04CEA050591F800C0BCF1A9
:10040000000F31D0146800202BE04FF0010C0CFAE3
:1004100000F3B1F800C00CEA03069E4220D183002D
:100420004FF00F0C0CFA03F7BC4305FA03FC4CEA3F
:10043000040491F803C0BCF1280F06D14FF0010C61
:100440000CFA00FCC2F814C00AE091F803C0BCF139
:10045000480F05D14FF0010C0CFA00FCC2F810C097
:10046000401C0828D1D31460B1F800C0BCF1FF0FC4
:1004700034DD546800202EE000F1080C4FF0010834
:1004800008FA0CF3B1F800C00CEA03069E4221D131
:1004900083004FF00F0C0CFA03F7BC4305FA03FC82
:1004A0004CEA040491F803C0BCF1280F05D100F117
:1004B000080C08FA0CF8C2F8148091F803C0BCF1DB
:1004C000480F07D100F1080C4FF0010808FA0CF8AA
:1004D000C2F81080401C0828CED35460BDE8F081DB
:1004E0000246002093680B400BB1012000E0002081
:1004F00070470AB1016100E04161704700BFFEE74B
:1005000010B510224FF4E051014800F0A1F810BDE1
:1005100000100140002801DD024600E04242104682
:10052000002901DD0A4600E04A421146B0F57A6F23
:1005300002DD4FF47A6200E002461046B1F57A6FB0
:1005400002DD4FF47A6200E00A461146024B188041
:10055000014B0C3B19807047402C014010B5002422
:100560000B4840680B490861086900F029F8044607
:100570000949204602F0ACFD01D2074C05E00749CD
:10058000204602F0A5FC00D2044C204610BD00001D
:10059000F40100202C0200200000DC420000DCC23C
:1005A00010B5FFF7DBFF0549486201F0ABFC0446DC
:1005B00002F05AFC0149C86210BD00002C02002064
:1005C0002DE9F04104461D48C168204602F0B1FD06
:1005D0001B490860084601681A48006802F014FBCD
:1005E00018490860184801681548006802F0ACFD19
:1005F000074612488168384602F09EFC05460F49BE
:1006000048681049096802F097FC07460B490868DA
:100610000B49096802F090FC8046394602F0F4FA72
:100620000646294602F0F0FA0849086004480068C6
:100630000549086005480068BDE8F0812C020020EB
:10064000440000204C000020480000205000002002
:10065000F8B504460E461546ADF800608DF8035017
:1006600003208DF802001E48844204D10121042099
:1006700000F0A0FA2EE01B48844204D1012108209A
:1006800000F098FA26E01848844204D10121102095
:1006900000F090FA1EE01548844204D10121202088
:1006A00000F088FA16E01248844204D1012140206B
:1006B00000F080FA0EE00F48844204D1012180202E
:1006C00000F078FA06E00C48844203D1012180153D
:1006D00000F070FA69462046FFF777FEF8BD00008B
:1006E00000080140000C01400010014000140140CE
:1006F00000180140001C01400020014000BFFEE73F
:1007000008B50121082000F055FA4FF47040ADF80B
:10071000000010208DF8030003208DF802006946C8
:100720000148FFF752FE08BD000C014038B9002116
:100730000C4A116001210C4AC2F8B41111E00128E1
:1007400007D10121074A11600021074AC2F8B411FC
:1007500007E0022805D10021024A1160024AC2F8CE
:10076000B4117047B08121420080214238B9012183
:100770000C4A116000210C4AC2F8B81111E001289E
:1007800007D10021074A11600121074AC2F8B811B8
:1007900007E0022805D10021024A1160024AC2F88E
:1007A000B8117047BC81214200802142704710B5CA
:1007B0004FF4A06000F03AF810BD000070B50021C1
:1007C00000230F22C47804B3154C246804F4E064B9
:1007D000C4F5E064210AC1F10403CA40447804FA74
:1007E00003F184781440214309010E4C0678A15589
:1007F000047804F01F050124AC4005786D11AD00AC
:1008000005F1E025C5F8004109E0047804F01F0572
:100810000124AC40044D0678761145F8264070BDA1
:100820000CED00E000E400E080E100E0024901435B
:10083000024A1160704700000000FA050CED00E06C
:1008400070B500240EE00021204600F0EAF80025F3
:1008500004E0002000F062F9681CC5B2802DF8DBCE
:10086000601CC4B2082CEEDB70BD000008B501218D
:10087000102000F09FF914208DF8030003208DF85C
:1008800002002020ADF8000069460A48FFF79DFDF0
:100890001020ADF8000069460648FFF796FD0122DA
:1008A00020210448FFF725FE012210210148FFF70F
:1008B00020FE08BD0010014070B50546002413E07D
:1008C0008020204100EA050210210E48FFF711FEAA
:1008D000012220210B48FFF70CFE002220210948AD
:1008E000FFF707FE601CC4B2082CE9DB01222021BF
:1008F0000448FFF7FEFD002220210248FFF7F9FD22
:1009000070BD00000010014010B5012210210948FF
:10091000FFF7EFFD012220210648FFF7EAFD002244
:1009200010210448FFF7E5FD002220210148FFF7D0
:10093000E0FD10BD0010014010B500221021074855
:10094000FFF7D7FD012220210448FFF7D2FD012245
:1009500010210248FFF7CDFD10BD0000001001403E
:1009600070B5002406E0002500E06D1CB5F57A7F27
:10097000FBD3641CB4F57A7FF5D3FFF777FFAE2085
:1009800000F0BCF8D52000F0B9F8802000F0B6F8EF
:10099000A82000F0B3F83F2000F0B0F8D32000F01A
:1009A000ADF8002000F0AAF8402000F0A7F8A12040
:1009B00000F0A4F8C82000F0A1F8DA2000F09EF8BA
:1009C000122000F09BF8812000F098F8CF2000F072
:1009D00095F8D92000F092F8F12000F08FF8DB2094
:1009E00000F08CF8302000F089F8A42000F086F8A0
:1009F000A62000F083F88D2000F080F8142000F08D
:100A00007DF8AF2000F07AF8FFF71AFF70BD10B53F
:100A10000246012000E050430B1EA1F10101FAD172
:100A200010BD70B505460C4645F0B00000F066F804
:100A3000102141EA141000F061F804F00F0000F0FA
:100A40005DF870BD2DE9F04105460E461746721E51
:100A5000D206110E6A1E5206100EFFF7E2FF0024A6
:100A600009E0A7F12001134A02EB0111085D00F033
:100A700055F8601CC4B2082CF3DB721ED206110EAE
:100A80006A1E012303EB4202D0B2FFF7CAFF002423
:100A90000BE0A7F12001074A02EB011204F1080163
:100AA000505C00F03BF8601CC4B2082CF1DBBDE8E0
:100AB000F0810000323200082DE9F04780460E46F2
:100AC00017461D46002415E0281B411E0A20FFF78B
:100AD0009EFFB7FBF0F00A21B0FBF1F201FB120020
:100AE00000F130093019C1B24A464046FFF7AAFF6B
:100AF000601CC4B2AC42E7DBBDE8F08710B5044629
:100B0000FFF702FF7820FFF7D7FE0020FFF7D4FEA3
:100B10002046FFF7D1FEFFF70FFF10BD10B50446CA
:100B2000FFF7F2FE7820FFF7C7FE4020FFF7C4FE74
:100B30002046FFF7C1FEFFF7FFFE10BD4FF08040DB
:100B4000074908604FF07E504860064888600648B4
:100B500088610648C8614FF0824008627047000013
:100B60002C0200200000A04000000C429A99193E7F
:100B70007047000029B1064AD2690243044BDA618A
:100B800004E0034AD2698243014BDA6170470000F6
:100B90000010024029B1064A12690243044B1A614F
:100BA00004E0034A12698243014B1A617047000056
:100BB0000010024029B1064A92690243044B9A612F
:100BC00004E0034A92698243014B9A617047000036
:100BD0000010024029B1064AD2680243044BDA6091
:100BE00004E0034AD2688243014BDA607047000098
:100BF0000010024030B500210022002400232D4DBA
:100C00006D6805F00C0121B1042905D0082923D114
:100C100005E0294D056022E0274D05601FE0254DC8
:100C20006D6805F47012234D6D6805F4803402255B
:100C300005EB92421CB9214D554305600BE01D4D5B
:100C40006D6805F400351DB11C4D5543056002E08B
:100C5000194D5543056002E0174D056000BF00BF08
:100C6000144D6D6805F0F0010909154D6B5C0568C0
:100C7000DD4045600F4D6D6805F4E061090A104DD7
:100C80006B5C4568DD4085600A4D6D6805F4605118
:100C9000C90A0B4D6B5C4568DD40C560054D6D684C
:100CA00005F44041890B074D6B5CC568B5FBF3F556
:100CB000056130BD0010024000127A0000093D00BD
:100CC00018000020280000200146022902D0032934
:100CD00010D108E04FF08042928C10B200224FF009
:100CE00080439A8408E0054A128810B20022034B20
:100CF0001A8001E0002000BF00BF704724040040BC
:100D0000704710B500F002F810BD00000CB50020CF
:100D1000019000903348006840F480303149086009
:100D200000BF3048006800F4003000900198401C7B
:100D30000190009818B90198B0F5A06FF1D1294839
:100D4000006800F4003010B10120009001E00020A4
:100D500000900098012843D12348006840F010001B
:100D6000214908600846006820F003000860084632
:100D7000006840F0020008601A484068194948605D
:100D80000846406848600846406840F48060486013
:100D90000846406820F47C1048600846406840F4EB
:100DA000E81048600846006840F08070086000BFA6
:100DB0000C48006800F000700028F9D0094840682D
:100DC00020F00300074948600846406840F00200F0
:100DD000486000BF0348406800F00C000828F9D1C3
:100DE0000CBD00000010024000200240042808D181
:100DF0004FF0E021096941F004014FF0E022116158
:100E000007E04FF0E021096921F004014FF0E022F2
:100E1000116170477047000010B51348006840F03A
:100E200001001149086008464068104908400E4911
:100E30004860084600680E4908400B4908600846AB
:100E4000006820F4802008600846406820F4FE0016
:100E500048604FF41F008860FFF753FF4FF00060B9
:100E60000449086010BD0000001002400000FFF8B7
:100E7000FFFFF6FE08ED00E0F0B50C461546002237
:100E80000021068C4FF6FE773E400684028B018CD3
:100E90004FF60C7632407E1C06EA03162E43324390
:100EA000104EB0420ED0104EB0420BD0B0F1804F79
:100EB00008D00E4EB04205D00D4EB04202D00D4EBD
:100EC000B04206D14FF6FD76314044F00106314381
:100ED00005E04FF6F576314044F0010631430283D8
:100EE0000184F0BD002C01400034014000040040AA
:100EF00000080040000C0040F0B50C4615460022EA
:100F000000210026078C4FF6EF7C07EA0C070784C8
:100F1000028B018C4FF6FF7707EA041640F6FF4775
:100F20003A404FF6FF7707EA03373A434FF6FF7729
:100F300007EA05273A43114FB8420ED0104FB84286
:100F40000BD0B0F1804F08D00E4FB84205D00E4FF5
:100F5000B84202D00D4FB84206D14FF6DF77394084
:100F600046F01007394305E04FF65F77394044F00B
:100F70001007394302830184F0BD0000002C0140BA
:100F8000003401400004004000080040000C004014
:100F9000F0B50C461546002200210026078C4FF6BE
:100FA000FF6C07EA0C070784828B018C4FF6FF77F2
:100FB00007EA04264FF60C773A404FF6FF7707EA28
:100FC00003172F433A43114FB8420ED0104FB84287
:100FD0000BD0B0F1804F08D00E4FB84205D00E4F65
:100FE000B84202D00D4FB84206D14FF6FF573940F4
:100FF00046F48077394305E04FF2FF57394044F417
:101000008077394382830184F0BD0000002C0140C9
:10101000003401400004004000080040000C004083
:10102000F0B50C461546002200210026078C4EF62E
:10103000FF7C07EA0C070784828B018C4FF6FF7751
:1010400007EA043640F6FF473A404FF6FF7707EAD3
:1010500005273A434FF6FF7707EA03373A43114F24
:10106000B8420ED0104FB8420BD0B0F1804F08D02C
:101070000E4FB84205D00E4FB84202D00D4FB842C5
:1010800006D14DF6FF77394046F48057394305E0E5
:1010900047F6FF57394044F480573943828301842F
:1010A000F0BD0000002C014000340140000400406D
:1010B00000080040000C004030B587B004460D46E3
:1010C0000121C802FFF776FD01210420FFF772FD20
:1010D00018224FF410612048FFF7BAFA0020ADF84B
:1010E0001600ADF81200ADF81450ADF8104004A988
:1010F0001A4800F0BBFC6020ADF800000020ADF8FD
:1011000006000120ADF802000420ADF80400002024
:10111000ADF80C00ADF80E00ADF8080069460F48B8
:1011200000F0D4FB69460D4800F026FC08210B486E
:1011300000F018FC0821094800F05CFC0121074878
:1011400000F0FAF90121054800F023FA01210348D3
:1011500000F013FA07B030BD00080140002C014038
:1011600030B587B004460D4601210420FFF722FD6B
:1011700001210846FFF7FEFC042203211A48FFF76D
:1011800067FA0020ADF81600ADF81200ADF8145063
:10119000ADF8104004A94FF0804000F067FC002338
:1011A0001A4603214FF0804000F0F6FA01A800F043
:1011B0007BFB0A20ADF80C0001A9400700F01EFBE4
:1011C0000121880700F0D3F901221146900700F0B1
:1011D00074FB00214FF0804000F019FC01218807CA
:1011E00000F0CBF907B030BD0008014010B5012177
:1011F000880700F0F2FA012803D10121800700F0EE
:10120000B9F910BD30B587B004460D460121042060
:10121000FFF7D0FC01210220FFF7ACFC0422C02123
:101220001948FFF715FA0020ADF81600ADF81200C6
:10123000ADF81450ADF8104004A9144800F016FCA5
:1012400000231A460321114800F0A6FA01A800F075
:101250002BFB0A20ADF80C0001A90C4800F0CEFAD7
:1012600001210A4800F083F901221146074800F0E5
:1012700024FB0021054800F0CAFB0121034800F0CF
:101280007CF907B030BD00000008014000040040B8
:1012900010B50121044800F0A0FA012803D1012172
:1012A000014800F067F910BD000400402DE9F0414D
:1012B0000121974800F091FA01287AD10121944840
:1012C00000F058F90220FFF7FFFC404200B29149BC
:1012D00008800320FFF7F8FC00B28E494880B1F97E
:1012E000000001F0DDFD04468A484168204601F017
:1012F0008BFC88494860B1F9020001F0D1FD044639
:1013000084488168204601F07FFC824988604868F3
:10131000814901F0E7FC804601F04AFC06467F4A1D
:101320007F4B01F05DFA044601F028F879494861E5
:101330008868794901F0D6FC804601F039FC064600
:10134000764A774B01F04CFA044601F017F87149E0
:10135000886100F01BFC7348407801287AD16D4900
:10136000086A714901F050FC04466A484169204608
:1013700001F0AEFE1ED86749086A6B4901F0E4FE31
:10138000044664484169204601F0A2FD12D867482E
:101390000078401C654908700846007864280ED122
:1013A000002008705F4948700120887000F06EFFCF
:1013B00005E0ABE000205D4908705A498870594843
:1013C0000078012846D1FFF7EBF85248C069C0B950
:1013D000504A9168506801F017FC05464FF0804173
:1013E00001F080FC044601F03FFD4A494862486A2A
:1013F00001F056FD47494860486A01F051FD4549F2
:1014000088604B48C06A4349C96908444149C8607B
:101410004748C06AC969401A3E4908610846C06821
:10142000002803DD0020FFF781F902E00120FFF72B
:101430007DF93848C068002804DD0020FFF796F9E0
:1014400003E007E00120FFF791F9324A1169D06803
:10145000FFF760F83348C078012857D13148007849
:10146000012808D1FFF79CF83148C06A2949C860B3
:101470002F48C06A08612B48C079012813D12D4834
:101480000088401C2B49088008460088342838D141
:10149000002008802349C8700120087100201D49E0
:1014A000C86008612DE01F488079012813D12148C8
:1014B0000088401C1F49088008460088342820D135
:1014C000002008801749C8700120087100201149C8
:1014D000C860086115E01348007A012811D1154849
:1014E0000088401C80B213490880692809D1002077
:1014F00008800C49C8700120087100200549C860A7
:101500000861044A1169D068FFF704F8BDE8F0816A
:1015100000080040F401002000008244BE9F1A2F02
:10152000DD242E40200200200000C84138000020A9
:101530002C0200203A00002021B1028842F08002F3
:10154000028004E002884FF67F731A4002807047E1
:1015500030B5002301248C40A3B2048C9C43048446
:10156000048C02FA01F5ADB22C43048430BDCA43A9
:1015700002827047CA430282704721B1028842F05A
:101580000102028004E002884FF6FE731A400280D6
:10159000704731B1B0F8442042F40042A0F8442032
:1015A00005E0B0F84420C2F30E02A0F844207047D2
:1015B00010B504466848844208D10121C014FFF7E1
:1015C00009FB0021E014FFF705FBC4E0B4F1804FF4
:1015D00008D101210846FFF7DDFA00210120FFF7BD
:1015E000D9FAB8E05D48844208D101210220FFF712
:1015F000D1FA00210220FFF7CDFAACE0584884422E
:1016000008D101210420FFF7C5FA00210420FFF7CB
:10161000C1FAA0E05348844208D101210820FFF715
:10162000B9FA00210820FFF7B5FA94E04E48844249
:1016300008D101211020FFF7ADFA00211020FFF79B
:10164000A9FA88E04948844208D101212020FFF707
:10165000A1FA00212020FFF79DFA7CE04448844253
:1016600008D101214014FFF7B5FA00216014FFF7FB
:10167000B1FA70E03F48844209D10121C804FFF764
:10168000A9FA00214FF40020FFF7A4FA63E03A48DA
:10169000844209D101210805FFF79CFA00214FF48B
:1016A0008010FFF797FA56E03448844209D10121AF
:1016B0004805FFF78FFA00214FF40010FFF78AFA70
:1016C00049E02F48844208D101214020FFF762FA07
:1016D00000214020FFF75EFA3DE02A48844208D10D
:1016E00001218020FFF756FA00218020FFF752FAEF
:1016F00031E02548844208D101218015FFF74AFADC
:101700000021A015FFF746FA25E02048844209D1C0
:1017100001210804FFF75EFA00214FF48030FFF743
:1017200059FA18E01A48844209D101214804FFF708
:1017300051FA00214FF40030FFF74CFA0BE0154846
:10174000844208D101218804FFF744FA00214FF4B4
:101750008020FFF73FFA10BD002C0140000400403C
:1017600000080040000C0040001000400014004041
:1017700000340140004C0140005001400054014041
:1017800000180040001C00400020004000400140C4
:101790000044014000480140F0B50C4615461E4685
:1017A0000021002200230189028B038C4FF6F87779
:1017B000394021434FF6FC473A4040F201173A4383
:1017C0004FF6DD773B404FF6FF7707EA06172F43CA
:1017D0003B43018102830384F0BD30B50246002003
:1017E00000230024158A05EA0103958905EA01040E
:1017F00013B10CB1012000E0002030BD70B50546EA
:101800000C46244885420ED0234885420BD0B5F1C2
:10181000804F08D02148854205D02148854202D01A
:101820002048854200D100E000BF208850B92389BC
:10183000A28861882846FFF71FFBE188284600F050
:10184000E8F825E0208804280AD12389A288618845
:101850002846FFF751FBE188284600F0E3F817E03F
:10186000208808280AD12389A28861882846FFF7A2
:101870008FFBE188284600F0E2F809E02389A2887E
:1018800061882846FFF7CCFBE188284600F0E0F8A5
:1018900070BD0000002C01400034014000040040F5
:1018A00000080040000C004000210180418001211F
:1018B00081800021C180018170471AB183890B4367
:1018C000838102E083898B438381704770B5002454
:1018D00000220023058C4FF6FE7635400584028CED
:1018E0008388048B4FF68F752C40B51E2C400D88D5
:1018F0002C43751E2A400D892A434D882A43144DD6
:10190000A8420BD0134DA84208D0134DA84205D0D1
:10191000124DA84202D0124DA84213D14FF6F775CE
:101920002A404D892A434FF6FB752A408D882A4369
:101930004FF6FF652B404FF6FF552B408D892B430B
:10194000CD892B4383800483CD888586028470BD36
:10195000002C01400034014000400140004401409F
:10196000004801400A460021018B4FF6F7731940E9
:10197000114301837047000070B50022002300244A
:10198000058C4EF6FF7635400584038C8488828B67
:1019900048F6FF752A404FF6FF452A400D884FF65E
:1019A000FF7606EA05252A434DF6FF752B400D8983
:1019B00006EA05352B434D8806EA05352B430B4DCA
:1019C000A84202D00A4DA84208D14BF6FF752C4020
:1019D0008D894FF6FF7606EA85152C438480828335
:1019E000CD88A0F84050038470BD0000002C014059
:1019F000003401400A460021818B4FF2FF731940E9
:101A00004FF6FF7303EA02231943818370478184F1
:101A10007047028B4FF6F3731A400283028B0A431E
:101A200002837047028B4FF2FF331A400283028B0E
:101A30004FF6FF7303EA01231A4302837047828B38
:101A40004FF6F3731A408283828B0A438283704776
:101A5000828B4FF2FF331A408283828B4FF6FF73E3
:101A600003EA01231A4382837047000000220288A0
:101A70001D4B98420ED01D4B98420BD0B0F1804FB9
:101A800008D01B4B984205D01A4B984202D01A4BF3
:101A9000984204D14FF68F731A404B881A43174B64
:101AA000984207D0164B984204D04FF6FF431A4095
:101AB000CB881A4302808B8883850B8803850A4B69
:101AC00098420BD0094B984208D00E4B984205D053
:101AD0000D4B984202D00D4B984201D10B7A0386F0
:101AE0000123838270470000002C01400034014034
:101AF0000004004000080040000C004000100040BE
:101B000000140040004001400044014000480140F2
:101B10007FB504460D4601210420FFF72BF8012173
:101B20000846FFF747F81848FFF742FDADF80850A0
:101B3000ADF804400020ADF80600ADF80A0001A998
:101B40001148FFF793FF1E208DF8000000208DF84C
:101B500001008DF8020001208DF803006846FEF7B1
:101B60002DFE01210848FFF702FD01210648FFF77D
:101B700001FD012211460448FFF79FFE01210248A2
:101B8000FFF7FBFC7FBD00000008004010B54FF4DC
:101B900000714548FEF7A4FC012807D10221424804
:101BA000FEF79EFC10B941484149C8614FF40071ED
:101BB0003D48FEF795FC48B901213B48FEF790FCF3
:101BC000012803D14FF416703949C8614FF4807170
:101BD0003548FEF785FC70B94FF480713548FEF743
:101BE0007FFC012807D102212F48FEF779FC10B9AC
:101BF00000202F49C8614FF480712B48FEF770FC1C
:101C000080B94FF480712B48FEF76AFC012809D196
:101C100002212548FEF764FC012803D14FF4C87067
:101C20002349C8614FF480711F48FEF759FC78B909
:101C30004FF480711F48FEF753FC48B902211A483F
:101C4000FEF74EFC012803D14FF4FA701849C86121
:101C50004FF480711448FEF743FC01280DD10102B6
:101C60001448FEF73DFC40B902210F48FEF738FC4E
:101C700018B90E4864300E49C8614FF480710A48A3
:101C8000FEF72EFC01280ED101020A48FEF728FCBF
:101C9000012808D102210448FEF722FC18B90348A4
:101CA000C8300349C86110BD000C0140A8FDFFFF0A
:101CB000F40100200010014010B5482240F2033129
:101CC0000448FEF7C5FC48224FF480710248FEF735
:101CD000BFFC10BD000C01400010014010B540F2E7
:101CE00025511D4800F04AF810B31B4800F002F9D6
:101CF000C4B21A48008800F40040C8B917480088E8
:101D000000F4804060B10A2C03D000201349088001
:101D100020E01248008840F400401049088019E093
:101D20000D2C06D10D48008840F480400B490880F6
:101D300010E00A480088C0F30D0009490C54074818
:101D40000088401C0549088008460088C72801DD36
:101D50000020088010BD0000003801403400002041
:101D60006400002021B1828942F40052828104E0A3
:101D700082894DF6FF731A408281704770B5024622
:101D8000002400230025002040F66A16B14200D14D
:101D900000BFC1F3421501F01F03012606FA03F349
:101DA000012D02D19689334006E0022D02D1168A18
:101DB000334001E0968A33400C12012606FA04F4FF
:101DC0001688344013B10CB1012000E0002070BD32
:101DD000F0B50346002400260025002040F66A17CF
:101DE000B94200D100BF1846C1F3421401F01F06EA
:101DF000012707FA06F5012C01D10C3004E0022C72
:101E000001D1103000E014301AB107682F43076089
:101E100002E00768AF430760F0BD00002DE9F0471E
:101E200086B005460E460024A24600BFA146002704
:101E3000B08900B100BF2F462C8A4CF6FF700440D9
:101E4000F08804432C82AC894EF6F3100440B0882D
:101E500031890843718908430443AC81AC8A4FF649
:101E6000FF400440B0890443AC8201A8FEF7C2FEE3
:101E70001F48874202D1DDF810A001E0DDF80CA078
:101E8000A88900F4004040B10AEBCA0000EB0A1038
:101E900031684900B0FBF1F807E00AEBCA0000EB3B
:101EA0000A1031688900B0FBF1F86420B8FBF0F04B
:101EB00004012009642101FB1089A88900F4004075
:101EC00040B1322000EBC900B0FBF1F000F0070098
:101ED000044308E0322000EB09106421B0FBF1F06C
:101EE00000F00F0004432C8106B0BDE8F08700002D
:101EF0000038014001468888C0F30800704700BFE1
:101F0000FEE700002DE9FC5F002001901149B1F9C6
:101F1000000000F0C5FF009000F04AFE804600225D
:101F20000D4B00F05DFC064600220C4B00F058FC07
:101F3000044600220A4B00F0FBFA824600F01EFA2B
:101F400008498862886A00F00FF801900198BDE89E
:101F5000FC9F0000F401002000408F4000004E4034
:101F60000050C4402C0200202DE9F04104463248C4
:101F7000416A204601F0DDF8304908604FF08241A7
:101F80002E48006800F0A4FF09D24FF041412B48D1
:101F9000006801F09DF802D2002028490860274817
:101FA00001682748006800F02FFE25490860254990
:101FB0002348006801F08CF803D2224820490860C9
:101FC0000BE021491E48006800F082FF03D21E4842
:101FD0001B49086001E01A480068194908601B485D
:101FE00001681648006801F0AFF807461248016A18
:101FF000384600F0A1FF05460F49C8691049096835
:1020000000F09AFF07460C4988690C49096800F0FE
:1020100093FF8046394600F0F7FD0646294600F05A
:10202000F3FD0B4908600548006808490860084846
:102030000068BDE8F08100002C0200205400002060
:102040005C0000200020CB460020CBC658000020BA
:102050006000002000BF704710B56FF00400FEF76D
:10206000C5FE0A4800680A49B0FBF1F0094908704A
:102070000846007800EB4001C1EBC0104FF6FF713D
:1020800001EAC0000449088010BD000004000020DF
:1020900000127A002C0000202E000020FEF787FBA3
:1020A0004FF4E13000F01AF9FFF7D6FFFEF728FAF7
:1020B000FEF7C4F8FEF724FBFEF752FC632141F65D
:1020C0001F40FFF725FD4FF4E1510020FEF7F4FF1C
:1020D0004FF6FF710020FFF743F84FF6FF71002025
:1020E000FFF790F8FEF72AFDFFF7E6FD41220121F8
:1020F0000846FEF7A7FC5E48FEF730F9B6E002237B
:102100005C48027801211846FEF7D6FC5A48007850
:10211000012853D15748007807284ED2DFE800F055
:10212000040B15212C3742005448FEF717F9012003
:102130005049087041E052488078012804D1FEF7E8
:1021400087F802204B49087037E04D480079012894
:1021500006D14FF08440FEF701F90320454908708D
:102160002BE047488078012805D10220FEF770F85F
:1021700004204049087020E041480079012805D139
:102180004048FEF7EBF805203A49087015E03C4856
:102190008078012805D10020FEF75AF8062035493D
:1021A00008700AE036480079012805D13648FEF764
:1021B000D5F807202F49087000BF57E02E48007857
:1021C000022853D12B48007807284ED2DFE800F0D0
:1021D000040B16222D3842002848FEF7BFF80120D4
:1021E0002449087041E026488078012805D1002064
:1021F000FEF72EF802201F49087036E020480079CB
:10220000012806D14FF08440FEF7A8F803201949B1
:1022100008702AE01A488078012805D10220FEF7CC
:1022200017F80420134908701FE0154800790128A9
:1022300005D11448FEF792F805200E49087014E005
:102240000F488078012804D1FEF702F806200949DA
:1022500008700AE00A480079012805D10A48FEF70B
:102260007DF807200349087000BF00BF47E7000062
:102270000000F04200000020010000200000AE42FB
:10228000200200200000E84100005C4210B5002060
:1022900006490870002211460548FFF759F9002247
:1022A0000C210348FFF754F910BD00002002002064
:1022B000002C014010B501200649087001220021C0
:1022C0000548FFF745F901220C210348FFF740F9C3
:1022D00010BD000020020020002C014010B586B087
:1022E0000446012144F20400FEF764FC4FF4007040
:1022F000ADF8140003208DF8160018208DF8170093
:1023000005A91C48FEF761F84FF48060ADF8140091
:1023100004208DF8170005A91648FEF756F8252069
:102320008DF8000003208DF801008DF802000120D7
:102330008DF803006846FEF741FA01940020ADF8DD
:102340000800ADF80A00ADF80C00ADF810000C2044
:10235000ADF80E0001A90848FFF760FD012240F228
:1023600025510548FFF734FD01210348FFF7FAFC2A
:1023700006B010BD000801400038014021F00042C5
:10238000A2F16052B2F5801F01F0004328BFD2F1E4
:102390007F6C0BD95FEA001C43EAC20242EB50702B
:1023A00018BF704728BF20F001007047B2F5801FAA
:1023B000BCBF184670474FEA410C1CF5001F02D203
:1023C000084600F080BE70B500F0B4FA0000008945
:1023D000FFF7F6BF4FF00040A0F580007047000007
:1023E00010B591EA030F48BF83F0004300F1FE826D
:1023F000841A71EB030C05D2121943EB0C03001B7A
:1024000061EB0C01DFF824E14FEA1154A4EB135CFB
:102410001EEA430F18BF9EEA445F73D023EA0E03FF
:10242000DCF1200E21EA045143F4801332D322FA66
:102430000CFE10EB0E0023FA0CFE41EB0E01CCF16A
:10244000200E03FA0EFE10EB0E0051F10001B1F563
:10245000801FCCF1200E32D201EB045112FA0EF2A1
:10246000BDE8104058BF7047401C38BF5FEA4202C9
:1024700018BF7047002814BF20F0010041F100018F
:102480004FEA410313F5001F38BF7047A1F1C04167
:1024900000F09EBA012A43EB0302ACF1200CDCF100
:1024A0001F0E32BF4FF0000E23FA0CF310EB0300A7
:1024B00041EB0451B4EB115FD0D0A1EB045101F515
:1024C000801149085FEA300001EB04510ED350F14E
:1024D000000038BF12FA0EFE08D1BDE81040C9E76F
:1024E000401C38BF5FEA4202CAD1C3E7BDE81040D2
:1024F0004FEA410313F5001F38BF7047A1F1C041F7
:1025000000F066BA9EEA445F08D011EA5E0FBDE8AB
:10251000104004BF01F0004100207047BDE81040AA
:1025200070B500F007FA00BF64FBBE3E0000E0FF9C
:102530002DE9C04130B4DFF8A0C23CEA111418BF45
:102540003CEA131400F0EC8081EA03051CEA111444
:1025500044EAD57418BF1CEA131500F0C780A4EB39
:1025600005044FF0004545EAC12145EAC32341EA8D
:10257000505143EA525304F17F74994204F50034F8
:102580004FEAC0204FEAC22208BF904200F09C8070
:102590004FEA13650FF24016765D4FEA134506FBCE
:1025A00005F7C7F1807706FB07F74FEAD737A7FB98
:1025B00003687642C8F58038A7FB06CE38BFA8F17D
:1025C000010807FB08E64FF0000EA6FB028CE6FBB5
:1025D00003CEDCF1000CCEF1004E38BFAEF1010E9F
:1025E000A6FB0C584FF000074FF00005E6FB0E87E6
:1025F000A1FB08C6A0FB07CE16EB0E0645F10005B1
:10260000E1FB076515F1E04E7EBFA4F580345FEA7B
:1026100046066D4116F1800745F100054FEA172780
:102620004FEA066647EA0567A6F1DE46B6F1805F27
:102630004FEA15251FD9384624F0010C05EBC4716B
:10264000BCF1FE6F01EB0C1102D8F0BCBDE80081BB
:1026500024425CBF01F5801E9EEAC47F02D4F0BC18
:10266000BDE80081244238D4F0BCA1F1C041BDE8EE
:10267000004100F0ADB94FEAD22242EA43524FEA9C
:10268000D323A7FB02864FEAD02040EA415007FB44
:1026900003661EEA0E0F4FEAD12105FB026658BF02
:1026A000A6EB0056B6EB00564FEA520E4EEAC37E3A
:1026B00018EB0E0E56EB530EBDD518EB02085E411B
:1026C0007F1C55F10005B6E74FF480154FF0000769
:1026D0004FF000064FF00008ADE7F0BC4FF00000EF
:1026E00001F1C04101F00041BDE8008111EA0C1F79
:1026F0000CEA131500D00CE013EA0C1F00F0258043
:102700004FF00000F0BC81EA030101F00041BDE898
:102710000081F0BCBDE8004181EA030100F058B936
:10272000F0BCBDE8004170B500F004F9097EFC3E44
:1027300000F007B881EA03014FF0000001F000410A
:10274000704781EA030100F043B9F0BCBDE80041E5
:102750004FF0000021497047FFFDFBF9F7F5F4F257
:10276000F0EEEDEBE9E8E6E4E3E1E0DEDDDBDAD82C
:10277000D7D5D4D3D1D0CFCDCCCBCAC8C7C6C5C48A
:10278000C2C1C0BFBEBDBCBBBAB9B8B7B6B5B4B3A1
:10279000B2B1B0AFAEADACABAAA9A8A8A7A6A5A48C
:1027A000A3A3A2A1A09F9F9E9D9C9C9B9A99999850
:1027B0009797969595949393929191908F8F8E8EF3
:1027C0008D8C8C8B8B8A8989888887878685858480
:1027D00084838382828181800000FF070000F87F6C
:1027E000DFF848C170B51CEA111E1EBF1CEA1315A4
:1027F0009EEA0C0F95EA0C0F00F06F8081EA03044B
:1028000023EA4C134EEAD47E21EA4C1141F48011A4
:1028100043F48013AE44A1FB024CA0FB0365AEF170
:102820007F7E361955EB0C05A1FB034C4CF10003E0
:10283000A0FB021C16EB0C06654153F10003094294
:1028400018BF46F0010613F4007F0BD14FEA0331A5
:102850004FEA0530340341EA155140EA16506FF053
:1028600003020AE04FEAC3214FEAC520F40241EA1D
:10287000555140EA56506FF0020202EB2E4201EB36
:10288000025585EACE710AD05FEA440C18BF24F0E5
:10289000004450F1000041F1000120EAD47040F200
:1028A000FE7C624500D270BDA84214BF4FF0804448
:1028B0004FF04044002E08BF0024BEF1806FA8BF37
:1028C000A1F1C041BDE8704080F282804FF000006D
:1028D00001F1C04101F0004170479EEA0C0F0CEA83
:1028E000131518BF95EA0C0F06D04FF0000081EACF
:1028F000030E0EF0004170BD00F01CF88900013E8F
:1029000000F007B800F009B84FEA430C5FEA5C5CDE
:1029100008D081EA030100F05BB84FEA410C5FEA9E
:102920005C5CF6D14FF00000014970470000FF07E2
:102930000000F87F0EF1020E2EF0030E5EF8046B1D
:10294000364205D4012A43EB030515F5001F12D8C2
:10295000012841EB010C1CF5001F0CD80ED14FEAE9
:10296000D17C15F5001F0CEB4C0C0CF1020C08BFD0
:102970004CEBD37C04E04FF0080C01E04FEAD37C31
:102980000CEB4C0526FA05F606F00706B6F1040C2A
:1029900006D20EEB860CBDE870404CF0010C60478F
:1029A000DFE80CF0090B02024FF000414FF000008D
:1029B000A1F5002170BD19461046012851EB010414
:1029C00018BFD4F5001484BF002001F0004170BD91
:1029D0000808A0F500114FEA3101704710B591EADF
:1029E000030F48BF83F000433FF502AD841A71EB3B
:1029F000030C07D212198CF0004C43EB0C03001BA4
:102A000061EB0C01DFF8A4E14FEA1154A4EB135C75
:102A10001EEA430F18BF9EEA445F00F0B08023EA2D
:102A20006E03524221EA0451C3EB6E0338BF5B1EB2
:102A3000DCF1200E25D322FA0CFE10EB0E0043FA37
:102A40000CFE41EB0E01CCF1200E03FA0EFE10EB52
:102A50000E0051F10001CCF1200E29D412FA0EF231
:102A600001EB0451BDE8104058BF7047401C1CBF2B
:102A7000B2F1004F704700280CBF491C20F0010044
:102A8000704712EB020E43EB030218BF4FF0010E2A
:102A90004EEA4202ACF1200CDCF11E0E54D943FA8E
:102AA0000CFE10EB0E0051F1FF31CCF11E0ED5D50E
:102AB0000EF1010E12FA0EFE404141EB010101EB55
:102AC000445C5FEA5C5C10D910EBDE7001EB0451F2
:102AD00038BFBEF1004FBDE8104018BF7047002856
:102AE0000CBF491C20F00100704730D24FEAD42CB3
:102AF00011F5001124F400641BD0B1FA81F20B3AF5
:102B0000A41AA41ED2F12003914030FA03F3194312
:102B1000904001EBCC71002C01EB0451BDE810405A
:102B2000A8BF704701F1C0414FF0000001F0004123
:102B30007047B0FA80F310FA03F100D110BDE41A27
:102B4000173C4805C90AE4E701EB045110BD4910E0
:102B500001EB0451BDE810404FEA300002E04FF0B5
:102B6000000170474A0008BF0042F8D0B2F5001FCC
:102B700028BF704701F000414FF0000070479EEA07
:102B8000445F07D011EA5E0FBDE8104004BF00218A
:102B900000207047BDE8104070B5FFF7CBFE00BFC6
:102BA00040DFF63E83F00041104670470000E0FF32
:102BB00043004FEAD30C4FEA3C0C43401FBF400791
:102BC0000CF1605113F0FE4F70471CF0006F03D101
:102BD00000200CF0004170470CF0004343EA5070B5
:102BE00010B540EACC0000F028FA00BF00000092C7
:102BF0004FEA0001FFF7ECBE4FF000414FF000003C
:102C0000A1F500217047000090EA010F48BF81F054
:102C1000004100F1A082421A3CBF801A89184FEA95
:102C2000D0524FF07F4C1CEA410FA2EBD15318BF9A
:102C30009CEA026F00F03B804FF0004C4CEA002011
:102C40004CEA012121FA03FC10EB0C0C1ED202F11C
:102C5000FF325FEA1C2040EBC25038BF70471CF0C7
:102C60007F0F4FEA400C18BFBCF17F4F38BF704751
:102C7000C3F12003994008BF20F00100BCF17F4F51
:102C800038BF7047A0F1C04000F01DBA4FEA3C00C9
:102C9000000A40EBC25028BF1CF0FF0F4FEA400C67
:102CA000E6D018BFBCF17F4F38BF7047EAE79CEA17
:102CB000026F05D010EA5C0F08BF00F000407047BB
:102CC00010B500F0BAF900BF64FBBE3E401058BF1B
:102CD000C0F14040491058BFC1F140418142EFF37B
:102CE000008070474FF47F0C1CEAD0121EBF1CEA14
:102CF000D11392EA0C0F93EA0C0F00F0858090EA52
:102D0000010F48BF42F4807240F4000C41F400000F
:102D10002CF07F4120F07F4000B58142A2EB0302FE
:102D20000FF2081CACEB504EC0F100009EF800E022
:102D30004FEA4E0E00FB0EFC38BF49004FEA2C1C38
:102D400002F5FA020CFB0EF34FEACE1E4FEA112CED
:102D50004FEAC1210EEB635E42EB22420EFB0CFCFC
:102D60004FEA1C5300FB03114FEA112C4FEA0131CB
:102D70000EFB0CFC4FEADC4C00FB0C11C14228BFDF
:102D800009184CEB03335DF804EB10EB410143EB06
:102D9000C250B2F57C0F38BF704729D512F0F00F42
:102DA0001CBF00F1C04000F00040704700818283EA
:102DB0008485868788898B8C8D8E8F91929395964A
:102DC00097999A9C9D9FA0A2A3A5A7A8AAACAEB0D4
:102DD000B2B3B5B7B9BCBEC0C2C5C7C9CCCED1D4D9
:102DE000D7D9DCDFE2E6E9ECF0F3F7FAFE00000009
:102DF0004FEA400C0CF1807CBCF17E4F28BF70473D
:102E0000B0F1C04000F05FB990EA010F0CEAD113B5
:102E100048BF42F48072624538BF634507D213F45D
:102E20007F0F16D080EA010000F00040704710B517
:102E300000F003F9097EFC3E00F005B880EA0100CD
:102E400000F00040704780EA010000F0004000F010
:102E50003AB912F47F0F04BF0248704780EA0100BC
:102E600000F031B90000C07F41000B0ED3F19E028B
:102E700008D950F400034FEA032323FA02F048BFB5
:102E80004042704710B500F0D8F800BF4992248046
:102E9000002070476FF0004282EA20007047000077
:102EA00010F0004148BF4042B0FA80F310FA03F23C
:102EB000C3F19D030BD051EAC35101EB122053061D
:102EC00038BF704700F1010008BF20F001007047D3
:102ED00050EA010C00F113801CF5000F58BFBCF53F
:102EE000000F01D48842704707D710F5000F58BF74
:102EF00011F5000F15D488427047894270471CF5C0
:102F0000000F04D5BCF5000FF7D5814270474FF094
:102F1000807C1CEB400F38BF1CEB410F01D281427B
:102F2000704710B500F089F8922449004FF0005026
:102F30004FF08051FFF7CABE4FF47F0C1CEAD0124D
:102F40001EBF1CEAD11392EA0C0F93EA0C0F00F09B
:102F5000478090EA010F48BF42F480724FF0004C66
:102F60004CEA00204CEA012102EB0302A0FB011312
:102F7000A2F50002002918BF43F001035B0028BF3F
:102F80004FEA330342EB22425FEA132C4CEBC25070
:102F90002EBFBCEB436FB2F57C0F70474FEA036C5A
:102FA000BCF1004F08BF20F00100B2F57C0F38BF24
:102FB00070470BD582F0FF0212F5803FC8BF704703
:102FC00000F1C040D8BF00F00040704700F5000C91
:102FD0005FEA4C0C48BF7047B0F1C04000F073B8D6
:102FE00090EA010F0CEAD11348BF42F480726245A7
:102FF00038BF634504D280EA010000F0004070470A
:1030000010B500F01AF800BF8900013E00F007B8C3
:1030100000F009B85FEA410C5FEA1C6C08D080EA56
:10302000010000F050B85FEA400C5FEA1C6CF6D17A
:103030004FF00040A0F5800070470EF1020E2EF018
:10304000030E5EF8044B244204D44FEA4102B2F16D
:103050007F4F11D84FEA4003B3F17F4F0CD80ED108
:103060004FEAD07CB2F17F4F0CEB4C0C0CF1020C10
:1030700008BF4CEBD17C04E04FF0080C01E04FEAB4
:10308000D17C0CEB4C0324FA03F404F00704B4F1F4
:10309000040C06D20EEB840CBDE810404CF0010C81
:1030A0006047DFE80CF0070802024FF00040A0F58F
:1030B000800010BD0846420018BFD2F1807288BF60
:1030C00000F0004010BDFF2141EAD050C00570471C
:1030D00051EA000C00F113801CF5000F58BFBCF53D
:1030E000000F01D48142704707D711F5000F58BF78
:1030F00010F5000F15D481427047894270471CF5C6
:10310000000F04D5BCF5000FF7D5884270474FF08B
:10311000807C1CEB410F38BF1CEB400F01D2884272
:10312000704780EA010081EA000180EA0100FFF7B0
:10313000F8BE80F0004090EA010F7FF56CAD81F0A1
:10314000004100F008B8000090EA010F48BF81F08C
:1031500000413FF560AD421A04D882F00042A0EB76
:10316000020011444FEAD0524FF07F4C1CEA410F4D
:10317000A2EBD15318BF9CEA026F4AD04FF0004C2B
:103180004CEA00204CEA012121FA03FCB0EB0C0CC4
:103190000FD412F0FE0F36D05FEA4C001DD500129E
:1031A00040EBC25038BF70471CF03F0F18BF70474C
:1031B0000BE0A2F101025FEA1C2040EBC25038BFD5
:1031C00070471CF07F0F18BF7047C3F12003994070
:1031D00014BF401E20F00100704780084FEA122300
:1031E00008BF7047B0FA80FCA2EB0C02CCF1280CAF
:1031F00060FA0CF093EA122F04BF00EBC250704744
:103200004FEAC3707047130A5FEADC1008BF7047CB
:10321000F6E79CEA026F04D010EA5C0F08BF0020BA
:10322000704710B5FFF709FF40DFF63E81F0004020
:1032300070470000000000000000000000000000D7
:103240000000000000F80000000000000033300023
:10325000000000100C06100C06000000000000002A
:10326000000040C07840C0784000043F04043F04A0
:103270000400007088FC08300000001820FF211EA8
:103280000000F008F000E018000000211C031E21DF
:103290001E0000F00888700000001E21232419275A
:1032A000211010160E0000000000000000000000B9
:1032B0000000000000E018040200000000071820D1
:1032C000400000020418E000000000402018070041
:1032D0000000404080F0804040000202010F0102E7
:1032E0000200000000F0000000000101011F0101C8
:1032F0000100000000000000000080B0700000002D
:1033000000000000000000000000000101010101B8
:10331000010100000000000000000030300000004B
:103320000000000000008060180400601806010022
:10333000000000E010080810E000000F102020102E
:103340000F00001010F8000000000020203F202097
:10335000000000700808088870000030282422212E
:1033600030000030088888483000001820202011E4
:103370000E000000C02010F8000000070424243FC5
:10338000240000F80888880808000019212020116E
:103390000E0000E0108888180000000F1120201196
:1033A0000E0000380808C83808000000003F000080
:1033B00000000070880808887000001C222121226B
:1033C0001C0000E010080810E0000000312222116B
:1033D0000F00000000C0C0000000000000303000FE
:1033E000000000000080000000000000806000007D
:1033F00000000000804020100800000102040810B6
:1034000020004040404040404000040404040404C4
:103410000400000810204080000000201008040272
:103420000100007048080808F00000000030360174
:103430000000C030C828E810E00007182724231433
:103440000B000000C038E0000000203C23020227EF
:10345000382008F8888888700000203F202020113C
:103460000E00C03008080808380007182020201077
:10347000080008F808080810E000203F202020106D
:103480000F0008F88888E8081000203F202023203B
:10349000180008F88888E8081000203F2000030082
:1034A0000000C03008080838000007182020221E3D
:1034B000020008F808000008F808203F2101012157
:1034C0003F20000808F8080800000020203F2020C6
:1034D000000000000808F8080800C08080807F0015
:1034E000000008F888C028180800203F200126386E
:1034F000200008F8080000000000203F20202020C5
:10350000300008F8F800F8F80800203F003F003FBE
:10351000200008F830C00008F808203F20000718F5
:103520003F00E01008080810E0000F1020202010D5
:103530000F0008F808080808F000203F21010101E9
:103540000000E01008080810E0000F18242438508C
:103550004F0008F8888888887000203F2000030CFE
:103560003020007088080808380000382021212207
:103570001C00180808F8080818000000203F200068
:10358000000008F808000008F808001F202020208C
:103590001F000878880000C83808000007380E01AE
:1035A0000000F80800F80008F800033C0700073C9A
:1035B0000300081868808068180820302C03032C4A
:1035C00030200838C800C83808000000203F20001C
:1035D000000010080808C8380800203826212020DC
:1035E0001800000000FE020202000000007F4040C0
:1035F0004000000C30C00000000000000001063850
:10360000C00000020202FE000000004040407F00B7
:10361000000000000402020204000000000000009C
:10362000000000000000000000008080808080809A
:103630008080000202040000000000000000000082
:1036400000000000808080800000001924222222D7
:103650003F2008F8008080000000003F112020116A
:103660000E000000008080800000000E112020204D
:103670001100000000808088F800000E112020104A
:103680003F200000808080800000001F2222222234
:103690001300008080F0888888180020203F2020B8
:1036A00000000000808080808000006B94949493E0
:1036B000600008F8008080800000203F210000208A
:1036C0003F2000809898000000000020203F20202C
:1036D0000000000000809898000000C08080807F7B
:1036E000000008F8000080808000203F24022D3078
:1036F0002000000808F8000000000020203F2020E3
:1037000000008080808080808000203F20003F205B
:10371000003F8080008080800000203F210000204A
:103720003F200000808080800000001F202020209B
:103730001F00808000808000000080FFA1202011F9
:103740000E000000008080808000000E112020A06C
:10375000FF80808080008080800020203F2120002A
:103760000100000080808080800000332424242415
:103770001900008080E0808000000000001F2020F1
:1037800000008080000000808000001F20202010AA
:103790003F20808080000080808000010E3008067D
:1037A000010080800080008080800F300C030C308E
:1037B0000F0000808000808080000020312E0E31BC
:1037C0002000808080000080808080818E701806BC
:1037D000010000808080808080000021302C222128
:1037E000300000000000807C020200000000003F6A
:1037F000404000000000FF00000000000000FF004B
:1038000000000002027C800000000040403F0000F9
:103810000000000601010202040400000000000094
:103820000000000044380008000000206400000090
:1038300028010008A8380008640000205C08000087
:10384000440100080001000000A24A04000000003A
:103850000000000001020304060708090000000040
:103860000102030401020304060708090204060812
:103870000000000000000000000000000000000048
:103880000000000000000000000000000000000038
:103890000000000000000000000000000000000028
:0838A000000000000000000020
:04000005080000ED02
:00000001FF
