:020000040800F2
:1000000090060020890100081D040008690300080B
:100010001904000843020008AB0E000800000000AD
:10002000000000000000000000000000750800084B
:1000300047020008000000007D0700088909000849
:10004000A3010008A3010008A3010008A301000800
:10005000A3010008A3010008A3010008A3010008F0
:10006000A3010008A3010008A3010008A3010008E0
:10007000A3010008A3010008A3010008A3010008D0
:10008000A3010008A3010008A3010008A3010008C0
:10009000A3010008A3010008A3010008A3010008B0
:1000A000A3010008A3010008A3010008A3010008A0
:1000B000A3010008A3010008A3010008A301000890
:1000C000A3010008A3010008A3010008A301000880
:1000D000A3010008CD0C0008A3010008A30100083B
:1000E000A3010008A3010008A301000800F002F822
:1000F00000F03AF80AA090E8000C82448344AAF188
:100100000107DA4501D100F02FF8AFF2090EBAE885
:100110000F0013F0010F18BFFB1A43F0010318473B
:10012000F814000018150000103A24BF78C878C1F0
:10013000FAD8520724BF30C830C144BF04680C60ED
:10014000704700000023002400250026103A28BF35
:1001500078C1FBD8520728BF30C148BF0B60704739
:100160001FB51FBD10B510BD00F031F81146FFF7E7
:10017000F7FF00F0BFFE00F04FF803B4FFF7F2FF07
:1001800003BC00F057F800000948804709480047C1
:10019000FEE7FEE7FEE7FEE7FEE7FEE7FEE7FEE737
:1001A000FEE7FEE704480549054A064B7047000094
:1001B0008D090008ED000008900000209006002046
:1001C00090020020900200207047704770477546EB
:1001D00000F02CF8AE4605006946534620F00700B3
:1001E000854618B020B5FFF7DDFFBDE820404FF091
:1001F00000064FF000074FF000084FF0000B21F011
:100200000701AC46ACE8C009ACE8C009ACE8C009DD
:10021000ACE8C0098D46704710B50446AFF30080C6
:100220002046BDE81040FFF7A8BF00000048704717
:100230002C00002001491820ABBEFEE7260002007A
:10024000704700BFFEE770472DE9F04102460025E8
:100250000026002000230024002791F803C00CF0A2
:100260000F0591F803C00CF0100CBCF1000F03D087
:1002700091F802C04CEA050591F800C0BCF1000FEE
:1002800031D0146800202BE04FF0010C0CFA00F381
:10029000B1F800C00CEA03069E4220D183004FF063
:1002A0000F0C0CFA03F7BC4305FA03FC4CEA0404F8
:1002B00091F803C0BCF1280F06D14FF0010C0CFAE5
:1002C00000FCC2F814C00AE091F803C0BCF1480F6A
:1002D00005D14FF0010C0CFA00FCC2F810C0401C14
:1002E0000828D1D31460B1F800C0BCF1FF0F34DD91
:1002F000546800202EE000F1080C4FF0010808FAC5
:100300000CF3B1F800C00CEA03069E4221D1830031
:100310004FF00F0C0CFA03F7BC4305FA03FC4CEA50
:10032000040491F803C0BCF1280F05D100F1080CBA
:1003300008FA0CF8C2F8148091F803C0BCF1480F19
:1003400007D100F1080C4FF0010808FA0CF8C2F8C8
:100350001080401C0828CED35460BDE8F0810AB15B
:10036000016100E04161704700BFFEE7F8B5044657
:100370000E461546ADF800608DF8035003208DF849
:1003800002001E48844204D10121042000F0F8F943
:100390002EE01B48844204D10121082000F0F0F92E
:1003A00026E01848844204D10121102000F0E8F929
:1003B0001EE01548844204D10121202000F0E0F91C
:1003C00016E01248844204D10121402000F0D8F9FF
:1003D0000EE00F48844204D10121802000F0D0F9C2
:1003E00006E00C48844203D10121801500F0C8F9D1
:1003F00069462046FFF728FFF8BD000000080140CD
:10040000000C0140001001400014014000180140A0
:10041000001C01400020014000BFFEE770470000C3
:1004200070B5002100230F22C47804B3154C246852
:1004300004F4E064C4F5E064210AC1F10403CA4095
:10044000447804FA03F184781440214309010E4CE6
:100450000678A155047804F01F050124AC40057806
:100460006D11AD0005F1E025C5F8004109E0047803
:1004700004F01F050124AC40044D0678761145F8C0
:10048000264070BD0CED00E000E400E080E100E0FB
:1004900002490143024A1160704700000000FA055A
:1004A0000CED00E070B500240EE00021204600F0C5
:1004B000E6F8002504E0002000F050F9681CC5B201
:1004C000802DF8DB601CC4B2082CEEDB70BD000090
:1004D00008B50121082000F053F914208DF803001D
:1004E00003208DF802004FF48070ADF800006946DB
:1004F0000A48FFF7A9FE4FF40070ADF80000694606
:100500000648FFF7A1FE012211020448FFF727FF6A
:10051000012251020148FFF722FF08BD000C0140F3
:1005200070B50546002415E08020204100EA050250
:100530004FF400710E48FFF712FF012211020C4820
:10054000FFF70DFF00224FF480710948FFF707FF06
:10055000601CC4B2082CE7DB012211020448FFF73B
:10056000FEFE00224FF480710148FFF7F8FE70BDD7
:10057000000C014010B5012251020A48FFF7EFFEBE
:10058000012211020748FFF7EAFE00224FF4007132
:100590000448FFF7E4FE00224FF480710148FFF7A2
:1005A000DEFE10BD000C014010B500224FF40071BA
:1005B0000648FFF7D4FE012211020448FFF7CFFEE0
:1005C000012251020148FFF7CAFE10BD000C014094
:1005D00070B5002406E0002500E06D1CB5F57A7FBB
:1005E000FBD3641CB4F57A7FF5D3FFF771FFAE201F
:1005F00000F0A4F8D52000F0A1F8802000F09EF8CB
:10060000A82000F09BF83F2000F098F8D32000F0DD
:1006100095F8002000F092F8402000F08FF8A1201B
:1006200000F08CF8C82000F089F8DA2000F086F895
:10063000122000F083F8812000F080F8CF2000F035
:100640007DF8D92000F07AF8F12000F077F8DB206F
:1006500000F074F8302000F071F8A42000F06EF87B
:10066000A62000F06BF88D2000F068F8142000F050
:1006700065F8AF2000F062F8FFF714FF70BD70B5A9
:1006800005460C4645F0B00000F058F8102141EA4C
:10069000141000F053F804F00F0000F04FF870BD94
:1006A0002DE9F04105460E461746721ED206110E80
:1006B0006A1E5206100EFFF7E2FF002409E0A7F1C0
:1006C0002001134A02EB0111085D00F047F8601C9D
:1006D000C4B2082CF3DB721ED206110E6A1E01236F
:1006E00003EB4202D0B2FFF7CAFF00240BE0A7F1F0
:1006F0002001074A02EB011204F10801505C00F0EE
:100700002DF8601CC4B2082CF1DBBDE8F0810000BC
:10071000281000082DE9F04107460E461546002432
:1007200007E02A5D3019C1B23846FFF7B9FF601CF7
:10073000C4B2285D0028F4D1BDE8F08110B50446AC
:10074000FFF718FF7820FFF7EBFE0020FFF7E8FE29
:100750002046FFF7E5FEFFF727FF10BD10B5044662
:10076000FFF708FF7820FFF7DBFE4020FFF7D8FEF9
:100770002046FFF7D5FEFFF717FF10BD70470000BA
:1007800029B1064A92690243044B9A6104E0034A84
:1007900092698243014B9A61704700000010024049
:1007A00030B500210022002400232D4D6D6805F096
:1007B0000C0121B1042905D0082923D105E0294DD8
:1007C000056022E0274D05601FE0254D6D6805F4AA
:1007D0007012234D6D6805F48034022505EB9242BA
:1007E0001CB9214D554305600BE01D4D6D6805F4A6
:1007F00000351DB11C4D5543056002E0194D5543B0
:10080000056002E0174D056000BF00BF144D6D6824
:1008100005F0F0010909154D6B5C0568DD40456088
:100820000F4D6D6805F4E061090A104D6B5C456879
:10083000DD4085600A4D6D6805F46051C90A0B4DB5
:100840006B5C4568DD40C560054D6D6805F4404151
:10085000890B074D6B5CC568B5FBF3F5056130BDD1
:100860000010024000127A0000093D001400002030
:1008700024000020704710B500F002F810BD000001
:100880000CB50020019000903348006840F480309F
:100890003149086000BF3048006800F40030009023
:1008A0000198401C0190009818B90198B0F5A06F0C
:1008B000F1D12948006800F4003010B10120009007
:1008C00001E0002000900098012843D123480068EF
:1008D00040F01000214908600846006820F003003D
:1008E00008600846006840F0020008601A48406846
:1008F000194948600846406848600846406840F426
:10090000806048600846406820F47C1048600846D3
:10091000406840F4E81048600846006840F0807085
:10092000086000BF0C48006800F000700028F9D093
:100930000948406820F003000749486008464068BD
:1009400040F00200486000BF0348406800F00C001F
:100950000828F9D10CBD0000001002400020024020
:10096000042808D14FF0E021096941F004014FF05B
:10097000E022116107E04FF0E021096921F0040154
:100980004FF0E022116170477047000010B5134826
:10099000006840F0010011490860084640681049AD
:1009A00008400E494860084600680E4908400B4957
:1009B00008600846006820F4802008600846406807
:1009C00020F4FE0048604FF41F008860FFF753FFDB
:1009D0004FF000600449086010BD000000100240A4
:1009E0000000FFF8FFFFF6FE08ED00E030B587B02D
:1009F00004460D460121C802FFF7C2FE0121042072
:100A0000FFF7BEFE18224FF410612048FFF7AEFC3E
:100A10000020ADF81600ADF81200ADF81450ADF896
:100A2000104004A91A4800F0FFF86020ADF800005B
:100A30000020ADF806000120ADF802000420ADF85A
:100A400004000020ADF80C00ADF80E00ADF8080071
:100A500069460F4800F046F869460D4800F098F8DE
:100A600008210B4800F08AF80821094800F0CEF868
:100A70000121074800F00EF80121054800F022F896
:100A80000121034800F012F807B030BD0008014012
:100A9000002C014021B1028842F08002028004E073
:100AA00002884FF67F731A400280704721B1028896
:100AB00042F00102028004E002884FF6FE731A4001
:100AC0000280704731B1B0F8442042F40042A0F8EF
:100AD000442005E0B0F84420C2F30E02A0F8442000
:100AE0007047000070B5002400220023058C4FF6EB
:100AF000FE7635400584028C8388048B4FF68F7513
:100B00002C40B51E2C400D882C43751E2A400D89A3
:100B10002A434D882A43144DA8420BD0134DA842B6
:100B200008D0134DA84205D0124DA84202D0124D54
:100B3000A84213D14FF6F7752A404D892A434FF644
:100B4000FB752A408D882A434FF6FF652B404FF6F0
:100B5000FF552B408D892B43CD892B438380048304
:100B6000CD888586028470BD002C01400034014090
:100B70000040014000440140004801400A46002175
:100B8000018B4FF6F7731940114301837047000042
:100B900070B5002200230024058C4EF6FF76354008
:100BA0000584038C8488828B48F6FF752A404FF6B3
:100BB000FF452A400D884FF6FF7606EA05252A43B1
:100BC0004DF6FF752B400D8906EA05352B434D8800
:100BD00006EA05352B430B4DA84202D00A4DA84228
:100BE00008D14BF6FF752C408D894FF6FF7606EA4B
:100BF00085152C4384808283CD88A0F840500384DF
:100C000070BD0000002C0140003401400A46002164
:100C1000818B4FF2FF7319404FF6FF7303EA0223F3
:100C20001943818370470000002202881D4B9842BF
:100C30000ED01D4B98420BD0B0F1804F08D01B4B0B
:100C4000984205D01A4B984202D01A4B984204D1D0
:100C50004FF68F731A404B881A43174B984207D0B0
:100C6000164B984204D04FF6FF431A40CB881A43E4
:100C700002808B8883850B8803850A4B98420BD0B2
:100C8000094B984208D00E4B984205D00D4B984224
:100C900002D00D4B984201D10B7A03860123838247
:100CA00070470000002C0140003401400004004067
:100CB00000080040000C00400010004000140040FC
:100CC00000400140004401400048014070B500254B
:100CD00040F22551054800F024F830B1034800F0F7
:100CE000DBF8C4B2204600F03FF970BD0038014087
:100CF00021B1828942F40052828104E082894DF65A
:100D0000FF731A408281704702460020B1F5007FD0
:100D100000D100BF13880B400BB1012000E0002080
:100D2000704770B50246002400230025002040F6DD
:100D30006A16B14200D100BFC1F3421501F01F0392
:100D4000012606FA03F3012D02D19689334006E00D
:100D5000022D02D1168A334001E0968A33400C12EC
:100D6000012606FA04F41688344013B10CB10120B0
:100D700000E0002070BDF0B50346002400260025E9
:100D8000002040F66A17B94200D100BF1846C1F3EF
:100D9000421401F01F06012707FA06F5012C01D1C4
:100DA0000C3004E0022C01D1103000E014301AB1F4
:100DB00007682F43076002E00768AF430760F0BD94
:100DC0002DE9F04786B005460E460024A24600BF36
:100DD000A1460027B08900B100BF2F462C8A4CF6EF
:100DE000FF700440F08804432C82AC894EF6F31067
:100DF0000440B08831890843718908430443AC81B9
:100E0000AC8A4FF6FF400440B0890443AC8201A88D
:100E1000FFF7C6FC1F48874202D1DDF810A001E0B1
:100E2000DDF80CA0A88900F4004040B10AEBCA002C
:100E300000EB0A1031684900B0FBF1F807E00AEB5B
:100E4000CA0000EB0A1031688900B0FBF1F8642099
:100E5000B8FBF0F004012009642101FB1089A88986
:100E600000F4004040B1322000EBC900B0FBF1F0CB
:100E700000F00700044308E0322000EB0910642171
:100E8000B0FBF1F000F00F0004432C8106B0BDE888
:100E9000F08700000038014001468888C0F3080050
:100EA0007047C1F308028280704700BFFEE7000070
:100EB00010B56FF00400FFF753FD0A4800680A49B7
:100EC000B0FBF1F0094908700846007800EB4001DA
:100ED000C1EBC0104FF6FF7101EAC0000449088061
:100EE00010BD00000000002000127A002800002041
:100EF0002A0000204FF4A060FFF7CAFAFFF7D8FFDE
:100F0000FFF766FB4FF4E13000F03EF84FF4E1519B
:100F10000020FFF76BFD10224FF470410C48FFF7E3
:100F200025FA13E001200B49086000200A49C1F8A6
:100F3000B401012007490831086000200649C1F8C2
:100F4000BC0106A201210846FFF7E4FBEAE7000026
:100F5000000C0140B08121420080214268656C6C28
:100F60006F776F726C64210010B504462146054806
:100F7000FFF797FF00BF80210248FFF7C5FE00285A
:100F8000F9D010BD0038014010B586B004460121EB
:100F900044F20400FFF7F4FB4FF40070ADF81400C6
:100FA00003208DF8160018208DF8170005A91C489D
:100FB000FFF74AF94FF48060ADF8140004208DF873
:100FC000170005A91648FFF73FF925208DF8000006
:100FD00001208DF801008DF802008DF803006846AD
:100FE000FFF71EFA01940020ADF80800ADF80A00E2
:100FF000ADF80C00ADF810000C20ADF80E0001A902
:101000000848FFF7DDFE012240F225510548FFF7B1
:10101000B2FE01210348FFF76BFE06B010BD0000D1
:1010200000080140003801400000000000000000FE
:101030000000000000000000000000F800000000B8
:10104000000000333000000000100C06100C0600F9
:10105000000000000000000040C07840C078400060
:10106000043F04043F040400007088FC08300000C2
:10107000001820FF211E0000F008F000E01800001A
:1010800000211C031E211E0000F0088870000000D3
:101090001E2123241927211010160E000000000025
:1010A0000000000000000000000000E01804020042
:1010B000000000071820400000020418E0000000B3
:1010C0000040201807000000404080F080404000B1
:1010D0000202010F01020200000000F00000000007
:1010E0000101011F010101000000000000000000DB
:1010F00080B0700000000000000000000000000050
:1011000000010101010101010000000000000000D8
:101110000030300000000000000000008060180473
:10112000006018060100000000E010080810E00050
:10113000000F102020100F00001010F80000000019
:101140000020203F20200000007008080888700060
:1011500000302824222130000030088888483000E0
:101160000018202020110E000000C02010F8000000
:1011700000070424243F240000F808888808080099
:101180000019212020110E0000E0108888180000AE
:10119000000F112020110E0000380808C838080080
:1011A0000000003F00000000007088080888700000
:1011B000001C222121221C0000E010080810E00081
:1011C0000000312222110F00000000C0C00000000A
:1011D000000000303000000000000080000000002F
:1011E0000000806000000000000080402010080027
:1011F00000010204081020004040404040404000F0
:1012000004040404040404000008102040800000CA
:101210000020100804020100007048080808F000CF
:101220000000003036010000C030C828E810E0009F
:101230000718272423140B000000C038E00000002A
:10124000203C23020227382008F888888870000094
:10125000203F202020110E00C03008080808380068
:10126000071820202010080008F808080810E000DF
:10127000203F202020100F0008F88888E808100080
:10128000203F20202320180008F88888E808100054
:10129000203F200003000000C0300808083800008C
:1012A00007182020221E020008F808000008F8088D
:1012B000203F210101213F20000808F80808000014
:1012C0000020203F2020000000000808F808080047
:1012D000C08080807F00000008F888C028180800BF
:1012E000203F20012638200008F8080000000000F8
:1012F000203F20202020300008F8F800F8F80800EF
:10130000203F003F003F200008F830C00008F808E8
:10131000203F200007183F00E01008080810E000F8
:101320000F10202020100F0008F808080808F0000F
:10133000203F210101010000E01008080810E00032
:101340000F18242438504F0008F8888888887000C7
:10135000203F2000030C3020007088080808380067
:101360000038202121221C00180808F8080818005D
:101370000000203F2000000008F808000008F808DE
:10138000001F202020201F000878880000C838088F
:10139000000007380E010000F80800F80008F80007
:1013A000033C0700073C03000818688080681808A1
:1013B00020302C03032C30200838C800C83808001F
:1013C0000000203F2000000010080808C83808006E
:1013D0002038262120201800000000FE0202020012
:1013E0000000007F40404000000C30C000000000C2
:1013F000000000010638C00000020202FE000000EA
:10140000004040407F00000000000402020204008F
:1014100000000000000000000000000000000000CC
:1014200080808080808080800002020400000000B4
:1014300000000000000000000000808080800000AC
:101440000019242222223F2008F80080800000009A
:10145000003F112020110E0000000080808000005D
:10146000000E112020201100000000808088F8006C
:10147000000E112020103F2000008080808000009E
:10148000001F222222221300008080F08888881802
:101490000020203F2020000000008080808080000D
:1014A000006B94949493600008F8008080800000A2
:1014B000203F210000203F2000809898000000007D
:1014C0000020203F202000000000008098980000AD
:1014D00000C08080807F000008F8000080808000CD
:1014E000203F24022D302000000808F800000000F2
:1014F0000020203F202000008080808080808000AD
:10150000203F20003F20003F80800080808000003E
:10151000203F210000203F200000808080800000CC
:10152000001F202020201F008080008080000000FD
:1015300080FFA12020110E0000000080808080002C
:10154000000E112020A0FF8080808000808080001D
:1015500020203F212000010000008080808080004A
:101560000033242424241900008080E080800000BF
:101570000000001F2020000080800000008080000C
:10158000001F202020103F2080808000008080806D
:1015900000010E30080601008080008000808080FD
:1015A0000F300C030C300F00008080008080800022
:1015B0000020312E0E31200080808000008080804D
:1015C00080818E70180601000080808080808000FD
:1015D0000021302C2221300000000000807C02021B
:1015E00000000000003F404000000000FF0000003D
:1015F00000000000FF0000000002027C80000000EC
:101600000040403F00000000000601010202040407
:101610000000000000000000381600080000002054
:101620002C00000028010008641600082C0000208F
:10163000640600004401000800A24A040000000003
:101640000000000001020304060708090000000072
:101650000102030401020304060708090204060844
:041660000000000086
:04000005080000ED02
:00000001FF
