:020000040800F2
:10000000A0090020D5010008B51C0008750D0008E6
:10001000DD1B0008B9080008CF330008000000000D
:10002000000000000000000000000000B5250008EE
:10003000D10800080000000065240008C926000857
:10004000EF010008EF010008EF010008EF010008D0
:10005000EF010008EF010008EF010008EF010008C0
:10006000EF010008EF010008EF010008EF010008B0
:10007000EF010008EF010008EF010008EF010008A0
:10008000EF010008EF010008EF010008EF01000890
:10009000EF010008EF010008EF010008D508000893
:1000A000EF010008EF010008EF010008EF01000870
:1000B000A12A0008452B0008EF010008EF01000805
:1000C000EF010008EF010008EF010008EF01000850
:1000D000EF010008AD310008EF010008EF01000852
:1000E000EF010008EF010008EF010008EF01000830
:1000F000EF010008EF010008EF010008EF01000820
:10010000EF010008EF010008EF010008EF0100080F
:10011000EF010008EF010008612B0008EF01000863
:10012000EF010008EF010008EF010008EF010008EF
:1001300000F002F800F03FF80AA090E8000C8244BA
:100140008344AAF10107DA4501D100F034F8AFF297
:10015000090EBAE80F0013F0010F18BFFB1A43F0A5
:1001600001031847648A0000848A0000103A24BF03
:1001700078C878C1FAD8520724BF30C830C144BF0C
:1001800004680C607047000000230024002500264E
:10019000103A28BF78C1FBD8520728BF30C148BFEA
:1001A0000B607047642900F06780002070471FB51E
:1001B0001FBD10B510BD00F0F3FA1146FFF7F7FFB1
:1001C00004F0C8FE00F011FB03B4FFF7F2FF03BC1C
:1001D00003F083F90948804709480047FEE7FEE736
:1001E000FEE7FEE7FEE7FEE7FEE7FEE7FEE7FEE7E7
:1001F00004480549054A064B70470000CD26000813
:1002000031010008A0030020A0090020A005002063
:10021000A0050020704710B54C1084EA530404D5A3
:100220004042C1F1000138BF491E1B4204D5524271
:10023000C3F1000338BF5B1E00F056F914F0804F85
:1002400004D04042C1F1000138BF491E14F0004FF4
:1002500004D05242C3F1000338BF5B1E10BD000042
:100260000FB4044910B503AA029800F031FA10BC8B
:100270005DF814FB5C0000202DE9F04106460024E7
:1002800010687529314616A510D0AFF300800028FC
:1002900002DA404213A507E031688A0701D512A5AA
:1002A00002E0490704D511A5012401E0AFF3008065
:1002B00000210A2206F1240709E0B0FBF2FCB0FBA2
:1002C000F2F302FB1C00303078541846491C002819
:1002D000F3D123462A463046BDE8F04100F086B906
:1002E000000000002D0000002B0000002000000096
:1002F0002DE9F05F894604464FF0000ADFF874B13B
:10030000FB44C0F820A02046E1688847002874D04C
:10031000252806D0D4E901219047206A401C20629C
:10032000F1E700265F462046E16888472028054619
:1003300007DB312D05D2781910F8200C08B10643DF
:10034000F1E7B00701D526F00406C4F81CA0002789
:10035000C4F818A02A2D09D0284603F0B7F838B3FE
:1003600004EB8708303DC8F8185019E059F8041B11
:10037000204604EB87029161E1688847012F05461A
:1003800018D1E069002820DA26F020061DE0D8F810
:10039000180000EB800005EB40003038C8F818006A
:1003A0002046E1688847054603F090F80028EED122
:1003B000012F0AD02E2D08D12046E16888477F1CE6
:1003C0000546022F46F02006C4DBA069002803DAA8
:1003D000404246F00106A061F00701D026F0100669
:1003E0006C2D0BD0682D09D04C2D39D06A2D35D00D
:1003F000742D35D07A2D33D016E038E0E1682F46E1
:1004000020468847B842054609D16C2F26D04FF4C4
:100410008060E168064320468847054604E06C2F6B
:100420001AD04FF4807006430DB3A5F1410019288E
:1004300002D8203546F400664A4629462046266002
:100440004E46FFF7AFFE80B101280BD0F61D26F017
:10045000070000F1080956E74020E4E78020D8E7CC
:100460000020D6E706F104094DE7284652E7206A46
:10047000BDE8F09F7287000040EA010310B59B07BA
:100480000FD1042A0DD310C808C9121F9C42F8D0FE
:1004900020BA19BA884201D9012010BD4FF0FF30AF
:1004A00010BD1AB1D30703D0521C07E0002010BDC5
:1004B00010F8013B11F8014B1B1B07D110F8013B51
:1004C00011F8014B1B1B01D1921EF1D1184610BD32
:1004D00002F0FF0343EA032242EA024200F00CB9B1
:1004E000704770477047704753EA020C00F069800C
:1004F0002DE9F04B4FF00006002B1FBFB3FA83F538
:1005000003FA05F424FA05F65E4012BF1643B2FA68
:1005100082F502FA05F4C5F120051EBF22FA05FC9A
:1005200044EA0C04203556EA044C4FEA144418BF40
:10053000641C4FF000084FF00009904271EB030C6F
:1005400039D3002919BFB1FA81F701FA07F6B0FAD9
:1005500080F700FA07F6C7F120071EBF20FA07FC54
:1005600046EA0C062037B6FBF4FCA7EB0507103F64
:1005700007F01F0BCBF120060CFA0BFB2CFA06F64A
:1005800044BFB3460026202FA4BF5E464FF0000BA9
:100590005BEA060C08BF4FF0010B19EB0B09ABFB34
:1005A000027C48EB0608C01B06FB02CC0BFB03CC0D
:1005B00071EB0C01C1E70B46024641464846BDE8D7
:1005C000F08B13B54FF000004FF00001AFF3008047
:1005D000BDE81C40704710B500F0AEF8006810BDD3
:1005E00010B5044600F0A8F8046010BD2DE9F047EE
:1005F0000D4699469246044600F124080168880693
:1006000004D5E06921F01001216000E00120A8423A
:1006100001DD471B00E00027A1697A1902EB090000
:10062000081AA0612078C00602D42046AFF30080EB
:10063000002608E0D4E901211AF806009047206A54
:10064000401C761C20624E45F4DB2078C0060AD59B
:100650002046AFF3008006E0D4E901213020904726
:10066000206A401C2062381EA7F10107F4DC07E075
:10067000D4E9012118F805009047206A401C206247
:10068000281EA5F10105F3DC2046AFF30080207899
:10069000000602D50220BDE8F0870120FBE700003C
:1006A00001694A1C02610878704700B58FB0CDE936
:1006B00001310021059105497944CDE90310114626
:1006C0006846FFF715FE0FB000BD0000E5FFFFFF15
:1006D000074B70B50D467B44FFF7E7FF04462846FD
:1006E00000F02EF810B14FF0FF3070BD204670BD05
:1006F000B34100004FF000020429C0F0128010F056
:10070000030C00F02380CCF1040CBCF1020F18BFE5
:1007100000F8012BA8BF20F8022BA1EB0C0100F080
:1007200015B85FEAC17C24BF00F8012B00F8012B4B
:1007300048BF00F8012B7047004870474003002075
:10074000007B00F0800070474FF0000200B51346B8
:1007500094469646203922BFA0E80C50A0E80C50E1
:10076000B1F12001BFF4F7AF090728BFA0E80C5092
:1007700048BF0CC05DF804EB890028BF40F8042B8B
:1007800008BF704748BF20F8022B11F0804F18BFF8
:1007900000F8012B7047000000487047400300201C
:1007A0007546FFF7F9FFAE4605006946534620F04F
:1007B0000700854618B020B5FFF71AFDBDE82040B8
:1007C0004FF000064FF000074FF000084FF0000B0D
:1007D00021F00701AC46ACE8C009ACE8C009ACE8C0
:1007E000C009ACE8C0098D46704710B50446AFF3A8
:1007F00000802046BDE81040FFF7E6BC10B500249D
:100800000648006800F0B8FA054908600846016823
:10081000044800F009F80446204610BD08000020F6
:10082000C0000020D40200202DE9F04704460D4608
:100830002946206806F016FFA0601C49A06806F053
:10084000D5FE04D21A49A06806F00CFFA060194931
:10085000A06806F0CBFD04D21549A06806F0FAFBAB
:10086000A060A168E06906F0F5FBE061D4E902014F
:1008700006F0F8FE8046A16906F0ECFD0646E16947
:10088000606906F0E7FD8046A168206906F0E2FD98
:100890008146414606F0DEFB0746314606F0DAFBAC
:1008A0006060A068E0606068BDE8F08700003443E5
:1008B0000000B443000034C300BFFEE710B51022AF
:1008C0000421024800F0FCFD10BD000000140140AE
:1008D000704700002DE9F047202000F0F7F8694A42
:1008E00069496A4804F0BAFB6948006808B9012000
:1008F00000E0002066490860022001F03FFE40420F
:1009000000B264490880032001F038FE00B261495A
:1009100048800846B0F90000002803DD0846B0F919
:10092000000003E05B48B0F9000040425949B1F9CA
:100930000210002903DD5749B1F9021003E05549BF
:10094000B1F902104942084452494860B1F9000027
:1009500006F020FD04464F488168204606F07AFBE9
:100960004C498860B1F9020006F014FD044649487C
:10097000C168204606F06EFB4649C860B1F9000028
:1009800006F008FD824606F039FB80460022424B05
:1009900006F05AF806460022404B05F0FDFE0446DC
:1009A00005F018FE3E4908603A49B1F9020006F028
:1009B000F1FC824606F022FB06460022364B06F08A
:1009C00043F804460022354B05F0E6FE804605F06C
:1009D00001FE3449086000F0C9FD3348007878B959
:1009E00000203249C8613249C8613249C8610021DA
:1009F0004FF0804002F041FB00212F4802F03DFB08
:100A000029480078012804D1224A116AD06900F0EF
:100A100065FA4FF40071294800F09CF901282ED1A5
:100A20000102264800F096F9012828D11021244817
:100A300000F090F9012822D10221204800F08AF923
:100A400001281CD101211D4800F084F9012816D18C
:100A50001C480078401C1B49087008460078012893
:100A600001D11949087017480078022801D11649A8
:100A7000087014480078032801D113490870BDE8B4
:100A8000F087000008000020040000200000002083
:100A900080012242F4020020004CED400044D1408D
:100AA000680000206C000020C400002074020020B8
:100AB00094020020D402002000040040000C0140F9
:100AC0000008014075000020740000200149086002
:100AD0007047000014040140002123498279002A54
:100AE0003AD00A46126803689A430B461A600A1DF8
:100AF000126803689A430B1D1A60027911440A6850
:100B000003681A430A60184A0832126803689A4355
:100B1000154B08331A601A1D126803689A43124B6A
:100B20000C331A604279102A0ED11A1F126803681A
:100B30001A430D4B08331A601A1D126803681A43D2
:100B4000094B0C331A600DE00749427911440A68D9
:100B500003681A430A6005E0027911440A680368D1
:100B60009A430A60704700000004014030B500223B
:100B70008B071C0F0F2303FA04F20B4B8C1053F856
:100B800024309343084C8D1044F8253023468C10B4
:100B900053F824308C07240F00FA04F42343024C4A
:100BA0008D1044F8253030BD080001402DE9F0419A
:100BB000024600250026002000230024002791F88B
:100BC00003C00CF00F0591F803C00CF0100CBCF141
:100BD000000F03D091F802C04CEA050591F800C05F
:100BE000BCF1000F31D0146800202BE04FF0010C55
:100BF0000CFA00F3B1F800C00CEA03069E4220D1C3
:100C000083004FF00F0C0CFA03F7BC4305FA03FC0A
:100C10004CEA040491F803C0BCF1280F06D14FF050
:100C2000010C0CFA00FCC2F814C00AE091F803C0F1
:100C3000BCF1480F05D14FF0010C0CFA00FCC2F8D2
:100C400010C0401C0828D1D31460B1F800C0BCF11A
:100C5000FF0F34DD546800202EE000F1080C4FF047
:100C6000010808FA0CF3B1F800C00CEA03069E4232
:100C700021D183004FF00F0C0CFA03F7BC4305FAA7
:100C800003FC4CEA040491F803C0BCF1280F05D121
:100C900000F1080C08FA0CF8C2F8148091F803C0AF
:100CA000BCF1480F07D100F1080C4FF0010808FA19
:100CB0000CF8C2F81080401C0828CED35460BDE860
:100CC000F0810000F0B50A46002300240021002531
:100CD00000F00046B6F1004F02D11D4EF16901E06F
:100CE0001B4E7168C0F3034583B200F44016B6F59D
:100CF000401F08D121F07061154E766826F07066AD
:100D0000134F7E6012E000F48016B6F5801F06D106
:100D1000032606FA05F4A14341F0706106E0460D92
:100D2000360103FA06F6B14341F0706122B1460D77
:100D3000360103FA06F6314300F00046B6F1004FE3
:100D400002D1034EF16101E0014E7160F0BD00007F
:100D5000000001400246002093680B400BB10120C7
:100D600000E000207047016170470AB1016100E0B6
:100D70004161704700BFFEE770B50446002120487E
:100D8000006806F067F91F4908601F4801681F489E
:100D9000006806F05FF91E4908601E4801681C489B
:100DA000006806F057F9054629461948006806F01C
:100DB000BFF91949086013480168204606F052FC43
:100DC000064615480168304606F044FB05460D48C6
:100DD0000168284606F03EF9094908600C48016898
:100DE0000D48006806F036FB0546094801682846AC
:100DF00006F02DFC054908600148006870BD000040
:100E00004400002048000020500000203C0000204A
:100E100040000020540000204C00002010B50024A9
:100E20004FF480612048FFF795FF78B9142002F055
:100E300007FF00BF4FF480611B48FFF78BFF0028BE
:100E4000F8D0142002F0FCFE01242AE04FF40061E7
:100E50001548FFF77FFF78B9142002F0F1FE00BFBC
:100E60004FF400611048FFF775FF0028F8D01420F8
:100E700002F0E6FE032414E04FF480510A48FFF725
:100E800069FF70B9142002F0DBFE00BF4FF48051FF
:100E90000548FFF75FFF0028F8D0142002F0D0FECD
:100EA0000224204610BD00000010014010B5482269
:100EB0004FF4E051014800F003FB10BD0010014069
:100EC00010B510220721044800F0FAFA0721024861
:100ED000FFF749FF10BD00000010014010B50346A8
:100EE0000C46002B03DD002000F0A4FE02E00120F0
:100EF00000F0A0FE002C03DD002000F0BBFE02E0AD
:100F0000012000F0B7FE002B01DD184600E058423A
:100F10000346002C01DD204600E06042044641F615
:100F20006410834200DD00E01846034641F6641079
:100F3000844200DD00E02046044603490B8002495C
:100F40000C390C8010BD0000402C014010B5002071
:100F50000E4908600E48006820F470400C49086093
:100F60000846006840F44050086000200949C1F874
:100F70008C0100F011F801200449086000F00CF821
:100F800000200449C1F8900110BD00009081214269
:100F9000000C01400080214210B5022002F076FED4
:100FA00010BD000008B50121082001F06DFA0121F3
:100FB000084601F069FA01210A48FFF783FE18206C
:100FC000ADF8000010208DF8030003208DF802001A
:100FD00069460548FFF7EAFD18210348FFF7C3FEFD
:100FE00008BD000000023000000C014010B50020D8
:100FF0000E4908600E48006820F470400C490860F3
:101000000846006840F44050086001200949C1F8D2
:101010008C01FFF7C1FF012004490860FFF7BCFF06
:1010200000200449C1F8900110BD000090812142C8
:10103000000C01400080214270B50546002416488E
:10104000006820F47040144908600846006840F4C5
:1010500000400860002614E0002010490860FFF7F7
:101060009BFF01200E49C1F890016006040E0B4859
:101070008438006808B1601CC4B2FFF78DFF701C93
:10108000C6B2082EE8DB15B9FFF7B0FF01E0FFF7A5
:101090005DFF204670BD0000000C014090812142A0
:1010A0000080214270B504461248006820F4704068
:1010B000104908600846006840F44050086000206D
:1010C0000D490860002512E0E0090B49091F08607E
:1010D0006006040E01200949C1F89001FFF75CFF8A
:1010E000002005490860FFF757FF681CC5B2082DAE
:1010F000EADB70BD000C014090812142008021425A
:1011000010B50E48006820F470400C49086008468D
:10111000006840F44050086001200949086009490E
:10112000C1F89001FFF738FF002005490860FFF77C
:1011300033FF00200349C1F8900110BD000C0140AD
:101140008C8121420080214210B50E48006820F4B5
:1011500070400C4908600846006840F44050086040
:101160000020094908600949C1F88C01FFF714FF04
:101170000120054908600549C1F88C01FFF70CFF03
:1011800010BD0000000C01409081214200802142EE
:1011900010B500241448006820F47040124908601B
:1011A0000846006840F40040086001200F490860CC
:1011B000FFF7F2FE01200E49C1F89001FFF7ECFEA7
:1011C00007E0601CC4B2FA2C03DDFFF7BDFF01206D
:1011D00010BD0648803800680028F2D10349091D77
:1011E000086000BFF4E70000000C01408C81214240
:1011F0000080214210B5FFF7D5FE80216B2000F062
:10120000D7F8642002F01CFD00216B2000F0D0F81C
:10121000032000F08BF8002000F080F8322000F06E
:10122000AAF80021382000F0C3F800216A2000F05D
:10123000BFF80021232000F0BBF88021372000F008
:10124000B7F8752000F013F80446682C0BD1012183
:101250006B2000F0ADF800216C2000F0A9F83220DE
:1012600000F089F801E0012010BD0020FCE770B516
:101270000446FFF745FFD020FFF714FFFFF788FF74
:101280002046FFF70FFFFFF783FFFFF739FFD1205D
:10129000FFF708FFFFF77CFF0020FFF7CDFE0546B4
:1012A000FFF752FF284670BD2DE9F04106460F4674
:1012B00014461D46FFF724FF002141EA4601C8B24B
:1012C000FFF7F0FEFFF764FF20B1FFF73DFF0120BD
:1012D000BDE8F0813846FFF7E5FEFFF759FFFFF75D
:1012E0000FFF012101EB4601C8B2FFF7DBFEFFF75C
:1012F0004FFF0DE0012C04D10020FFF79DFE287068
:1013000003E00120FFF798FE2870601EC4B26D1C38
:10131000002CEFD1FFF718FF0020D9E710B50446E5
:10132000E006010E1C2000F043F810BD10B5044685
:10133000E006010E1B2000F03BF810BD70B504461E
:101340000025BC2C01DB012510E0622C01DB02250D
:101350000CE02A2C01DB032508E0142C01DB04251A
:1013600004E00A2C01DB052500E0062529461A20A9
:1013700000F01EF870BD70B50446B4F57A7F01DD4B
:101380004FF47A74042C00DA04244FF47A7090FB42
:10139000F4F0401EC5B22946192000F009F80546B0
:1013A000264604EBD671C1F34F00FFF7C7FF70BDAF
:1013B00070B505460C46FFF7A3FED020FFF772FE7E
:1013C000FFF7E6FE18B1FFF7BFFE012070BD28460B
:1013D000FFF768FEFFF7DCFE2046FFF763FEFFF72E
:1013E000D7FE18B1FFF7B0FE0120EFE7FFF7ACFE24
:1013F0000020EBE72DE9F04105460E4617469846DA
:10140000FFF77EFE002141EA4501C8B2FFF74AFE20
:10141000FFF7BEFE20B1FFF797FE0120BDE8F08187
:101420003046FFF73FFEFFF7B3FE00240CE018F84C
:101430000400FFF737FEFFF7ABFE18B1FFF784FE9D
:101440000120EBE7601CC4B2BC42F0DBFFF77CFE7E
:101450000020E3E71FB50121082001F015F8012164
:10146000084601F011F82020ADF8000048208DF862
:10147000030069461148FFF799FB05210120FFF79A
:1014800075FB2020029000208DF80C000C208DF8B8
:101490000D0001208DF80E0002A8FFF71DFB17209C
:1014A0008DF8040000208DF805008DF8060001205D
:1014B0008DF8070001A800F0FFFB1FBD000C0140E4
:1014C000F8B504460E461546ADF800608DF8035099
:1014D00003208DF802001E48844204D1012104201B
:1014E00000F0D2FF2EE01B48844204D101210820E5
:1014F00000F0CAFF26E01848844204D101211020E0
:1015000000F0C2FF1EE01548844204D101212020D2
:1015100000F0BAFF16E01248844204D101214020B5
:1015200000F0B2FF0EE00F48844204D10121802078
:1015300000F0AAFF06E00C48844203D10121801587
:1015400000F0A2FF69462046FFF730FBF8BD00001F
:1015500000080140000C014000100140001401404F
:1015600000180140001C0140002001402DE9F0411D
:10157000FD48006808287DD00ADC00F10100092838
:1015800079D2DFE800F016787863A4E2FDFCFB0076
:101590000C2871D006DC09286FD00A286ED00B28E1
:1015A00069D175E20D286AD00E2869D06328F7D179
:1015B0003BE0EE4800684AF2F87188422ED8EC48C9
:1015C0004068EA4909680844E849086000F030FDCD
:1015D0000446E8480168204605F03CFDE6490860FD
:1015E00000F026FD0446E3480168204606F02FF887
:1015F000E249086004F0E0FE044605F08FFEDC4995
:10160000C86104F007FF044605F088FED849086267
:101610000A46116AD069FFF761FC05E00020D34952
:1016200008600220D0490860BFE2D548006832282F
:1016300005D2D3480068401CD149086005E000206D
:10164000CF4908600220C849086000BFCD48CE4994
:101650000860FFF7D3F804464FF07E5105F0FAFC1E
:10166000C5490860FFF7CAF804464FF07E5105F0FF
:10167000EEFF06E042E197E243E294E1CCE17CE256
:1016800091E2BE49086004F097FE044605F046FE6C
:10169000B749C86104F0BEFE044605F03FFEB449F8
:1016A00008620A46116AD069FFF718FCB44800685E
:1016B000642805D2B2480068401CB149086005E0C2
:1016C0000020AF4908600320A74908606DE204F0DC
:1016D0005FFEA648006843F2C82188422ED8A4487D
:1016E0004068A24909680844A049086000F0A0FCCD
:1016F0000446A0480168204605F0ACFC9E490860FD
:1017000000F096FC04469B480168204605F09FFFC8
:101710009A49086004F050FE044605F0FFFD944924
:10172000C86104F077FE044605F0F8FD90490862B0
:101730000A46116AD069FFF7D1FB05E000208B490A
:1017400008600420884908602FE200208E49086064
:10175000FFF754F804464FF07E5105F07BFC8649B4
:101760000860FFF74BF804464FF07E5105F06FFF1D
:101770008249086004F020FE044602E077E05DE064
:1017800020E005F0CBFD7A49C86104F043FE044631
:1017900005F0C4FD764908620A46116AD069FFF770
:1017A0009DFB77480068642805D275480068401C96
:1017B0007349086005E000207149086005206A4906
:1017C0000860F2E16948006840F6746188422ED8EA
:1017D000674840686549096808446449086000F042
:1017E00027FC044663480168204605F033FC624943
:1017F000086000F01DFC04465E480168204605F0C4
:1018000026FF5E49086004F0D7FD044605F086FD1A
:101810005749C86104F0FEFD044605F07FFD5449B8
:1018200008620A46116AD069FFF758FB05E00020FC
:101830004E49086006204C490860B6E104F094FD6A
:101840004F480068B0F5967F08D201204F490860E4
:101850004B480068401C4A49086007E000204B499B
:1018600008604749086007203F4908609DE104F08F
:101870008FFD474844490860FEF7C0FF804605F0E9
:10188000BDFB06460022434B04F0D6FE044604F09E
:10189000A1FE39490860FEF7B1FF804605F0AEFBB6
:1018A000064600223B4B05F0CDF9044604F092FEBB
:1018B0003249086004F080FD044605F02FFD2C49F4
:1018C000C86104F0A7FD044605F028FD2849086218
:1018D0000A46116AD069FFF701FB294800686428AD
:1018E00005D227480068401C2549086005E0002013
:1018F0002349086008201C49086056E11B4800681D
:1019000040F67461884247D8194840681749096809
:1019100008441649086000F08BFB0446154801682E
:10192000204605F097FB1449086000F081FB04464F
:1019300010480168204605F08AFE1049086004F04E
:101940003BFD044605F0EAFC0949C86104F062FD6C
:10195000044605F0E3FC064908620A46116AD069AC
:10196000FFF7BCFA1EE000007800002064000020B1
:10197000F402002070000020740200209402002075
:101980007C0000200000B4C2D402002088812242E2
:10199000000034430000E03F002085490860092032
:1019A0008449086001E1844884490860FEF726FF05
:1019B00004464FF07E5105F04DFB81490860FEF76B
:1019C0001DFF04464FF07E5105F041FE7D49086041
:1019D00004F0F2FC044605F0A1FC7B49C86104F068
:1019E00019FD044605F09AFC774908620A46116A17
:1019F000D069FFF773FA75480068642805D2734808
:101A00000068401C7149086005E000206F490860CB
:101A10000A2068490860C8E06548006843F2C821A8
:101A200088422ED86848406861490968084460497E
:101A3000086000F0FDFA044665480168204605F09C
:101A400009FB5F49086000F0F3FA0446604801684A
:101A5000204605F0FCFD5B49086004F0ADFC04463F
:101A600005F05CFC5849C86104F0D4FC044605F05C
:101A700055FC554908620A46116AD069FFF72EFAEB
:101A800005E000204A4908600B204A4908608CE0C4
:101A900050484A490860FEF7B1FE04464FF07E51B7
:101AA00005F0D8FA46490860FEF7A8FE04464FF054
:101AB0007E5105F0CCFD4349086004F07DFC0446EE
:101AC00005F02CFC4049C86104F0A4FC044605F074
:101AD00025FC3D4908620A46116AD069FFF7FEF904
:101AE0003A480068642805D238480068401C3749E5
:101AF000086005E00020354908600C202D49086089
:101B000053E02B48006849F2704188422ED82E4895
:101B100040682749096808442549086000F088FAA8
:101B200004462B480168204605F094FA24490860D1
:101B300000F07EFA044626480168204605F087FD3D
:101B40002049086004F038FC044605F0E7FB1E4914
:101B5000C86104F05FFC044605F0E0FB1A49086226
:101B60000A46116AD069FFF7B9F905E0002010496B
:101B700008600D200F49086017E004F0F5FB1348DA
:101B80000068642808D20120134908600F480068E3
:101B9000401C0E49086005E000200F4908600E2037
:101BA0000449086001E000E000BF00BFBDE8F0812B
:101BB00064000020780000200000B442D40200201D
:101BC0007402002094020020F40200207C00002017
:101BD00070000020000034438881224200BFFEE7ED
:101BE00010B500F011F84FF4E151002000F0BEFEF6
:101BF0004FF6FF71002000F00DFF4FF6FF7100203F
:101C000000F05AFF10BD000008B50121082000F0C7
:101C10003BFC4FF47040ADF8000010208DF803003D
:101C200003208DF8020069460148FEF7BFFF08BD9A
:101C3000000C0140012807D101210C4A116000214C
:101C40000B4AC2F8B41110E038B90021074A1160FC
:101C50000121074AC2F8B41107E0022805D100218A
:101C6000024A1160024AC2F8B4117047B0812142A1
:101C700000802142012807D100210C4A1160012176
:101C80000B4AC2F8B81110E038B90121074A1160B7
:101C90000021074AC2F8B81107E0022805D1002147
:101CA000024A1160024AC2F8B8117047BC81214251
:101CB000008021427047000070B5002100230F22F0
:101CC000C47804B3154C246804F4E064C4F5E064FB
:101CD000210AC1F10403CA40447804FA03F184786C
:101CE0001440214309010E4C0678A155047804F0F4
:101CF0001F050124AC4005786D11AD0005F1E0250C
:101D0000C5F8004109E0047804F01F050124AC4047
:101D1000044D0678761145F8264070BD0CED00E0C4
:101D200000E400E080E100E070B500240EE0002156
:101D3000204600F0EAF8002504E0002000F062F9F7
:101D4000681CC5B2802DF8DB601CC4B2082CEEDB29
:101D500070BD000008B50121102000F095FB142093
:101D60008DF8030003208DF802002020ADF800005C
:101D700069460A48FEF71AFF1020ADF800006946D0
:101D80000648FEF713FF012220210448FEF7EDFF6D
:101D9000012210210148FEF7E8FF08BD00100140B4
:101DA00070B50546002413E08020204100EA0502BA
:101DB00010210E48FEF7D9FF012220210B48FEF723
:101DC000D4FF002220210948FEF7CFFF601CC4B2D7
:101DD000082CE9DB012220210448FEF7C6FF00227F
:101DE00020210248FEF7C1FF70BD00000010014035
:101DF00010B5012210210948FEF7B7FF012220216A
:101E00000648FEF7B2FF002210210448FEF7ADFF9E
:101E1000002220210148FEF7A8FF10BD001001405C
:101E200010B5002210210748FEF79FFF0122202154
:101E30000448FEF79AFF012210210248FEF795FFA1
:101E400010BD00000010014070B5002406E0002520
:101E500000E06D1CB5F57A7FFBD3641CB4F57A7F86
:101E6000F5D3FFF777FFAE2000F0BCF8D52000F0E7
:101E7000B9F8802000F0B6F8A82000F0B3F83F20B1
:101E800000F0B0F8D32000F0ADF8002000F0AAF880
:101E9000402000F0A7F8A12000F0A4F8C82000F02E
:101EA000A1F8DA2000F09EF8122000F09BF88120C3
:101EB00000F098F8CF2000F095F8D92000F092F8C3
:101EC000F12000F08FF8DB2000F08CF8302000F0DB
:101ED00089F8A42000F086F8A62000F083F88D2071
:101EE00000F080F8142000F07DF8AF2000F07AF8C0
:101EF000FFF71AFF70BD10B50246012000E0504305
:101F00000B1EA1F10101FAD110BD70B505460C46BA
:101F100045F0B00000F066F8102141EA141000F01E
:101F200061F804F00F0000F05DF870BD2DE9F0419C
:101F300005460E461746721ED206110E6A1E52063E
:101F4000100EFFF7E2FF002409E0A7F12001134A79
:101F500002EB0111085D00F055F8601CC4B2082CBA
:101F6000F3DB721ED206110E6A1E012303EB42023E
:101F7000D0B2FFF7CAFF00240BE0A7F12001074A07
:101F800002EB011204F10801505C00F03BF8601C08
:101F9000C4B2082CF1DBBDE8F08100003E780008F7
:101FA0002DE9F04780460E4617461D46002415E0F1
:101FB000281B411E0A20FFF79EFFB7FBF0F00A2105
:101FC000B0FBF1F201FB120000F130093019C1B28F
:101FD0004A464046FFF7AAFF601CC4B2AC42E7DBAA
:101FE000BDE8F08710B50446FFF702FF7820FFF741
:101FF000D7FE0020FFF7D4FE2046FFF7D1FEFFF703
:102000000FFF10BD10B50446FFF7F2FE7820FFF772
:10201000C7FE4020FFF7C4FE2046FFF7C1FEFFF7D2
:10202000FFFE10BD10B5FEF74BFFFEF747FC10BDDD
:102030002DE9F0414FF40071DD48FEF78BFE0128D9
:1020400017D10102DA48FEF785FE90B91021D94870
:10205000FEF780FE68B90221D548FEF77BFE40B945
:102060000121D348FEF776FE18B9D348D3498860DA
:102070006FE14FF40071CE48FEF76CFE012819D1D4
:102080000102CB48FEF766FE012813D11021C94892
:10209000FEF760FE70B90221C548FEF75BFE48B945
:1020A0000121C348FEF756FE20B94FF04040C34916
:1020B00088604EE14FF40071BD48FEF74BFEC8B991
:1020C0004FF48071BA48FEF745FE012812D1102165
:1020D000B848FEF73FFE68B90221B548FEF73AFE60
:1020E00040B90121B248FEF735FE18B9B448B349EA
:1020F00088602EE14FF40071AD48FEF72BFED0B999
:102100004FF48071AA48FEF725FE012813D1102153
:10211000A848FEF71FFE01280DD10221A448FEF7B2
:1021200019FE40B90121A248FEF714FE18B9A548CE
:10213000A24988600DE14FF400719D48FEF70AFE48
:10214000012819D101029A48FEF704FE012813D193
:1021500010219848FEF7FEFD01280DD10221944878
:10216000FEF7F8FD40B901219148FEF7F3FD18B9DB
:10217000954892498860ECE04FF400718C48FEF776
:10218000E9FDC8B94FF480718948FEF7E3FD98B9BD
:1021900010218848FEF7DEFD01280DD10221844878
:1021A000FEF7D8FD40B901218148FEF7D3FD18B9EB
:1021B000002082498860CCE04FF400717C48FEF733
:1021C000C9FDD8B94FF480717948FEF7C3FDA8B9AD
:1021D00010217848FEF7BEFD01280FD10221744876
:1021E000FEF7B8FD012809D101217148FEF7B2FDC3
:1021F00020B94FF07E5071498860AAE04FF4007119
:102200006B48FEF7A7FDD0B94FF480716848FEF720
:10221000A1FDA0B910216748FEF79CFD78B9022105
:102220006348FEF797FD012809D101216048FEF7B8
:1022300091FD20B94FF07F506049886089E04FF4EC
:1022400000715B48FEF786FDD0B94FF480715848A5
:10225000FEF780FDA0B910215648FEF77BFD78B946
:1022600002215348FEF776FD012809D1012150488B
:10227000FEF770FD012803D180075049886068E0AF
:102280004FF400714A48FEF765FDD0B94FF48071F4
:102290004748FEF75FFDA0B910214648FEF75AFDFA
:1022A00078B902214248FEF755FD50B90121404856
:1022B000FEF750FD012804D1414840423F49886063
:1022C00047E04FF400713A48FEF744FDE0B94FF49F
:1022D00080713748FEF73EFDB0B910213548FEF752
:1022E00039FD012810D102213148FEF733FD0128C4
:1022F0000AD101212E48FEF72DFD012804D14FF00F
:1023000081402E49886024E04FF400712848FEF790
:1023100021FDD8B94FF480712548FEF71BFDA8B9FF
:1023200010212448FEF716FD01280FD10221204874
:10233000FEF710FD50B901211D48FEF70BFD0128E5
:1023400004D14FF081401D49886002E000201B4904
:1023500088601A4A9168D06904F07CFE1749C86108
:102360000A46D168906805F07DF9064613488169F0
:10237000304605F06FF80446104AD169506905F0FF
:1023800069F806460D4A9168106905F063F807463A
:10239000314604F05FFE0546214604F05BFE074926
:1023A000086208468068C8600846006ABDE8F08197
:1023B000000C014000080140000040C01C03002048
:1023C0000000C0BF000080BF000080C0002017498F
:1023D000086048608860C860C861154808614FF0AF
:1023E0007F50486100208861124908604860886019
:1023F000C860C8610E4808614FF07F5048610020F6
:1024000088610D49086048608860C860C8610861DB
:10241000486188610949086048608860C860C8618F
:1024200007480861002048618861704774020020F5
:102430000000A04194020020B4020020D402002039
:10244000000080BF05480649086100204861886196
:102450008860C860C86108627047000000000C42D4
:102460001C0300207047000029B1064AD2690243CC
:10247000044BDA6104E0034AD2698243014BDA611A
:10248000704700000010024029B1064A92690243D9
:10249000044B9A6104E0034A92698243014B9A61BA
:1024A000704700000010024030B5002100220024D7
:1024B00000232D4D6D6805F00C0121B1042905D0D4
:1024C000082923D105E0294D056022E0274D05604C
:1024D0001FE0254D6D6805F47012234D6D6805F4FD
:1024E0008034022505EB92421CB9214D554305600D
:1024F0000BE01D4D6D6805F400351DB11C4D5543B5
:10250000056002E0194D5543056002E0174D056076
:1025100000BF00BF144D6D6805F0F0010909154DAD
:102520006B5C0568DD4045600F4D6D6805F4E0614A
:10253000090A104D6B5C4568DD4085600A4D6D6889
:1025400005F46051C90A0B4D6B5C4568DD40C56000
:10255000054D6D6805F44041890B074D6B5CC568FE
:10256000B5FBF3F5056130BD0010024000127A00A2
:1025700000093D0028000020380000200146022903
:1025800002D0032910D108E04FF08042928C10B2A3
:1025900000224FF080439A8408E0054A128810B266
:1025A0000022034B1A8001E0002000BF00BF7047EB
:1025B00024040040704710B500F002F810BD000080
:1025C0000CB50020019000903348006840F4803042
:1025D0003149086000BF3048006800F400300090C6
:1025E0000198401C0190009818B90198B0F5A06FAF
:1025F000F1D12948006800F4003010B101200090AA
:1026000001E0002000900098012843D12348006891
:1026100040F01000214908600846006820F00300DF
:1026200008600846006840F0020008601A484068E8
:10263000194948600846406848600846406840F4C8
:10264000806048600846406820F47C104860084676
:10265000406840F4E81048600846006840F0807028
:10266000086000BF0C48006800F000700028F9D036
:102670000948406820F00300074948600846406860
:1026800040F00200486000BF0348406800F00C00C2
:102690000828F9D10CBD00000010024000200240C3
:1026A000042808D14FF0E021096941F004014FF0FE
:1026B000E022116107E04FF0E021096921F00401F7
:1026C0004FF0E022116170477047000010B51348C9
:1026D000006840F001001149086008464068104950
:1026E00008400E494860084600680E4908400B49FA
:1026F00008600846006820F48020086008464068AA
:1027000020F4FE0048604FF41F008860FFF753FF7D
:102710004FF000600449086010BD00000010024046
:102720000000FFF8FFFFF6FE08ED00E0F0B50C46F4
:10273000154600220021068C4FF6FE773E400684A7
:10274000028B018C4FF60C7632407E1C06EA031693
:102750002E433243104EB0420ED0104EB0420BD03A
:10276000B0F1804F08D00E4EB04205D00D4EB042B1
:1027700002D00D4EB04206D14FF6FD76314044F006
:102780000106314305E04FF6F576314044F001068D
:10279000314302830184F0BD002C0140003401402C
:1027A0000004004000080040000C0040F0B50C465A
:1027B0001546002200210026078C4FF6EF7C07EA21
:1027C0000C070784028B018C4FF6FF7707EA04168B
:1027D00040F6FF473A404FF6FF7707EA03373A43A0
:1027E0004FF6FF7707EA05273A43114FB8420ED05C
:1027F000104FB8420BD0B0F1804F08D00E4FB84206
:1028000005D00E4FB84202D00D4FB84206D14FF658
:10281000DF77394046F01007394305E04FF65F7720
:10282000394044F01007394302830184F0BD0000B1
:10283000002C01400034014000040040000800402A
:10284000000C0040F0B50C46154600220021002681
:10285000078C4FF6FF6C07EA0C070784828B018C0C
:102860004FF6FF7707EA04264FF60C773A404FF60B
:10287000FF7707EA03172F433A43114FB8420ED0B0
:10288000104FB8420BD0B0F1804F08D00E4FB84275
:1028900005D00E4FB84202D00D4FB84206D14FF6C8
:1028A000FF57394046F48077394305E04FF2FF5730
:1028B000394044F48077394382830184F0BD0000BD
:1028C000002C01400034014000040040000800409A
:1028D000000C0040F0B50C461546002200210026F1
:1028E000078C4EF6FF7C07EA0C070784828B018C6D
:1028F0004FF6FF7707EA043640F6FF473A404FF6B7
:10290000FF7707EA05273A434FF6FF7707EA0337D1
:102910003A43114FB8420ED0104FB8420BD0B0F12D
:10292000804F08D00E4FB84205D00E4FB84202D0AB
:102930000D4FB84206D14DF6FF77394046F4805727
:10294000394305E047F6FF57394044F4805739438F
:1029500082830184F0BD0000002C0140003401405E
:102960000004004000080040000C004030B587B073
:1029700004460D460121C802FFF786FD012104200F
:10298000FFF782FD18224FF410612048FEF798FDF2
:102990000020ADF81600ADF81200ADF81450ADF8F7
:1029A000104004A91A4800F097FB6020ADF8000021
:1029B0000020ADF806000120ADF802000420ADF8BB
:1029C00004000020ADF80C00ADF80E00ADF80800D2
:1029D00069460F4800F0B0FA69460D4800F002FB66
:1029E00008210B4800F0F4FA0821094800F038FBF0
:1029F0000121074800F0CAF90121054800F0F3F968
:102A00000121034800F0E3F907B030BD00080140A0
:102A1000002C014030B587B004460D46012104204A
:102A2000FFF732FD01210846FFF71EFD04220321B6
:102A30001A48FEF745FD0020ADF81600ADF812006B
:102A4000ADF81450ADF8104004A94FF0804000F0EC
:102A500043FB00231A4603214FF0804000F0D2F9D7
:102A600001A800F057FA0A20ADF80C0001A94007B0
:102A700000F0FAF90121880700F0A3F901221146BC
:102A8000900700F050FA00214FF0804000F0F5FA76
:102A90000121880700F09BF907B030BD0008014014
:102AA00010B50121880700F0CEF9012803D10121DA
:102AB000800700F089F910BD30B587B004460D4697
:102AC00001210420FFF7E0FC01210220FFF7CCFCEC
:102AD0000422C0211948FEF7F3FC0020ADF81600CF
:102AE000ADF81200ADF81450ADF8104004A9144828
:102AF00000F0F2FA00231A460321114800F082F98F
:102B000001A800F007FA0A20ADF80C0001A90C4852
:102B100000F0AAF901210A4800F053F901221146F8
:102B2000074800F000FA0021054800F0A6FA01214C
:102B3000034800F04CF907B030BD00000008014028
:102B40000004004010B50121044800F07CF9012880
:102B500003D10121014800F037F910BD0004004005
:102B60002DE9F04701217B4800F06DF900287DD068
:102B70007948006808B9012000E000207649086023
:102B80000121744800F020F90220FFF7F7FC4042D1
:102B900000B2724908800320FFF7F0FC00B26F49D1
:102BA0004880B1F9000004F0F5FB04466B488168E9
:102BB000204604F04FFA69498860B1F9020004F038
:102BC000E9FB04466548C168204604F043FA6349BE
:102BD000C860B1F9000004F0DDFB824604F00EFA93
:102BE000804600225E4B03F02FFF064600225D4B1D
:102BF00003F0D2FD044603F0EDFC5B490860574941
:102C0000B1F9020004F0C6FB824604F0F7F906466B
:102C10000022534B03F018FF04460022514B03F0EF
:102C2000BBFD804603F0D6FC50490860FDF7E6FD89
:102C3000804604F0E3F9064600224D4B03F0FCFC0D
:102C4000044603F0C7FC4B490860FDF7D7FD8046FA
:102C500004F0D4F906460022454B03F0F3FF044686
:102C600003F0B8FC44490860424900E06FE008689E
:102C7000424904F0BBFC03D240483E49086008E0EA
:102C80003C490868002104F0B1FB02D20020394918
:102C9000086039490868394904F0A8FC03D237486C
:102CA0003549086008E034490868002104F09EFBBB
:102CB00002D200203049086003F07EFB044604F095
:102CC0002DFB2649C86103F0A5FB044604F026FB52
:102CD000224908620846C069002803DD0020FEF78B
:102CE000A9FF02E00120FEF7A5FF1C48006A0028AA
:102CF00003DD0020FEF7BEFF02E00120FEF7BAFF71
:102D00001F48007830B900201A4988601A49886045
:102D10001C4988601A480078012804D10F4A116ABA
:102D2000D069FEF7DBF81648807801280FD11648E5
:102D30000088401C80B2144908800849898C884268
:102D400005D100201049088001200D49C870BDE858
:102D5000F08700000010004080012242F4020020B1
:102D6000004CED400044D140C8000020CC000020C1
:102D700000004E4074020020940200200000C8426F
:102D8000C4000020D4020020D000002021B102881D
:102D900042F08002028004E002884FF67F731A40FE
:102DA0000280704730B5002301248C40A3B2048C0C
:102DB0009C430484048C02FA01F5ADB22C430484D4
:102DC00030BDCA4302827047CA430282704721B1B4
:102DD000028842F00102028004E002884FF6FE738E
:102DE0001A400280704731B1B0F8442042F40042EA
:102DF000A0F8442005E0B0F84420C2F30E02A0F889
:102E000044207047F0B50C4615461E4600210022AE
:102E100000230189028B038C4FF6F8773940214358
:102E20004FF6FC473A4040F201173A434FF6DD7740
:102E30003B404FF6FF7707EA06172F433B430181DC
:102E400002830384F0BD30B5024600200023002435
:102E5000158A05EA0103958905EA010413B10CB14D
:102E6000012000E0002030BD70B505460C46244826
:102E700085420ED0234885420BD0B5F1804F08D053
:102E80002148854205D02148854202D0204885420C
:102E900000D100E000BF208850B92389A288618852
:102EA0002846FFF743FCE188284600F0E8F825E0D3
:102EB000208804280AD12389A28861882846FFF740
:102EC00075FCE188284600F0E3F817E02088082820
:102ED0000AD12389A28861882846FFF7B3FCE188DC
:102EE000284600F0E2F809E02389A2886188284694
:102EF000FFF7F0FCE188284600F0E0F870BD000024
:102F0000002C014000340140000400400008004053
:102F1000000C0040002101804180012181800021BE
:102F2000C180018170471AB183890B43838102E01C
:102F300083898B438381704770B50024002200236E
:102F4000058C4FF6FE7635400584028C8388048B11
:102F50004FF68F752C40B51E2C400D882C43751EE6
:102F60002A400D892A434D882A43144DA8420BD08C
:102F7000134DA84208D0134DA84205D0124DA842C7
:102F800002D0124DA84213D14FF6F7752A404D8951
:102F90002A434FF6FB752A408D882A434FF6FF657A
:102FA0002B404FF6FF552B408D892B43CD892B436A
:102FB00083800483CD888586028470BD002C014007
:102FC00000340140004001400044014000480140FD
:102FD0000A460021018B4FF6F77319401143018314
:102FE0007047000070B5002200230024058C4EF6C7
:102FF000FF7635400584038C8488828B48F6FF7504
:103000002A404FF6FF452A400D884FF6FF7606EA24
:1030100005252A434DF6FF752B400D8906EA053537
:103020002B434D8806EA05352B430B4DA84202D0B1
:103030000A4DA84208D14BF6FF752C408D894FF6FA
:10304000FF7606EA85152C4384808283CD88A0F81C
:103050004050038470BD0000002C0140003401404A
:103060000A460021818B4FF2FF7319404FF6FF7320
:1030700003EA022319438183704781847047028BDE
:103080004FF6F3731A400283028B0A4302837047A0
:10309000028B4FF2FF331A400283028B4FF6FF730D
:1030A00003EA01231A4302837047828B4FF6F373BE
:1030B0001A408283828B0A4382837047828B4FF24D
:1030C000FF331A408283828B4FF6FF7303EA01239A
:1030D0001A43828370470000002202881D4B9842E9
:1030E0000ED01D4B98420BD0B0F1804F08D01B4B37
:1030F000984205D01A4B984202D01A4B984204D1FC
:103100004FF68F731A404B881A43174B984207D0DB
:10311000164B984204D04FF6FF431A40CB881A430F
:1031200002808B8883850B8803850A4B98420BD0DD
:10313000094B984208D00E4B984205D00D4B98424F
:1031400002D00D4B984201D10B7A03860123838272
:1031500070470000002C0140003401400004004092
:1031600000080040000C0040001000400014004027
:1031700000400140004401400048014010B500F00B
:1031800003F8FFF75FF910BD10B5282240F20331B4
:103190000448FEF795F9282210210348FEF790F91C
:1031A00010BD0000000C01400008014010B540F2C5
:1031B00025511D4800F04AF810B31B4800F002F9F1
:1031C000C4B21A48008800F40040C8B91748008803
:1031D00000F4804060B10A2C03D00020134908801D
:1031E00020E01248008840F400401049088019E0AF
:1031F0000D2C06D10D48008840F480400B49088012
:1032000010E00A480088C0F30D0009490C54074833
:103210000088401C0549088008460088C72801DD51
:103220000020088010BD0000003801406000002030
:10323000D400002021B1828942F40052828104E04E
:1032400082894DF6FF731A408281704770B502463D
:10325000002400230025002040F66A16B14200D168
:1032600000BFC1F3421501F01F03012606FA03F364
:10327000012D02D19689334006E0022D02D1168A33
:10328000334001E0968A33400C12012606FA04F41A
:103290001688344013B10CB1012000E0002070BD4D
:1032A000F0B50346002400260025002040F66A17EA
:1032B000B94200D100BF1846C1F3421401F01F0605
:1032C000012707FA06F5012C01D10C3004E0022C8D
:1032D00001D1103000E014301AB107682F430760A5
:1032E00002E00768AF430760F0BD00002DE9F0473A
:1032F00086B005460E460024A24600BFA146002720
:10330000B08900B100BF2F462C8A4CF6FF700440F4
:10331000F08804432C82AC894EF6F3100440B08848
:1033200031890843718908430443AC81AC8A4FF664
:10333000FF400440B0890443AC8201A8FFF7B4F811
:103340001F48874202D1DDF810A001E0DDF80CA093
:10335000A88900F4004040B10AEBCA0000EB0A1053
:1033600031684900B0FBF1F807E00AEBCA0000EB56
:103370000A1031688900B0FBF1F86420B8FBF0F066
:1033800004012009642101FB1089A88900F4004090
:1033900040B1322000EBC900B0FBF1F000F00700B3
:1033A000044308E0322000EB09106421B0FBF1F087
:1033B00000F00F0004432C8106B0BDE8F087000048
:1033C0000038014001468888C0F30800704700BFFC
:1033D000FEE7490050EAC12018BF04204A0D18BF7B
:1033E00040F0010040F2FF72B2EB515F08BF40F0C5
:1033F0000200012808BF052070472DE9F0414F1E4B
:1034000000EBC7010446D1E9000115461E4637F01E
:1034100006020DD02A46334603F016FB7F1E04EB4E
:10342000C703D3E9002303F007F937F00602F1D10F
:10343000022F25D0042F13D0062F18BFBDE8F0812E
:103440002A46334603F000FBD4E90A2303F0F4F8DC
:103450002A46334603F0F8FAD4E9082303F0ECF8DF
:103460002A46334603F0F0FAD4E9062303F0E4F8E1
:103470002A46334603F0E8FAD4E9042303F0DCF8E3
:103480002A46334603F0E0FAD4E9022303F0D4F8E5
:103490002A46334603F0D8FAD4E90023BDE8F041C8
:1034A00003F0CAB8012204F084B903F0C5B80022C1
:1034B00013461046114603F06FB90000024A00207F
:1034C000110704F076B9000001FDFFFF30380A282B
:1034D00001D2012070470020704700BF70470000F4
:1034E0002DE9FE4F06460F460025684601F0DCF93F
:1034F000002442E056F8240057F82410A0EB010AFB
:10350000BAF1000F01DB514601E0CAF100010846A3
:1035100003F040FF83464FF08F4103F009FE8046E1
:103520005DF82400002103F0C5FE16D05DF82410DC
:10353000404603F0FDFD82464FF07E5104F092F8C4
:10354000814629F0004A0F48416A504604F04EF87F
:1035500012D20120A04005430EE00A48C16940464E
:1035600003F044FF05D30748016A404604F03EF8E3
:1035700002D20120A0400543641C032CBADB28467C
:10358000BDE8FE8F587E00082DE9F04D8D4F21F0EB
:10359000004A86B005460C46BA452ADBAAEB07006E
:1035A00028430AD08848824501DC1AD1CDB106B043
:1035B0002846BDE8F04DFFF775BF844A844B284686
:1035C00003F042FA07460E46824A834B28462146BC
:1035D00003F03AFA06B03A463346BDE8F04D03F040
:1035E0002BB80120FCF7FCFF06B0BDE8F04DFFF75B
:1035F0005EBF7A48824542DABAF1795F0BDA284633
:10360000FFF7E7FE042808BFFFF758FF284606B07B
:103610002146BDE8F08D2A460B46104603F014FA09
:10362000834602466E480E460B4606217844FFF755
:10363000E4FE5A46334603F007FA804669488A4654
:103640005A46334604217844FFF7D7FE5A4633469C
:1036500003F0FAF900223B4602F0EEFF02460B4669
:103660004046514603F098F82A46234603F0ECF909
:1036700006B02A462346BDE8F04D02F0DDBF2846DD
:1036800024F0004100223D463B4603F0DBFA4FF0B8
:10369000FF3204F08EF80646024653480F460B46AA
:1036A00006217844FFF7A9FE32463B4603F0CCF9E9
:1036B000CDE900014D4832463B4604217844FFF7EE
:1036C0009CFE32463B4603F0BFF900222B4602F037
:1036D000B3FF834602913046394602F005FF80462B
:1036E00043480D46504517DCDDE900015A46029B70
:1036F00003F052F842462B4603F0A6F942462B4609
:1037000002F09AFF012204F054F8304A304B03F0E3
:103710008BFB304A304B4CE04FF0000A52460B46D0
:10372000404602F089FFCDE9031052462B46104671
:10373000194603F089F932463B4603F083FADDE986
:10374000033203F029F806460F46DDE900015A4628
:10375000029B03F021F8834600910122304639464E
:1037600004F027F8194A1A4B03F06CFA06460F4684
:1037700001224046294604F01CF85A46009B03F0FB
:1037800063F932463B4603F04FFB06460F460122E3
:103790005046294604F00DF80E4DDFF858802A46B1
:1037A000434603F04FFA32463B4603F04BFA2A46B3
:1037B000434603F047FA002CD8BF81F0004106B021
:1037C000BDE8F08D0000F03F0000F07F075C14338F
:1037D00026A6913C182D4454FB21F93F0000E03F00
:1037E000585400006E540000E2530000F8530000EB
:1037F0003333EF3FFB21E93F2DE9F84F04460D46F7
:1038000021F0004000917349814211DC72498842E5
:1038100001DC06D12CB120462946BDE8F84FFFF760
:1038200041BE6E48002DCCBF6D496E49BDE8F88F92
:103830006D49814211DD6D498142D8BF4FF0FF369D
:103840006DDD20462946FFF7C4FD042808BFFFF7B9
:1038500035FE20462946BDE8F88F6549654F25F0BD
:103860000045814233DD6449814219DD002632463C
:103870004FF080432046294602F0DEFE80468A460D
:1038800001222046294603F094FF00223B4603F024
:10389000CBFA4246534602F07FFF04460D463EE017
:1038A00001260022BA463B462046294602F0C4FEC5
:1038B00080460F46002253462046294603F0B4FABC
:1038C00042463B4602F068FF04460D4627E04B495E
:1038D00081421BDDDFF828A1022600225346204644
:1038E000294603F0B1F800223B4602F0A5FE8046CF
:1038F0000F46002253462046294603F095FA4246D9
:103900003B4602F049FF04460D4608E003262246E6
:103910002B4600203B4902F03FFF04460D4622465D
:103920002B461046194603F08FF88B468246024616
:103930000B4603F089F807460246334888460B4693
:1039400006217844FFF759FD52465B4603F07CF8A8
:1039500082462E488B463A46434605217844FFF777
:103960004CFD3A46434603F06FF802460B46002EE4
:10397000504659460CDA02F05FFE22462B4603F011
:1039800063F801B022462B46BDE8F04F03F05AB968
:1039900002F052FE22462B4603F056F81C4A7A44A7
:1039A00002EBC603D3E9002303F03EFA22462B467E
:1039B00003F03AFA174A7A4402EBC603D3E900232C
:1039C00003F040F9009A002AB8BF81F00041BDE839
:1039D000F88F0000000010440000F07F182D4454C0
:1039E000FB21F93FFB21F9BF0000DC3F0000203E36
:1039F0000000F33F0000F03F0000E63F008003407E
:103A00000000F83F0000F0BFFA510000B85100007C
:103A1000565100001E5100002DE9F04D9446CCF1A6
:103A2000000423F000464CEA0404524F46EAD474E2
:103A30009A46884621F00042BC4206D8454240EAF8
:103A4000050442EAD474BC4204D9BDE8F04D624694
:103A5000FFF72BBDAAF14055A5F17F6555EA0C048F
:103A60000BD0022404EAAA74434DDFF810E144EAC3
:103A7000D87452EA000B04D00CE0BDE8F04DFFF71B
:103A8000BBBE002C14BF012CBDE8F08D022C30D041
:103A9000032C32D056EA0C0B0AD0BE4220D1BA42D7
:103AA00009D126F0804622F080423346114617E0C5
:103AB00000291ADB25E0DFF8C8B0FB44002C04BF66
:103AC000DBE90001BDE8F08D012C02BFDBE900015C
:103AD00081F00041BDE8F08D022C0AD0032C0CD0FF
:103AE000BA4212D1B8F1000F0BDA23482549BDE8DC
:103AF000F08D28462449BDE8F08D28467146BDE882
:103B0000F08D1D482149BDE8F08D921B12153C2A0D
:103B1000C4BF19481D490EDCBAF1000FBEBF12F137
:103B20003C0F0020014606DB624602F035FE21F024
:103B30000041FFF761FE002C08BFBDE8F08D012CAD
:103B400004BF81F00041BDE8F08D114A114B022CF9
:103B500007D003F069F92A46BDE8F04D0A4B03F09F
:103B600063B903F061F92A46BDE8F04D064B03F056
:103B700069B800000000F07F182D4454FB2109C0F3
:103B8000B2500000FB21F9BFFB210940FB21F93FA6
:103B9000075C143326A6A13C2DE9F0410446E078E9
:103BA00000F0C006E07800F03F05607800F001000A
:103BB00098B1EF102846E91705EB5171C910A5EB34
:103BC000C101491C01F0FF080B48006820B10A48F8
:103BD000414602683846904700BF607800F0080010
:103BE00030B10548406818B1B011034A51688847A0
:103BF0000020BDE8F08100006402002010B56FF0E5
:103C00000400FEF74DFD0A4800680A49B0FBF1F0D8
:103C1000094908700846007800EB4001C1EBC0106C
:103C20004FF6FF7101EAC0000449088010BD000092
:103C30001400002000127A00580000205A000020D2
:103C40000146114A12884A434FF0E0235A6100228C
:103C50009A611A46126942F001021A6100BF4FF0E0
:103C6000E022106900F001021AB100F48032002A4B
:103C7000F5D04FF0E022126922F001024FF0E0236C
:103C80001A6100229A6170475A0000200146114AC9
:103C900012784A434FF0E0235A6100229A611A4693
:103CA000126942F001021A6100BF4FF0E022106970
:103CB00000F001021AB100F48032002AF5D04FF072
:103CC000E022126922F001024FF0E0231A61002283
:103CD0009A6170475800002038B5044664B120202E
:103CE0008DF8000028208DF8010030208DF80200AA
:103CF00038208DF8030004E0A32204216846FCF775
:103D0000E7FB6A46042140F69E2002F05BFA01F0D0
:103D100045FE38BD3EB5044602208DF80000CA209D
:103D20008DF80100E3208DF8020009208DF80300D2
:103D30006A460421682002F045FAA3208DF80000AD
:103D400004F0400048B1C0208DF80100C8208DF873
:103D50000200C2208DF8030006E0A3208DF80100C8
:103D60008DF802008DF8030004F4C07048B1C4203F
:103D70008DF80400CC208DF80500C6208DF80600D3
:103D800006E0A3208DF804008DF805008DF80600EC
:103D9000A3208DF807008DF808008DF809006A4609
:103DA0000A2140F6A72002F00DFA04F0030018B132
:103DB00020208DF8000002E0D8208DF800006A462F
:103DC000012140F6B62002F0FDF904F0200018B100
:103DD000012000F0ADF802E0002000F0A9F804F4A2
:103DE000C07008B304F4807060B1B2208DF8000098
:103DF0008B208DF80100B6208DF802009B208DF8F5
:103E000003000BE0B0208DF8000080208DF8010049
:103E1000B4208DF8020090208DF803006A4604213A
:103E200040F6A22002F0CEF904F0010020B3F82001
:103E30008DF800006A4601214FF40B6002F0C2F9D0
:103E4000FA21072000F02CFC072000F0F3FB0120F2
:103E500000F013FC642000F0F3FC4FF4FA7000F063
:103E600002FDC821304800F0A3FB282000F0BCFB75
:103E70000A2000F0CCFB08E0D8208DF800006A464C
:103E800001214FF40B6002F09DF904F0020018B11B
:103E9000D9208DF8000002E0D8208DF800006A4695
:103EA000012140F23D7002F08DF904F0040018B1D8
:103EB000012000F069F802E0002000F065F804F04D
:103EC000100018B10120FFF707FF02E00020FFF704
:103ED00003FF44F008001549488101F05FFD002010
:103EE0001249887304F0400018B10846807B801D99
:103EF000887304F4C07020B10C48807B801D0B498E
:103F0000887304F0140020B10848807B1030074902
:103F1000887304F0030020B10448807B001D03492E
:103F2000887300203EBD000009E3CA02640200203D
:103F30003EB504466CB10EA1D1E900208968CDE9F7
:103F4000002002916A4609214FF4976002F03AF985
:103F50003EBD0AA2D2E900109268CDE901020091AB
:103F60006A4609214FF4976002F02CF9F0E700004F
:103F7000B8AAB38DB4980D355D000000B8AAAAAAFE
:103F8000B088C3C5C700000038B5044664B1C0207E
:103F90008DF80000C2208DF80100C4208DF80200C9
:103FA000C6208DF8030004E08B2204216846FCF74C
:103FB0008FFA6A46042140F6982002F003F901F0D6
:103FC000EDFC38BD10B5C8234FF48062024940F6BD
:103FD000F63001F077FB10BD807E00082DE9F04F30
:103FE0008DB00746884615469946DDE9166B0024D4
:103FF000002030806B49887B5A4605A901F02EFCD1
:1040000018B1601E0DB0BDE8F08F6648807A00F0F0
:104010001400002867D09DF8140000069DF81510C4
:1040200040EA01409DF8161040EA01209DF8171063
:10403000084328609DF8180000069DF8191040EA12
:1040400001409DF81A1040EA01209DF81B1008431A
:1040500068609DF81C0000069DF81D1040EA0140B4
:104060009DF81E1040EA01209DF81F100843A8602B
:104070009DF8200000069DF8211040EA01409DF8BF
:10408000221040EA01209DF823100843E86004F163
:104090001000C4B2286800140190686800140290EF
:1040A000A86800140390E868001404900198404345
:1040B000029901FB0100039901FB0100049901FB36
:1040C000010ABAF1706F02DBBAF1885F05DD01F019
:1040D00065FC00203080401E94E7B6F9000040F4F3
:1040E0008070308000BF2F48807A00F0400020B3FD
:1040F00005A9601C085C095D40EA012000B2A8F82F
:10410000000005A9E01C095C05AAA01C105C41EA9E
:10411000002000B2A8F8020005A9601D095C201D5E
:10412000105C41EA002000B2A8F80400A01DC4B24F
:10413000B6F9000040F0080030801A48408900F4C9
:10414000C07008B305A9601C085C095D40EA012045
:1041500000B2388005A9E01C095C05AAA01C105C0F
:1041600041EA002000B2788005A9601D095C201D8D
:10417000105C41EA002000B2B880A01DC4B2B6F9BC
:10418000000040F0700030800648807A00F00300A4
:1041900018B105A90819FFF7FFFC484600F024FFF5
:1041A00000202FE76402002070B588B0064601A801
:1041B00001F0DCF8BDF804000021C90341EA5045D4
:1041C000C4034448007A00F0030056F8200005902C
:1041D0004048007A00F0040010B105984042059074
:1041E0003C48007AC0F3C10056F8200006903948D8
:1041F000007A00F0200010B1069840420690354841
:10420000007AC0F3811056F82000079031480089E9
:1042100000F4807010B10798404207900598C117CC
:10422000A0FB042301FB043100FB0510810041EADF
:10423000927005900698C117A0FB042301FB04317E
:1042400000FB0510810041EA927006900798C117A3
:10425000A0FB042301FB043100FB0510810041EAAF
:10426000927007900598000E8DF808000598000CD4
:104270008DF809000598000A8DF80A000598C0B26B
:104280008DF80B000698000E8DF80C000698000CB7
:104290008DF80D000698000A8DF80E000698C0B241
:1042A0008DF80F000798000E8DF810000798000C8D
:1042B0008DF811000798000A8DF812000798C0B217
:1042C0008DF8130002AA0C214FF4257001F07AFF3B
:1042D00008B070BD6402002030B585B0044616A257
:1042E00007CA02AB07C3C82C03DD4FF0FF3005B08F
:1042F00030BDC82090FBF4F0401E85B2280A8DF82E
:104300000000E8B28DF801006A46022140F2162052
:1043100001F058FF10B14FF0FF30E8E702AA0C217E
:1043200040F6C12001F04EFF10B14FF0FF30DEE744
:10433000044884810020DAE7FEF2ABC4AAF1DFDF93
:10434000BBAFDFDF640200201FB504464848007A97
:1043500000F0030054F8200001904548007A00F076
:10436000040010B10198404201904148007AC0F326
:10437000C10054F8200002903D48007A00F020006F
:1043800010B10298404202903948007AC0F381107F
:1043900054F8200003903648008900F4807010B172
:1043A0000398404203903349019880FB0101800F3C
:1043B00040EA810001902F49029880FB01108200A1
:1043C00042EA917002902B49039880FB0110820011
:1043D00042EA917003900198000E8DF80000019858
:1043E000000C8DF801000198000A8DF80200019878
:1043F000C0B28DF803006A4604214FF4747001F0D6
:10440000E1FE18B14FF0FF3004B010BD0298000E6D
:104410008DF800000298000C8DF801000298000A47
:104420008DF802000298C0B28DF803006A4604219C
:104430004FF4757001F0C6FE10B14FF0FF30E3E7A6
:104440000398000E8DF800000398000C8DF8010011
:104450000398000A8DF802000398C0B28DF803009B
:104460006A4604214FF4767001F0ACFECCE7000000
:104470006402002009E3CA0210B586B0044647A0D2
:104480000068039046A00068029046A00068019072
:1044900045A00068009004F0030003A9085C8DF8B3
:1044A000140003A8C4F3C101405C8DF8150003A8F3
:1044B000C4F38111405C8DF8160004F0030002A9DA
:1044C000085C8DF8100002A8C4F3C101405C8DF8AF
:1044D000110002A8C4F38111405C8DF8120005AAF6
:1044E000032140F2264001F06DFE18B14FF0FF307D
:1044F00006B010BD04AA032140F22A4001F062FE7A
:1045000010B14FF0FF30F3E7019805900098049048
:1045100004F0040058B19DF8140040F001008DF83B
:1045200014009DF8100040F001008DF8100004F018
:10453000200058B19DF8150040F001008DF81500DD
:104540009DF8110040F001008DF8110004F4807016
:1045500058B19DF8160040F001008DF816009DF846
:10456000120040F001008DF8120005AA03214FF45B
:10457000886001F027FE10B14FF0FF30B8E704AAC1
:10458000032140F2314001F01DFE10B14FF0FF3029
:10459000AEE7064804810020AAE700004CCD6C007D
:1045A0000CC92C00365676002646660064020020B0
:1045B000F8B505460E464FF47A7095FBF0F000FB17
:1045C00006F4200E8DF80000200C8DF80100200A62
:1045D0008DF80200E0B28DF803006A4604214FF422
:1045E000AE7001F0EFFDF8BD38B50446052094FB30
:1045F000F0F084B220128DF80000E0B28DF80100D6
:104600006A4602214FF4AD7001F0DCFD38BD38B5CB
:104610000446052094FBF0F084B220128DF80000CF
:10462000E0B28DF801006A4602214FF4AC7001F04F
:10463000C9FD38BD38B504460020009004F00100E3
:1046400020B19DF8000040F03000009004F002001E
:1046500020B19DF8000040F00C00009004F0040030
:1046600020B19DF8000040F0030000906A4601214F
:104670004FF4A47001F0A6FD38BD38B50446012CF6
:1046800001DA012402E0042C00DD0424601EC0B223
:1046900000906A46012140F24F1001F093FD38BDB1
:1046A0002DE9FC4706460F4606F0070010B1B7F5A6
:1046B000C86F03DD4FF0FF30BDE8FC87384602F0DD
:1046C00081FE8146594902F033FD8046684600F07C
:1046D00027FE9DF80000022806D0042816D00828DE
:1046E00026D0102848D135E04FF08D41404602F0E9
:1046F000B1FE814602F02EFE84B24D49404602F0E2
:10470000A9FE814602F026FE85B238E04FF08C41CA
:10471000404602F09FFE814602F01CFE84B24549ED
:10472000404602F097FE814602F014FE85B226E074
:104730004FF08B41404602F08DFE814602F00AFEAA
:1047400084B23D49404602F085FE814602F002FEF9
:1047500085B214E04FF08A41404602F07BFE81466C
:1047600002F0F8FD84B23549404602F073FE8146FE
:1047700002F0F0FD85B202E04FF0FF309CE700BF91
:1047800020128DF80400E0B28DF8050028128DF893
:104790000600E8B28DF8070006F00100A0B101AAFA
:1047A00002214FF4EA7001F00DFD10B14FF0FF301F
:1047B00082E70DF1060202214FF4927001F002FD32
:1047C00010B14FF0FF3077E706F00200A0B101AA68
:1047D00002214FF4EC7001F0F5FC10B14FF0FF3006
:1047E0006AE70DF1060202214FF4947001F0EAFC31
:1047F00010B14FF0FF305FE706F00400A0B101AA4E
:1048000002214FF4EE7001F0DDFC10B14FF0FF30EB
:1048100052E70DF1060202214FF4967001F0D2FC2E
:1048200010B14FF0FF3047E7002045E70000484354
:10483000000040460000C045000040450000C04464
:1048400038B50446052094FBF0F085B228128DF8A7
:104850000000E8B28DF801006A4602214FF4EF70C3
:1048600001F0B0FC38BD38B50446052094FBF0F0EB
:1048700085B228128DF80000E8B28DF801006A4672
:1048800002214FF4ED7001F09DFC38BD00BF054AD8
:10489000128802F04002002AF9D0C2B2014B1B1D5F
:1048A0001A807047003801407CB5054628494968A0
:1048B000087801AB04220D21FCF7F6FC08B10720B3
:1048C0007CBD9DF80700C0F301109DF8041001F0B5
:1048D000E00140EAE1008DF800009DF80700C0F318
:1048E00081009DF8051001F0E00140EAE1008DF83B
:1048F00001009DF8070000F003009DF8061001F08C
:10490000E00140EAE1008DF8020000241CE01DF8FF
:10491000040018B9002045F8240013E00D4845F8BC
:10492000240006E055F824000B4902F093FD45F8F9
:1049300024001DF80400401EC0B20DF80400002839
:10494000F0D100BF601CC4B2032CE0DB0020B7E74D
:10495000800000207B14AE3E1D5A843F2DE9F04FAD
:1049600087B005460C46914601208DF810000020C6
:104970008DF81100FE4A1268917CFD4A5268107849
:1049800004AB0222FCF736FD20B14FF0FF3007B038
:10499000BDE8F08FC820FFF753F900208DF8100014
:1049A000F34A1268D17BF24A5268107804AB0122B4
:1049B000FCF720FD10B14FF0FF30E8E7EC4A126839
:1049C0005179EB4A5268107804AB0122FCF712FDD2
:1049D00010B14FF0FF30DAE7E54A1268917CE44A03
:1049E0005268107804AB0122FCF704FD10B14FF0BF
:1049F000FF30CCE7DE4A1268D17DDD4A526810787C
:104A000004AB0122FCF7F6FC10B14FF0FF30BEE71B
:104A1000D74A12681179D64A5268107804AB01223D
:104A2000FCF7E8FC10B14FF0FF30B0E70C208DF838
:104A30001000CF4A12681179CD4A5268107804AB41
:104A40000122FCF7D7FC10B14FF0FF309FE70F2099
:104A5000FFF7F6F8C648806A407A8DF81000C44A1D
:104A600012689178C24A5268107804AB0122FCF7B0
:104A7000C1FC10B14FF0FF3089E7BD48806A007A71
:104A80008DF81000BA4A12685178B94A5268107805
:104A900004AB0122FCF7AEFC10B14FF0FF3076E71B
:104AA000B9F1000F07D0B248806A807A40F0E00088
:104AB0008DF8100004E0AE48806A807A8DF810000E
:104AC000AB4A12689179AA4A5268107804AB012265
:104AD000FCF790FC10B14FF0FF3058E7B9F1000F30
:104AE00007D0A348806AC07A40F0E0008DF810003B
:104AF00003E0A048C07A8DF810009D4A1268D17971
:104B00009B4A5268107804AB0122FCF773FC10B189
:104B10004FF0FF303BE7B9F1000F02D0C820FFF79C
:104B20008FF840208DF81000914A12681179904A50
:104B30005268107804AB0122FCF75CFC10B14FF016
:104B4000FF3024E778208DF81000894A12685179E7
:104B5000874A5268107804AB0122FCF74BFC10B175
:104B60004FF0FF3013E783498889FFF769F8002089
:104B70008DF810007E4A126851797D4A526810788B
:104B800004AB0122FCF736FC10B14FF0FF30FEE61B
:104B9000774A1268917A764A5268107804AB0222FA
:104BA000FCF782FB10B14FF0FF30F0E69DF81100EA
:104BB0009DF8101040EA012B0C209BFBF0F0C6B2D0
:104BC0000020A86068602860A06060602060824665
:104BD00065E0674A1268D17A654A5268107804AB7A
:104BE0000C22FCF761FB10B14FF0FF30CFE69DF8CF
:104BF00011009DF8101040EA012000B2ADF8080045
:104C00009DF813009DF8121040EA012000B2ADF8A3
:104C10000A009DF815009DF8141040EA012000B22A
:104C2000ADF80C00BDF90810206808442060BDF9FB
:104C30000A10606808446060BDF90C10A068084460
:104C4000A0609DF817009DF8161040EA012000B200
:104C5000ADF800009DF819009DF8181040EA0120F9
:104C600000B2ADF802009DF81B009DF81A1040EA52
:104C7000012000B2ADF80400BDF900102868084416
:104C80002860BDF90210686808446860BDF9041026
:104C9000A8680844A8600AF1010000F0FF0AB245C4
:104CA00097DB3448D0F800C02868C117090441EAEE
:104CB00010410704624600233846FBF7ACFA32463F
:104CC0000023CDE90201FBF7A6FA28602948D0F8B5
:104CD00000C06868C117090441EA10410704624630
:104CE00000233846FBF797FA32460023CDE902014C
:104CF000FBF791FA68601F48D0F800C0A868C11798
:104D0000090441EA10410704624600233846FBF7D4
:104D100082FA32460023CDE90201FBF77CFAA86053
:104D20001448D0F804C02168C817000440EA1148AC
:104D30000F046246002338464146FBF76CFA3246C0
:104D40000023CDE90201FBF766FA20600948D0F89C
:104D500004C06068C117090441EA104107046246B3
:104D600000233846FBF757FA3246002304E00000E0
:104D700080000020587E0008CDE90201FBF74BFAC5
:104D800060601148D0F804C0A068C117090441EA66
:104D900010410704624600233846FBF73CFA3246CE
:104DA0000023CDE90201FBF736FAA060A0680028D5
:104DB00004DDA068A0F58030A06003E0A06800F5E5
:104DC0008030A0600020E2E5587E00082DE9FC5FFD
:104DD00006460F4600253D494968087801AB032285
:104DE0000D21FCF761FA10B10720BDE8FC9F9DF88A
:104DF000040000F01F008DF804009DF8050000F08D
:104E00001F008DF805009DF8060000F01F008DF8CA
:104E10000600002456E056F8240057F82410A0EBB2
:104E2000010BBBF1000F01DB594601E0CBF10001A2
:104E3000084602F0AFFA4FF08F41009002F078F987
:104E4000814601A8005D68B32149086802F0BAFAFA
:104E5000834659461F4802F06BF9804604E01E491C
:104E6000404602F0F7FA804601A8005D401EC0B23D
:104E700001A908550028F2D14146484602F058F9E8
:104E800083464FF07E5102F0EDFB82462AF0004B44
:104E90000F488169584602F0A9FB12D20120A040B8
:104EA00005430EE00A480169484602F09FFA05D31F
:104EB00007484169484602F099FB02D20120A04010
:104EC0000543641C032CA6DB28468EE780000020E7
:104ED000587E000800B04C4554E3853F10B50446A9
:104EE000204600F00FF80346E01C00F00BF843EA00
:104EF000C00083B2A01D00F005F843EA801083B221
:104F0000184610BD014691F90020002A01DD00205D
:104F10001EE091F90020002A01DA042018E091F93E
:104F20000120002A01DD012012E091F90120002A70
:104F300001DA05200CE091F90220002A01DD0220AF
:104F400006E091F90220002A01DA062000E007209D
:104F500070470000FCF744FEFEF750FE4FF4E130CE
:104F600001F0E8FAFDF75EF8FCF76EFFFDF72EFAA8
:104F7000422201210846FCF7D9FFFBF797FFFEF715
:104F8000FDF84FF4FA70FEF75BFEFCF733F9FCF71F
:104F900061FA00F075F919E0FBF740FF0C49087061
:104FA0000C480068FBF7E8FE0B49086005230B4836
:104FB000012102680220FCF7F3FF0548007803286E
:104FC00004D107480749086001F0E2F9E4E700006E
:104FD00010000020080000200C00002064000020C9
:104FE00000001643700000207047000070B50446B2
:104FF000002624F00104184890F8240008B100208D
:1050000070BD1548807A10B94FF0FF30F8E71248AC
:10501000057C807A2040104908740846007CA04234
:1050200002D04FF0FF3600E0002614B90A48007D98
:1050300018B1012001F050F902E0002001F04CF914
:105040003CB100F0ABFC20B1034805744FF0FF30D9
:10505000D6E73046D4E70000800000202DE9F04F6D
:1050600099B004460D4616464FF07E574FF00008A3
:105070004FF000094FF0000A12A813A918AB0EAAAE
:10508000CDE9001014A916A8FEF7A8FF18B1012059
:1050900019B0BDE8F08FBDF84C0000F48070002816
:1050A0007ED00E9802F076F983464FF09D4102F0D3
:1050B0003FF807460F9802F06DF983464FF09D4187
:1050C00002F036F88046109802F064F983464FF0FB
:1050D0009D4102F02DF88146119802F05BF983465C
:1050E0004FF09D4102F024F8824639464FF080404F
:1050F00002F0B0F94946059002F0ACF9414607903C
:105100004FF0404002F0A6F95146059002F0A2F996
:105110000690079901F09EFF834601F06FFFCDE9ED
:105120000801FEF731FA4FF06632544BCDE90A011F
:1051300001F08AFCCDE90C0101F04CFA20604946EF
:105140004FF0804002F086F94946029002F082F961
:10515000414604904FF0404002F07CF941460290F5
:1051600002F078F90390049902F07CFA83464FF03C
:105170007E5101F06FFF059001F040FFCDE908017D
:1051800039464FF0804002F065F94146039002F045
:1051900061F9494604904FF0804002F05BF900E06D
:1051A00068E05146039002F055F98346049901F0F6
:1051B00051FF059001F022FFCDE90601DDE908234A
:1051C000FEF72AFC4FF066322C4BCDE90A0101F0C4
:1051D0003BFCCDE90C0101F0FDF928605146504639
:1051E00002F038F949460490484602F033F9414646
:1051F0000390404602F02EF939460190384602F0FD
:1052000029F90090019901F025FF0290039902F01D
:1052100029FA8346049902F025FA059001F0EEFE82
:10522000CDE908015146384602F014F94946049088
:10523000404602F00FF90390049901F00BFF4FF084
:105240008041059002F006F9834601F0D7FECDE9D2
:105250000601DDE90823FEF7DFFB4FF06632074B5E
:10526000CDE90A0101F0F0FBCDE90C0101F0B2F942
:10527000306001E002200BE7002009E766A64C4001
:1052800070B50024FBF78EFE00F024F9002840D111
:10529000782000F02FFFC4B20CB1012070BD78203F
:1052A000FFF7A4FEC4B20CB10220F7E7642000F0BF
:1052B000D3FEC4B20CB10320F0E7FEF783FEC4B204
:1052C0000CB10420EAE71548FFF708FE0546FFF792
:1052D000D3F8C4B20CB10520E0E740F27310FEF73A
:1052E00019FDC4B20CB10620D8E76420FEF7F4FF24
:1052F000C4B20CB10720D1E700F0A4FF04460CB102
:105300000820CBE7012000F0A3FDC4B21CB10920A6
:10531000C4E70A20C2E70020C0E70000AC0000207C
:1053200001461148407A30B1012807D0022808D040
:1053300003280CD108E0022008700BE0042008705C
:1053400008E00820087005E01020087002E04FF027
:10535000FF30704700BF0448C07C18B10878400691
:10536000000E08700020F4E780000020014613487A
:10537000407A30B1012808D002280AD0032810D181
:105380000BE04FF4804008800EE041F69C700880EE
:105390000AE04FF48050088006E04FF40060088077
:1053A00002E04FF0FF30704700BF0448C07C10B1EE
:1053B0000888401008800020F5E7000080000020E9
:1053C00001460248007C08700020704780000020E1
:1053D00001460F48007A30B1012807D0022809D0D1
:1053E00003280FD10AE0FA2008800EE04FF4FA708B
:1053F00008800AE04FF47A70088006E04FF4FA6003
:10540000088002E00020088000BF00BF0020704735
:105410008000002001460E48007A30B1012807D0F4
:10542000022808D003280CD108E00A4808600BE0E5
:105430000948086008E00948086005E00848086075
:1054400002E04FF0FF30704700BF0020FBE7000094
:1054500080000020000003430000834233330342F6
:105460003333834101461248C07A082817D2DFE857
:1054700000F01704070A0D101318BC20088013E071
:105480006220088010E02A2008800DE014200880A7
:105490000AE00A20088007E00520088004E000BF39
:1054A00000BF0020088000BF00BF00207047000040
:1054B000800000200146064890F8240010B14FF00B
:1054C000FF3070470248C08908800020F9E70000DB
:1054D000800000201CB580208DF80000654A12680D
:1054E000917C644A526810786B460122FBF782FF78
:1054F00010B14FF0FF301CBD6420FEF7A1FB00206F
:105500008DF800005B4A1268917C5A4A5268107804
:105510006B460122FBF76EFF10B14FF0FF30EAE758
:10552000544A1268917D534A526810786B4606229D
:10553000FBF7BAFE10B14FF0FF30DCE79DF8050035
:10554000C007400F9DF8031001F0010140EA41003F
:105550009DF8011001F0010140EA010494B1012C11
:1055600003D101214348C17431E0022C03D1002151
:105570004048C1742BE021463FA0FAF771FE4FF07E
:10558000FF30B8E73B4A1268D1783A4A526810783F
:105590006B460122FBF788FE10B14FF0FF30AAE7FF
:1055A0009DF8000000F00F042CB93D48FAF758FEB2
:1055B0004FF0FF309FE7042C06D13AA0FAF750FED7
:1055C00001212C48C17402E000212A48C174FF2146
:1055D00028488172FF2027490872FF21254841721F
:1055E000C1724FF6FF71C181FF21017481740121E5
:1055F000017380F82210002180F823104175017595
:105600001630016041608160163880F8241080F8FF
:105610002510C1844FF4FA6000F062FC10B14FF025
:10562000FF3068E7022000F02BFB10B14FF0FF3095
:1056300061E72A2000F0CEFC10B14FF0FF305AE7AE
:10564000322000F009FD10B14FF0FF3053E7002089
:10565000FFF7CCFC10B14FF0FF304CE7002000F01A
:1056600051FB10B14FF0FF3045E7002000F042FD44
:10567000002040E780000020556E737570706F72D7
:1056800074656420736F6674776172652070726FE1
:1056900064756374207265762025642E0A0000000C
:1056A000788B000848616C662073656E7369746955
:1056B00076697479207061727420666F756E642EDD
:1056C0000A0000002DE9F04385B005460E469046DD
:1056D0009946294890F8250020B14FF0FF3005B0D9
:1056E000BDE8F08316B94FF0FF30F8E7002423E05F
:1056F000281B102801DD102000E0281B87B232197A
:105700003946204600F05EFD10B14FF0FF30E6E76D
:1057100001AA3946204600F001F910B14FF0FF30E0
:10572000DDE730193A4601A9FAF7A6FE10B16FF08D
:105730000100D4E7E01984B2AC42D9DB4FEA28205B
:105740008DF8000008F0FF008DF801000A4A126889
:10575000917E094A526810786B460222FBF74AFE96
:1057600010B14FF0FF30BAE70121034880F825104F
:10577000A0F826900020B2E78000002038B504464B
:10578000282C02DD4FF0FF3038BDDCB9002000F0DE
:10579000EBFB00208DF8000007208DF801002E4A59
:1057A0001268917C2C4A526810786B460222FBF7F3
:1057B00021FE10B14FF0FF30E6E7002126480175C9
:1057C0000020E1E7012000F0CFFB20208DF8000051
:1057D000012C06D100208DF80100052000F0FAFB15
:1057E00017E0052C06DC01208DF80100052000F0F3
:1057F000F1FB0EE0142C06DC02208DF801000A20DB
:1058000000F0E8FB05E003208DF80100142000F013
:10581000E1FB9DF80100072101EB8010C0B28DF87B
:1058200001000D4A1268917C0B4A526810786B4651
:105830000222FBF7DFFD10B14FF0FF30A4E7082193
:105840000548817200210173012101750020FFF7D5
:10585000CDFB002098E7000080000020F8B504464A
:105860000F4616462C4890F8240010B94FF0FF3030
:10587000F8BD2948807A10B94FF0FF30F8E7264A82
:105880001268917A244A526810786B460222FBF71C
:105890000BFD10B14FF0FF30EAE79DF801009DF8D5
:1058A000001040EA0125A54203DA00203070401EB6
:1058B000DEE7194840684088B5EB600F17DD164AEF
:1058C0001268517C144A526810786B460122FBF72B
:1058D000EBFC10B14FF0FF30CAE79DF8000000F07C
:1058E000100020B100F05AF86FF00100C0E7E2B2FA
:1058F000094B1B68D97A084B5B6818783B46FBF765
:10590000D3FC10B14FF0FF30B2E795FBF4F0401E2E
:1059100030700020ACE7000080000020F8B504469D
:105920000D46164616B94FF0FF30F8BD1A48807A7A
:1059300010B94FF0FF30F8E720128DF80000E0B208
:105940008DF801009DF801002844134949684989F0
:10595000884202DD4FF0FF30E7E70F4A1268117E00
:105960000D4A526810786B460222FBF743FD10B1D6
:105970004FF0FF30D9E7EAB2074B1B68597D064B61
:105980005B6818783346FBF78FFC10B14FF0FF309F
:10599000CBE70020C9E700008000002008B5704870
:1059A000807A10B94FF0FF3008BD002000906C4A9B
:1059B0001268D17B6A4A526810786B460122FBF765
:1059C00019FD10B14FF0FF30EEE7654A12685179CA
:1059D000634A526810786B460122FBF70BFD10B149
:1059E0004FF0FF30E0E75E4A126811795C4A526876
:1059F00010786B460122FBF7FDFC10B14FF0FF3031
:105A0000D2E7574890F82400002853D00C2000908B
:105A1000534A12681179524A526810786B46012233
:105A2000FBF7E8FC10B14FF0FF30BDE73220FEF786
:105A300007F9C02000904A48807A00F0010020B1A8
:105A40009DF8000040F020000090454A126811794E
:105A5000434A526810786B460122FBF7CBFC10B129
:105A60004FF0FF30A0E73E48407C10B1022000908C
:105A700001E0002000903A4A1268D17B384A52680F
:105A800010786B460122FBF7B5FC10B14FF0FF30E8
:105A90008AE700200090324A12685179304A5268F1
:105AA00010786B460122FBF7A5FC002855D04FF07B
:105AB000FF3079E704200090294A12681179284ABA
:105AC000526810786B460122FBF794FC10B14FF03E
:105AD000FF3069E72248807C20B92148807A00F0B5
:105AE000010010B94020009001E0602000901C4AA5
:105AF000126811791A4A526810786B460122FBF736
:105B000079FC10B14FF0FF304EE73220FEF798F8E5
:105B10001348407C10B10120009001E0002000906B
:105B20000F4A1268D17B0E4A526810786B460122E8
:105B3000FBF760FC10B14FF0FF3035E7084A126800
:105B40005179074A52681078054B10330122FBF750
:105B500051FC10B14FF0FF3026E7002024E7000091
:105B6000800000202DE9F04F8DB083460F460220C3
:105B70000C90424890F8240020B1002000F068F911
:105B8000012600E0002603A8FFF722FC05A8FFF786
:105B9000C7FB01A8FFF766FC02A8FFF78BFC37489C
:105BA00090F80AA004A8FFF70BFC002407E00022ED
:105BB00039465846FEF7D2FE00B902E0641C022CBA
:105BC000F5DB00BF022C01D1002528E0002407E00E
:105BD000012206A909A8FEF7C1FE00B902E0641C73
:105BE000022CF5DB00BF022C01D1002517E006A92D
:105BF0003846FDF775FC00F0FF0809A95846FFF785
:105C0000E5F800F0FF090025B9F1000F01D145F0DA
:105C10000105B8F1000F01D145F0020500BFFF20DA
:105C200016490872FF2115484172C1724FF6FF7183
:105C3000C181FF218172017401210173BDF80C0043
:105C400000F04EF99DF8140000F01AF8BDF80400B9
:105C500000F0C0F9BDF8080000F0FEF9504600F071
:105C600049FA9DF81000FFF7C1F916B1012000F0C4
:105C7000EFF828460DB0BDE8F08F0000800000204E
:105C800038B504461E48807A10B94FF0FF3038BD51
:105C9000022C06D0042C07D0082C08D0102C0CD1D4
:105CA00008E0002000900BE00820009008E01020A1
:105CB000009005E01820009002E04FF0FF30E6E78A
:105CC00000BF0F48407A9DF80010B0EBE10F01D102
:105CD0000020DCE70A4A1268D179094A5268107834
:105CE0006B460122FBF786FB10B14FF0FF30CEE789
:105CF0009DF80000C110024841720020C7E7000073
:105D00008000002038B504465048807CA04201D174
:105D1000002038BD002C46D04C4A126811794B4AFD
:105D2000526810786B460122FBF7BEFA10B14FF0B3
:105D3000FF30EEE79DF8000020F020000090434A7D
:105D400012681179414A526810786B460122FBF7BC
:105D500051FB10B14FF0FF30DBE70320FDF770FF80
:105D600002200090394890F8220020B19DF80000F0
:105D700040F080000090354890F8230020B19DF855
:105D8000000040F030000090304A1268117D2F4A28
:105D9000526810786B460122FBF72CFB002851D08B
:105DA0004FF0FF30B5E7294A12681179274A526847
:105DB00010786B460122FBF777FA10B14FF0FF30F5
:105DC000A7E72248807A00F0010028B19DF8000082
:105DD00040F02000009004E09DF8000020F020003A
:105DE00000901A4A12681179184A526810786B4666
:105DF0000122FBF7FFFA10B14FF0FF3089E70320D3
:105E0000FDF71EFF114890F8220010B1802000908D
:105E100001E0002000900D4890F8230020B19DF88B
:105E2000000040F030000090084A1268117D074AD7
:105E3000526810786B460122FBF7DCFA10B14FF084
:105E4000FF3066E701488474002062E7800000208C
:105E500038B50446214890F82400A04201D1002022
:105E600038BD24B31D4890F8250010B94FF0FF301D
:105E7000F6E7002000F030FA0020FFF743FF174953
:105E8000C88C00F0E9F800200090144949680878AF
:105E90006B4601222321FBF7ADFA01210F4880F860
:105EA0002410012000F018FAFFF778FD13E000201D
:105EB00000F012FA0948007C009008494968087807
:105EC0006B4601222321FBF795FA0021034880F855
:105ED0002410FFF763FD0020C2E7000080000020CF
:105EE00038B504461F48807A10B94FF0FF3038BDEE
:105EF000FA2C09D0B4F5FA7F09D0B4F57A7F09D02D
:105F0000B4F5FA6F0CD108E0002000900BE00820F7
:105F1000009008E01020009005E01820009002E0BA
:105F20004FF0FF30E3E700BF0E48007A9DF8001005
:105F3000B0EBE10F01D10020D9E70A4A126891794C
:105F4000084A526810786B460122FBF753FA10B1E9
:105F50004FF0FF30CBE79DF80000C01001490872F8
:105F60000020C4E78000002038B50446184890F8A7
:105F70002300A04201D1002038BD14B13020009090
:105F800001E0002000901248807C20B19DF80000C4
:105F900040F0020000900E4890F8220020B19DF8D9
:105FA000000040F080000090094A1268117D084A04
:105FB000526810786B460122FBF71CFA10B14FF0C3
:105FC000FF30D9E7024880F823400020D4E70000E2
:105FD0008000002038B504461E48807A10B94FF082
:105FE000FF3038BDBC2C02DB0120009015E0622C94
:105FF00002DB0220009010E02A2C02DB032000903C
:106000000BE0142C02DB0420009006E00A2C02DBDB
:106010000520009001E0062000900E48C07A9DF80F
:106020000010884201D10020DBE70A4A126891780B
:10603000084A526810786B460122FBF7DBF910B171
:106040004FF0FF30CDE79DF800100248C1720020EC
:10605000C7E700008000002038B504462448807A55
:1060600010B94FF0FF3038BD214890F8240010B12E
:106070004FF0FF30F7E71E48007D50B134B1282CB7
:1060800004DCE0B2FFF77AFB0020ECE70020FFF72A
:1060900075FB042C01DA042404E0B4F57A7F01DDF9
:1060A0004FF47A744FF47A7090FBF4F0401EC0B253
:1060B00000900F4A126851780D4A526810786B466A
:1060C0000122FBF797F910B14FF0FF30CBE79DF8B5
:1060D0000000401C4FF47A7191FBF0F081B204484B
:1060E000C1810146C9894810FFF774FF0020BAE753
:1060F0008000002038B5044604F0700010B1012083
:10610000009005E014B10020009001E040200090D4
:106110002B4A1268917C2A4A526810786B460122F9
:10612000FBF768F920B1002125488172481E38BD6F
:106130009DF8000020F040012148017300200090EC
:1061400004F0400020B99DF8000040F004000090E9
:1061500004F0200020B99DF8000040F002000090FB
:1061600004F0100020B99DF8000040F001000090FC
:1061700004F0080020B99DF8000040F038000090BD
:106180000F4A1268D17C0E4A526810786B46012281
:10619000FBF730F920B1002109488172481EC6E79B
:1061A00024B1082C02D00020FFF7DEFE04488472E0
:1061B000002101753220FDF743FD0020B7E7000004
:1061C00080000020F8B504460D46164616B94FF07B
:1061D000FF30F8BD1A48807A10B94FF0FF30F8E769
:1061E00020128DF80000E0B28DF801009DF801004A
:1061F0002844134949684989884202DD4FF0FF303D
:10620000E7E70F4A1268117E0D4A526810786B4614
:106210000222FBF7EFF810B14FF0FF30D9E7EAB2F6
:10622000074B1B68597D064B5B6818783346FBF7B4
:10623000E1F810B14FF0FF30CBE70020C9E70000D4
:106240008000002070B588B002A905A8FFF78AFC7D
:106250000446032C3ED101A8FFF7DCF8059801F0B5
:1062600099F80646019901F0F5F8054601F056F84F
:106270000590069801F08EF80646019901F0EAF8BB
:10628000054601F04BF80690079801F083F80646A2
:10629000019901F0DFF8054601F040F8079005A8E4
:1062A000FEF752F86846FFF761F8BDF80010029853
:1062B00048430290BDF80010039848430390BDF88E
:1062C000001004984843049002A8FDF76DFF0020D9
:1062D00008B070BD0120FBE738B50446214890F8AE
:1062E0002400C0B114B10220009001E00020009011
:1062F0001C4A1268D17B1B4A526810786B460122F7
:10630000FBF778F810B14FF0FF3038BD9DF8001062
:106310001448417423E01348807A10B94FF0FF30DD
:10632000F3E724B10F48407C08B10020EDE714B139
:106330000120009001E0002000900A4A1268D17B01
:10634000084A526810786B460122FBF753F810B1E7
:106350004FF0FF30D9E79DF800100248417400204B
:10636000D3E700008000002010B500200649087027
:10637000002211460548FCF715FD00220C210348B8
:10638000FCF710FD10BD0000C4000020002C0140EF
:1063900010B5012006490870012200210548FCF7CC
:1063A00001FD01220C210348FCF7FCFC10BD00009C
:1063B000C4000020002C01402DE9F05F4FF0000ADE
:1063C0000F49B1F9000000F0E5FF834600F016FE2A
:1063D000804600220B4B00F037FB064600220A4B9A
:1063E00000F0DAF9044600F0F5F8084908600846BC
:1063F0000168074800F03CF882465046BDE8F09F2F
:10640000F4020020004CED400044D140B8000020D0
:10641000740200202DE9F05F4FF0000A0F49B1F936
:10642000020000F0B7FF834600F0E8FD804600223E
:106430000B4B00F009FB064600220A4B00F0ACF9BA
:10644000044600F0C7F80849086008460168074894
:1064500000F00EF882465046BDE8F09FF40200209E
:10646000004CED400044D140BC00002094020020CC
:106470002DE9F04704460D462946206801F0F2F860
:10648000A0604FF07C51A06800F0B0FF07D24FF041
:106490003F41A06801F0AAF801D20020A060A168E5
:1064A000E06900F0D7FDE061D4E9020101F0DAF81B
:1064B0008046A16900F0CEFF0646E169606900F000
:1064C000C9FF8046A168206900F0C4FF81464146AB
:1064D00000F0C0FD0746314600F0BCFD6060A068DA
:1064E000E0606068BDE8F0872DE9F04106460F46A0
:1064F00000F0B4FB041E0D4618BF0120284320F015
:106500000040C0F17F6000F1E040C00F0ED0301CB1
:1065100018BF0120384320F00040C0F17F6000F137
:10652000E040C00F04BF0120FAF75AF82046294680
:10653000BDE8F08110B586B00446012144F20400A4
:10654000FBF7A2FF4FF40070ADF8140003208DF8A4
:10655000160018208DF8170005A91C48FAF726FB2D
:106560004FF48060ADF8140004208DF8170005A9E1
:106570001648FAF71BFB25208DF8000003208DF844
:1065800001008DF8020001208DF803006846FBF73A
:1065900093FB01940020ADF80800ADF80A00ADF8B7
:1065A0000C00ADF810000C20ADF80E0001A9084851
:1065B000FCF79CFE012240F225510548FCF770FED5
:1065C00001210348FCF736FE06B010BD000801406B
:1065D0000038014021F00042A2F16052B2F5801F64
:1065E00001F0004328BFD2F17F6C0BD95FEA001C99
:1065F00043EAC20242EB507018BF704728BF20F038
:1066000001007047B2F5801FBCBF184670474FEAC3
:10661000410C1CF5001F02D2084600F0E2BF70B525
:1066200000F0BCFA00000089FFF7F6BF4FF0004011
:10663000A0F580007047000010B591EA030F48BF35
:1066400083F0004300F1F883841A71EB030C05D248
:10665000121943EB0C03001B61EB0C01DFF824E182
:106660004FEA1154A4EB135C1EEA430F18BF9EEAD5
:10667000445F73D023EA0E03DCF1200E21EA0451BB
:1066800043F4801332D322FA0CFE10EB0E0023FAEF
:106690000CFE41EB0E01CCF1200E03FA0EFE10EBC6
:1066A0000E0051F10001B1F5801FCCF1200E32D265
:1066B00001EB045112FA0EF2BDE8104058BF7047CA
:1066C000401C38BF5FEA420218BF7047002814BF61
:1066D00020F0010041F100014FEA410313F5001FD2
:1066E00038BF7047A1F1C04100F0A6BA012A43EBC0
:1066F0000302ACF1200CDCF11F0E32BF4FF0000E94
:1067000023FA0CF310EB030041EB0451B4EB115FDF
:10671000D0D0A1EB045101F5801149085FEA3000A7
:1067200001EB04510ED350F1000038BF12FA0EFEF7
:1067300008D1BDE81040C9E7401C38BF5FEA4202FB
:10674000CAD1C3E7BDE810404FEA410313F5001F6B
:1067500038BF7047A1F1C04100F06EBA9EEA445FB5
:1067600008D011EA5E0FBDE8104004BF01F00041FF
:1067700000207047BDE8104070B500F00FFA00BF70
:1067800064FBBE3E0000E0FF02494FF0000000F055
:10679000DEBF00BF0000F87F2DE9C04130B4DFF854
:1067A000A0C23CEA111418BF3CEA131400F0EC80BC
:1067B00081EA03051CEA111444EAD57418BF1CEAE7
:1067C000131500F0C780A4EB05044FF0004545EA1F
:1067D000C12145EAC32341EA505143EA525304F12F
:1067E0007F74994204F500344FEAC0204FEAC22278
:1067F00008BF904200F09C804FEA13650FF24016EC
:10680000765D4FEA134506FB05F7C7F1807706FB77
:1068100007F74FEAD737A7FB03687642C8F58038F9
:10682000A7FB06CE38BFA8F1010807FB08E64FF02A
:10683000000EA6FB028CE6FB03CEDCF1000CCEF1D1
:10684000004E38BFAEF1010EA6FB0C584FF000070A
:106850004FF00005E6FB0E87A1FB08C6A0FB07CEA4
:1068600016EB0E0645F10005E1FB076515F1E04E5C
:106870007EBFA4F580345FEA46066D4116F18007BD
:1068800045F100054FEA17274FEA066647EA056714
:10689000A6F1DE46B6F1805F4FEA15251FD93846CE
:1068A00024F0010C05EBC471BCF1FE6F01EB0C117F
:1068B00002D8F0BCBDE8008124425CBF01F5801E17
:1068C0009EEAC47F02D4F0BCBDE80081244238D4E3
:1068D000F0BCA1F1C041BDE8004100F0ADB94FEA04
:1068E000D22242EA43524FEAD323A7FB02864FEA61
:1068F000D02040EA415007FB03661EEA0E0F4FEA24
:10690000D12105FB026658BFA6EB0056B6EB005638
:106910004FEA520E4EEAC37E18EB0E0E56EB530EA4
:10692000BDD518EB02085E417F1C55F10005B6E7A6
:106930004FF480154FF000074FF000064FF00008AD
:10694000ADE7F0BC4FF0000001F1C04101F00041A3
:10695000BDE8008111EA0C1F0CEA131500D00CE011
:1069600013EA0C1F00F025804FF00000F0BC81EA14
:10697000030101F00041BDE80081F0BCBDE8004129
:1069800081EA030100F058B9F0BCBDE8004170B5E0
:1069900000F004F9097EFC3E00F007B881EA03012B
:1069A0004FF0000001F00041704781EA030100F060
:1069B00043B9F0BCBDE800414FF0000021497047E9
:1069C000FFFDFBF9F7F5F4F2F0EEEDEBE9E8E6E4B4
:1069D000E3E1E0DEDDDBDAD8D7D5D4D3D1D0CFCD3B
:1069E000CCCBCAC8C7C6C5C4C2C1C0BFBEBDBCBB74
:1069F000BAB9B8B7B6B5B4B3B2B1B0AFAEADACAB6F
:106A0000AAA9A8A8A7A6A5A4A3A3A2A1A09F9F9E48
:106A10009D9C9C9B9A9999989797969595949393FA
:106A2000929191908F8F8E8E8D8C8C8B8B8A898991
:106A30008888878786858584848383828281818014
:106A40000000FF070000F87FDFF848C170B51CEABE
:106A5000111E1EBF1CEA13159EEA0C0F95EA0C0FBF
:106A600000F06F8081EA030423EA4C134EEAD47EDF
:106A700021EA4C1141F4801143F48013AE44A1FB90
:106A8000024CA0FB0365AEF17F7E361955EB0C0579
:106A9000A1FB034C4CF10003A0FB021C16EB0C06FF
:106AA000654153F10003094218BF46F0010613F493
:106AB000007F0BD14FEA03314FEA0530340341EA3E
:106AC000155140EA16506FF003020AE04FEAC32165
:106AD0004FEAC520F40241EA555140EA56506FF0A2
:106AE000020202EB2E4201EB025585EACE710AD07A
:106AF0005FEA440C18BF24F0004450F1000041F15B
:106B0000000120EAD47040F2FE7C624500D270BDE4
:106B1000A84214BF4FF080444FF04044002E08BFFD
:106B20000024BEF1806FA8BFA1F1C041BDE8704054
:106B300080F282804FF0000001F1C04101F000417D
:106B400070479EEA0C0F0CEA131518BF95EA0C0F5C
:106B500006D04FF0000081EA030E0EF0004170BD38
:106B600000F01CF88900013E00F007B800F009B8F9
:106B70004FEA430C5FEA5C5C08D081EA030100F055
:106B80005BB84FEA410C5FEA5C5CF6D14FF0000065
:106B9000014970470000FF070000F87F0EF1020E68
:106BA0002EF0030E5EF8046B364205D4012A43EB47
:106BB000030515F5001F12D8012841EB010C1CF547
:106BC000001F0CD80ED14FEAD17C15F5001F0CEB3D
:106BD0004C0C0CF1020C08BF4CEBD37C04E04FF0E2
:106BE000080C01E04FEAD37C0CEB4C0526FA05F6C5
:106BF00006F00706B6F1040C06D20EEB860CBDE8D3
:106C000070404CF0010C6047DFE80CF0090B020209
:106C10004FF000414FF00000A1F5002170BD194672
:106C20001046012851EB010418BFD4F5001484BFAD
:106C3000002001F0004170BD0808A0F500114FEAE6
:106C40003101704791EA030F10B581F000413FF523
:106C5000FBAC83F0004300F0EFB800002DE9F041F9
:106C600001F5801CBCF5001FC0F2C3804FEA115C27
:106C700021EA0C510CF1FD0C41F480115FEA5C0C2F
:106C80000CF5C07C01D3400049413DA4890241EA92
:106C9000905187028E0E0A0CA45D04FB04F602FBE1
:106CA00006F6C6F14046A4FB0662F60D46EA422609
:106CB00006FB06F4A4FB01235242C3F1404338BF54
:106CC0005B1EA6FB02420024E6FB0324D20B42EA31
:106CD0004446A6FB0623A1FB02E2A3FB07E4A4189B
:106CE0004FF0000252F10002E3FB01426442C2F1A4
:106CF000404E38BFAEF1010EA6FB04234FF0000258
:106D0000E6FB0E32A2FB03464FF00004B61954F125
:106D10000004E2FB0264A1FB06E6A4FB07E816EB15
:106D200008064FF0000858F10008E4FB01687642BD
:106D3000C8F1405838BFA8F10108A2FB06E4A3FB44
:106D400008E52D194FF0000454F10004E2FB08544B
:106D5000A1FB05E6A7FB04E818EB06084FF00006C8
:106D600056F10006E1FB048618F1200556F10006F5
:106D7000A809A8F11B08B10908F03F08B8F10A0FEB
:106D800040EA86601CD901EB0C51BDE8F08100BFE0
:106D9000FCF5EEE8E2DDD8D3CFCBC7C3C0BDB9B6B2
:106DA000B4B1AEACA9A7A5A3A19F9D9B9A989695B7
:106DB0009392908F8D8C8B8988878685848382813E
:106DC000A0FB006800FB01F208EB4208B8EB872843
:106DD00007D5341858EB0104D5D5401C51F10001FA
:106DE000D1E7341A78EB0104CDD4401E71F10001D3
:106DF000C9E75FEA4C0C5FEA9C5C0DD105D34FF00C
:106E0000000001F00041BDE8F081BDE8F04170B53F
:106E1000FFF7C4FE6DDBFFBEBDE8F0414FF00000A0
:106E2000004970470000F87F10B591EA030F48BF92
:106E300083F000433FF508AC841A71EB030C07D2D2
:106E400012198CF0004C43EB0C03001B61EB0C019E
:106E5000DFF8A4E14FEA1154A4EB135C1EEA430FE0
:106E600018BF9EEA445F00F0B08023EA6E035242EE
:106E700021EA0451C3EB6E0338BF5B1EDCF1200E28
:106E800025D322FA0CFE10EB0E0043FA0CFE41EB68
:106E90000E01CCF1200E03FA0EFE10EB0E0051F1A4
:106EA0000001CCF1200E29D412FA0EF201EB0451AC
:106EB000BDE8104058BF7047401C1CBFB2F1004FE6
:106EC000704700280CBF491C20F00100704712EBEE
:106ED000020E43EB030218BF4FF0010E4EEA4202CE
:106EE000ACF1200CDCF11E0E54D943FA0CFE10EB71
:106EF0000E0051F1FF31CCF11E0ED5D50EF1010E71
:106F000012FA0EFE404141EB010101EB445C5FEAE5
:106F10005C5C10D910EBDE7001EB045138BFBEF1A0
:106F2000004FBDE8104018BF704700280CBF491C37
:106F300020F00100704730D24FEAD42C11F5001137
:106F400024F400641BD0B1FA81F20B3AA41AA41EF7
:106F5000D2F12003914030FA03F31943904001EB42
:106F6000CC71002C01EB0451BDE81040A8BF704764
:106F700001F1C0414FF0000001F000417047B0FA4C
:106F800080F310FA03F100D110BDE41A173C480554
:106F9000C90AE4E701EB045110BD491001EB0451AB
:106FA000BDE810404FEA300002E04FF000017047AA
:106FB0004A0008BF0042F8D0B2F5001F28BF704752
:106FC00001F000414FF0000070479EEA445F07D097
:106FD00011EA5E0FBDE8104004BF00210020704799
:106FE000BDE8104070B5FFF7D9FD00BF40DFF63EA9
:106FF00083F00041104670470000E0FF43004FEA75
:10700000D30C4FEA3C0C43401FBF40070CF16051CA
:1070100013F0FE4F70471CF0006F03D100200CF0FE
:10702000004170470CF0004343EA507010B540EA4D
:10703000CC0000F090FA00BF000000924FEA00017F
:10704000FFF7FABD4FF000414FF00000A1F500211D
:107050007047000090EA010F48BF81F0004100F145
:107060000883421A3CBF801A89184FEAD0524FF069
:107070007F4C1CEA410FA2EBD15318BF9CEA026F70
:1070800000F03B804FF0004C4CEA00204CEA01211C
:1070900021FA03FC10EB0C0C1ED202F1FF325FEA66
:1070A0001C2040EBC25038BF70471CF07F0F4FEAE6
:1070B000400C18BFBCF17F4F38BF7047C3F12003AD
:1070C000994008BF20F00100BCF17F4F38BF7047E6
:1070D000A0F1C04000F085BA4FEA3C00000A40EB46
:1070E000C25028BF1CF0FF0F4FEA400CE6D018BF7B
:1070F000BCF17F4F38BF7047EAE79CEA026F05D0CA
:1071000010EA5C0F08BF00F00040704710B500F0B7
:1071100022FA00BF64FBBE3E401058BFC0F14040A1
:10712000491058BFC1F140418142EFF300807047E0
:107130004FF47F0C1CEAD0121EBF1CEAD11392EA56
:107140000C0F93EA0C0F00F0858090EA010F48BF06
:1071500042F4807240F4000C41F400002CF07F41B6
:1071600020F07F4000B58142A2EB03020FF2081C21
:10717000ACEB504EC0F100009EF800E04FEA4E0E1E
:1071800000FB0EFC38BF49004FEA2C1C02F5FA0246
:107190000CFB0EF34FEACE1E4FEA112C4FEAC12131
:1071A0000EEB635E42EB22420EFB0CFC4FEA1C53DB
:1071B00000FB03114FEA112C4FEA01310EFB0CFCCE
:1071C0004FEADC4C00FB0C11C14228BF09184CEB04
:1071D00003335DF804EB10EB410143EBC250B2F511
:1071E0007C0F38BF704729D512F0F00F1CBF00F19B
:1071F000C04000F00040704700818283848586870C
:1072000088898B8C8D8E8F919293959697999A9C65
:107210009D9FA0A2A3A5A7A8AAACAEB0B2B3B5B7D4
:10722000B9BCBEC0C2C5C7C9CCCED1D4D7D9DCDFAA
:10723000E2E6E9ECF0F3F7FAFE0000004FEA400C5A
:107240000CF1807CBCF17E4F28BF7047B0F1C0408C
:1072500000F0C7B990EA010F0CEAD11348BF42F41D
:107260008072624538BF634507D213F47F0F16D092
:1072700080EA010000F00040704710B500F06BF9A3
:10728000097EFC3E00F005B880EA010000F00040F5
:10729000704780EA010000F0004000F0A2B912F44B
:1072A0007F0F04BF0248704780EA010000F099B9DF
:1072B0000000C07F50EA010C00F113801CF5000FA4
:1072C00058BFBCF5000F01D48842704707D710F5AE
:1072D000000F58BF11F5000F15D48842704789423E
:1072E00070471CF5000F04D5BCF5000FF7D581429F
:1072F00070474FF0807C1CEB400F38BF1CEB410FF8
:1073000001D28142704710B500F025F9922449005E
:107310004FF000504FF08051FFF7FEBE41000B0EC2
:10732000D3F19E0208D950F400034FEA032323FA55
:1073300002F048BF4042704710B500F00CF900BFA2
:1073400049922480002070476FF0004282EA2000BA
:1073500070470000C10DD1F19E0206DB4FEA002309
:1073600043F0004323FA02F07047004207D54FEA8A
:107370004001B1F1FE4F02D24FF00000704710B54E
:1073800000F0E9F849922480002070476FEA20005D
:107390007047000010F0004148BF4042B0FA80F34F
:1073A00010FA03F2C3F19D030BD051EAC35101EB74
:1073B0001220530638BF704700F1010008BF20F0CB
:1073C00001007047B0FA80F310FA03F2C3F19D0395
:1073D0000AD0D90501EB1220530638BF704700F1DF
:1073E000010008BF20F001007047000050EA010CC6
:1073F00000F113801CF5000F58BFBCF5000F01D43D
:107400008842704707D710F5000F58BF11F5000FDD
:1074100015D488427047894270471CF5000F04D587
:10742000BCF5000FF7D5814270474FF0807C1CEB14
:10743000400F38BF1CEB410F01D28142704710B59D
:1074400000F089F8922449004FF000504FF080512D
:10745000FFF762BE4FF47F0C1CEAD0121EBF1CEA7D
:10746000D11392EA0C0F93EA0C0F00F0478090EAD8
:10747000010F48BF42F480724FF0004C4CEA0020EC
:107480004CEA012102EB0302A0FB0113A2F500026A
:10749000002918BF43F001035B0028BF4FEA330304
:1074A00042EB22425FEA132C4CEBC2502EBFBCEBE6
:1074B000436FB2F57C0F70474FEA036CBCF1004F8D
:1074C00008BF20F00100B2F57C0F38BF70470BD524
:1074D00082F0FF0212F5803FC8BF704700F1C04044
:1074E000D8BF00F00040704700F5000C5FEA4C0C7C
:1074F00048BF7047B0F1C04000F073B890EA010F88
:107500000CEAD11348BF42F48072624538BF63452C
:1075100004D280EA010000F00040704710B500F08E
:107520001AF800BF8900013E00F007B800F009B862
:107530005FEA410C5FEA1C6C08D080EA010000F0B1
:1075400050B85FEA400C5FEA1C6CF6D14FF0004087
:10755000A0F5800070470EF1020E2EF0030E5EF8CB
:10756000044B244204D44FEA4102B2F17F4F11D8B8
:107570004FEA4003B3F17F4F0CD80ED14FEAD07CD5
:10758000B2F17F4F0CEB4C0C0CF1020C08BF4CEB32
:10759000D17C04E04FF0080C01E04FEAD17C0CEB09
:1075A0004C0324FA03F404F00704B4F1040C06D2EB
:1075B0000EEB840CBDE810404CF0010C6047DFE896
:1075C0000CF0070802024FF00040A0F5800010BD4B
:1075D0000846420018BFD2F1807288BF00F0004018
:1075E00010BDFF2141EAD050C005704751EA000CA0
:1075F00000F113801CF5000F58BFBCF5000F01D43B
:107600008142704707D711F5000F58BF10F5000FE2
:1076100015D481427047894270471CF5000F04D58C
:10762000BCF5000FF7D5884270474FF0807C1CEB0B
:10763000410F38BF1CEB400F01D28842704780EAEF
:10764000010081EA000180EA0100FFF7F8BE80F046
:10765000004090EA010F7FF504AD81F0004100F099
:1076600008B8000090EA010F48BF81F000413FF5E3
:10767000F8AC421A04D882F00042A0EB0200114498
:107680004FEAD0524FF07F4C1CEA410FA2EBD1538E
:1076900018BF9CEA026F4AD04FF0004C4CEA002021
:1076A0004CEA012121FA03FCB0EB0C0C0FD412F0D0
:1076B000FE0F36D05FEA4C001DD5001240EBC250E1
:1076C00038BF70471CF03F0F18BF70470BE0A2F1A6
:1076D00001025FEA1C2040EBC25038BF70471CF02B
:1076E0007F0F18BF7047C3F12003994014BF401E9D
:1076F00020F00100704780084FEA122308BF70474E
:10770000B0FA80FCA2EB0C02CCF1280C60FA0CF071
:1077100093EA122F04BF00EBC25070474FEAC370C8
:107720007047130A5FEADC1008BF7047F6E79CEA6F
:10773000026F04D010EA5C0F08BF0020704710B53C
:10774000FFF709FF40DFF63E81F0004070470CF084
:107750000F03092B08BF082000F059800A2B0BD01B
:10776000082B18BF704708BF1CF0400F0AD04FF01D
:1077700000004FF0000170471CF0400F18BF4FF0A1
:10778000004070471CF0100F08D020F0704300F04C
:107790007F4242EAD3014FEA4370704700F06040F5
:1077A00021F07F4242EA000201F07F4040EA72701D
:1077B00070474FF0FF0C4CF4E06C1CEA11531CBFF7
:1077C0009CEA030C9445C2BFDA4201EB02517047B8
:1077D000002B0DD0BCF1000F0FD0002A01F00041AA
:1077E000A4BF41F0E04141F07F614FF000007047DD
:1077F00001F000414FF00000704750EA01334FF0B4
:107800009B0C18BF4CF0806C7EF4BEAF70471CF42C
:10781000801F11D01CF4E02F03D06FEACC31490057
:1078200070474FF04050EFF3008222F0704242EA7E
:10783000000282F3008870474FF00000704700009C
:107840000000000000000000000000000000000038
:1078500000F80000000000000033300000000010BD
:107860000C06100C0600000000000000000040C0E4
:107870007840C0784000043F04043F0404000070D6
:1078800088FC08300000001820FF211E0000F008CE
:10789000F000E018000000211C031E211E0000F073
:1078A0000888700000001E212324192721101016BB
:1078B0000E000000000000000000000000000000BA
:1078C00000E0180402000000000718204000000239
:1078D0000418E000000000402018070000004040AD
:1078E00080F0804040000202010F0102020000000F
:1078F00000F0000000000101011F01010100000073
:1079000000000000000080B07000000000000000D7
:107910000000000000000001010101010101000060
:1079200000000000000000303000000000000000F7
:10793000000080601804006018060100000000E0EC
:1079400010080810E000000F102020100F00001099
:1079500010F8000000000020203F202000000070F0
:1079600008080888700000302824222130000030E8
:107970000888884830000018202020110E000000E0
:10798000C02010F8000000070424243F240000F861
:107990000888880808000019212020110E0000E046
:1079A000108888180000000F112020110E000038E8
:1079B0000808C83808000000003F00000000007000
:1079C000880808887000001C222121221C0000E089
:1079D00010080810E0000000312222110F00000002
:1079E00000C0C000000000000030300000000000B7
:1079F0000080000000000000806000000000000027
:107A000080402010080000010204081020004040BF
:107A10004040404040000404040404040400000802
:107A200010204080000000201008040201000070B7
:107A300048080808F0000000003036010000C0309F
:107A4000C828E810E0000718272423140B000000C2
:107A5000C038E0000000203C23020227382008F84C
:107A6000888888700000203F202020110E00C03040
:107A7000080808083800071820202010080008F817
:107A800008080810E000203F202020100F0008F810
:107A90008888E8081000203F20202320180008F8DC
:107AA0008888E8081000203F200003000000C03054
:107AB00008080838000007182020221E020008F8D5
:107AC00008000008F808203F210101213F2000089C
:107AD00008F8080800000020203F202000000000D7
:107AE0000808F8080800C08080807F00000008F8BF
:107AF00088C028180800203F20012638200008F8F8
:107B0000080000000000203F20202020300008F85E
:107B1000F800F8F80800203F003F003F200008F878
:107B200030C00008F808203F200007183F00E01090
:107B300008080810E0000F10202020100F0008F89F
:107B400008080808F000203F210101010000E010B2
:107B500008080810E0000F18242438504F0008F8D7
:107B6000888888887000203F2000030C3020007037
:107B70008808080838000038202121221C00180835
:107B800008F8080818000000203F2000000008F84E
:107B900008000008F808001F202020201F00087897
:107BA000880000C83808000007380E010000F808F7
:107BB00000F80008F800033C0700073C0300081821
:107BC00068808068180820302C03032C3020083887
:107BD000C800C83808000000203F2000000010083E
:107BE0000808C83808002038262120201800000086
:107BF00000FE020202000000007F40404000000C36
:107C000030C000000000000000010638C000000283
:107C10000202FE000000004040407F000000000023
:107C20000402020204000000000000000000000046
:107C30000000000000008080808080808080000242
:107C4000020400000000000000000000000000002E
:107C50008080808000000019242222223F2008F822
:107C6000008080000000003F112020110E00000065
:107C7000008080800000000E1120202011000000F4
:107C800000808088F800000E112020103F200000A6
:107C9000808080800000001F2222222213000080AA
:107CA00080F0888888180020203F202000000000F5
:107CB000808080808000006B94949493600008F82A
:107CC000008080800000203F210000203F200080B5
:107CD0009898000000000020203F202000000000B5
:107CE00000809898000000C08080807F000008F825
:107CF000000080808000203F24022D3020000008FA
:107D000008F8000000000020203F202000008080B4
:107D1000808080808000203F20003F20003F8080C6
:107D2000008080800000203F210000203F200000D4
:107D3000808080800000001F202020201F00808085
:107D400000808000000080FFA12020110E000000B4
:107D5000008080808000000E112020A0FF808080A5
:107D600080008080800020203F2120000100000052
:107D70008080808080000033242424241900008027
:107D800080E0808000000000001F20200000808034
:107D9000000000808000001F202020103F208080F5
:107DA00080000080808000010E3008060100808085
:107DB0000080008080800F300C030C300F000080AA
:107DC0008000808080000020312E0E3120008080D5
:107DD00080000080808080818E7018060100008005
:107DE0008080808080000021302C22213000000023
:107DF0000000807C020200000000003F40400000C4
:107E00000000FF00000000000000FF000000000272
:107E1000027C800000000040403F0000000000069F
:107E20000101020204040000000000000000000044
:107E300075191A0C6A231B1C1F207274433B4138AE
:107E4000393A6B6C376F06246D6E70006800000461
:107E500076005401F7FD00018300000000080000D7
:107E60000001001832000500000020410000D2424D
:107E7000295C0F3E9A99993E3333733F295C0F3E3C
:107E80000000700000000024000000020003000059
:107E900000650054FFEF0000FA80000B1282000121
:107EA000030C30C30E8C8CE914D5400213710F8E75
:107EB0003883F8833000F883258EF8833000F88308
:107EC000FFFFFFFF0FFEA9D6240004001A8279A14C
:107ED0000000003CFFFF00000010000038836FA28C
:107EE000003E03304000000002CAE3093E8000006B
:107EF00020000000000000004000000060000000C2
:107F0000000C0000000C186E000006920A16C0DF7C
:107F1000FFFF0256FD8CD377FFE1C496E0C5BEAAF1
:107F200000000000FFFF0B2B000016570000035954
:107F30004000000000001DFA00026C1D000000005F
:107F40003FFFDFEB003EB3B6000D227800002F3C70
:107F500000000000001942B5000039A20000B3651E
:107F6000D90E9FC91DCF4C343000000050000000D6
:107F70003BB67AE80064000000C800000000000082
:107F8000100000001000FA921000225E000D229FE7
:107F90000001000000320000FF46000063D4000032
:107FA0001000000004D6000004CC000004CC000047
:107FB00000001072000000400000000000000000FF
:107FC0000006000200050007000000000064000039
:107FD0000000000000000005000500640020000013
:107FE000000000000000000000004000000003004E
:107FF00000000032F8980000FF650000830F0000C9
:10800000FF9BFC00000000000000000000000000DA
:108010000000000000000000000000000000000060
:108020000000000000000000000000000000100040
:1080300040000000000000060000B26A00020000DC
:108040000001FB830068000000D9FC007CF1FF8385
:108050000000000000650000006403E800640028E0
:10806000000000250000000016A000000000100025
:1080700000001000002F0000000001F400001000BC
:1080800000280000FFFF4581FFFFFA72000000009A
:1080900000000000004400050005BAC6004778A2B1
:1080A00000000001000000000000060000000014B5
:1080B0000000254D002F706D000005AE000C02D0B1
:1080C00000000000000000000000000000000000B0
:1080D000001B000000000000000000000000000085
:1080E0000064000000080000000000000000000024
:1080F0000000000000000000000000000000000080
:10810000000000000000000000000000000000006F
:10811000000000000000000000000000000000005F
:10812000000000000000000000000000000000004F
:10813000000000000000000000000000000000003F
:10814000001B00000000000000000000000E000EF8
:1081500000000AC70004000000000032FFFFFF9C7F
:1081600000000B2B00000002000000010000006472
:10817000FFE500000000000000000000000000001B
:1081800000000001000000000001000000000000ED
:10819000000180000001800000018000002426D33F
:1081A0000000000000000000000600100096003CE7
:1081B00000000000000000000000000000000000BF
:1081C0000C0A4E68CDCF770950166759C619CE8272
:1081D000000000000000000000000000000000009F
:1081E000000000000000000017D78400030000001A
:1081F0000000000000000000C7938F9D1E1B1C198B
:10820000000000000000000000000000000000006E
:10821000000000000000000002031885000040007C
:108220000000000300000003000000000000000048
:1082300040000000000000000000000000000000FE
:10824000000000000000000000000000000000002E
:10825000000000000000000000000000000000001E
:1082600000000000677DDF7E72902E554CF6E68898
:1082700000000000000000000000000000000000FE
:10828000D8DCB4B8B0D8B9ABF3F8FAB3B7BB8E9EAC
:10829000AEF132F51BF1B4B8B08097F1A9DFDFDFA2
:1082A000AADFDFDFF2AAC5CDC7A90CC92C97F1A9B7
:1082B00089264666B28999A92D557DB0B08AA896BF
:1082C000365676F1BAA3B4B280C0B8A89711B2837B
:1082D00098BAA3F0240844106418B2B9B49883F192
:1082E000A329557DBAB5B1A38393F0002850F5B208
:1082F000B6AA839328547CF1B9A3829361BAA2DA17
:10830000DEDFDB819AB9AEF5606870F1DABAA2DF20
:10831000D9BAA2FAB9A38292DB31BAA2D9BAA2F829
:10832000DF85A4D0C1BBAD83C2C5C7B8A2DFDFDF84
:10833000BAA0DFDFDFD8D8F1B8AAB38DB4980D3575
:108340005DB2B6BAAF8C96198F9FA70E161EB49A5F
:10835000B8AA872C547CBAA4B08AB691325676B2A9
:108360008494A4C808CDD8B8B4B0F19982A82D558A
:108370007D98A80E161EA22C547C92A4F02C507846
:10838000F184A898C4CDFCD80DDBA8FC2DF3D9BA94
:10839000A6F8DABAA6DED8BAB2B68696A6D0F3C8E0
:1083A00041DAA6C8F8D8B0B4B882A892F52C54889F
:1083B00098F135D9F418D8F1A2D0F8F9A884D9C722
:1083C000DFF8F883C5DADF69DF83C1D8F40114F17F
:1083D000A8824EA884F311D182F5D992289788F10A
:1083E00009F41C1CD884A8F3C0F9D1D99782F129CB
:1083F000F40DD8F3F9F9D1D982F4C203D8DEDF1A2B
:10840000D8F1A2FAF9A88498D9C7DFF8F8F883C799
:10841000DADF69DFF883C3D8F40114F198A8822E5B
:10842000A884F311D182F5D992509788F109F41CF0
:10843000D884A8F3C0F8F9D1D99782F149F40DD8BE
:10844000F3F9F9D1D982F4C403D8DEDFD8F1AD88CD
:1084500098CCA809F9D98292A8F57CF1883ACF94F2
:108460004A6E98DB6931DAADF2DEF9D88795A8F269
:1084700021D1DAA5F9F417D9F1AE8ED0C0C3AE82FE
:10848000C684C3A88595C8A588F2C0F1F4010EF191
:108490008E9EA8C63E56F554F18872F40115F198E7
:1084A00045856EF58E9E0488F142985A8E9E068808
:1084B00069F4011CF1981E1108D0F504F11E970211
:1084C00002983625DBF9D985A5F3C1DA85A5F3DF56
:1084D000D88595A8F309DAA5FAD88292A8F578F19B
:1084E000881A849F26889821DAF41DF3D8879F394B
:1084F000D1AFD9DFDFFBF9F40CF3D8FAD0F8DAF911
:10850000F9D0DFD9F9D8F40BD8F3879F39D1AFD997
:10851000DFDFF41DF3D8FAFCA869F9F9AFD0DADE91
:10852000FAD9F88F9FA8F1CCF398DB45D9AFDFD00B
:10853000F8D8F18F9FA8CAF38809DAAF8FCBF8D8A3
:10854000F2AD978D0CD9A5DFF9BAA6F3FAF412F2C1
:10855000D8950DD1D9BAA6F3FADAA5F2C1BAA6F325
:10856000DFD8F1BAB2B68696A6D0CAF349DAA6CB5E
:10857000F8D8B0B4B8D8AD84F2C0DFF18FCBC3A8BF
:10858000B2B68696C8C1CBC3F3B0B48898A821DB35
:10859000718D9D71859521D9ADF2FAD88597A8285E
:1085A000D9F408D8F28D29DAF405D9F285A4C2F2FB
:1085B000D8A88D9401D1D9F411F2D88721D8F40A22
:1085C000D8F28498A8C801D1D9F411D8F3A4C8BBB3
:1085D000AFD0F2DEF8F8F8F8F8F8F8F8D8F1B8F615
:1085E000B5B9B08A95A3DE3CA3D9F8D85CA3D9F875
:1085F000D87CA3D9F8D8F8F9D1A5D9DFDAFAD8B15F
:108600008530F7D9DED8F830ADDADED8F2B48C99FF
:10861000A32D557DA083DFDFDFB591A0F629D9FB1F
:10862000D8A0FC29D9FAD8A0D051D9F8D8FC51D972
:10863000F9D879D9FBD8A0D0FC79D9FAD8A1F9F921
:10864000F9F9F9A0DADFDFDFD8A1F8F8F8F8F8AC2B
:10865000DEF8ADDE8393AC2C547CF1A8DFDFDFF6CF
:108660009D2CDAA0DFD9FADB2DF8D8A850DAA0D0FB
:10867000DED9D0F8F8F8DB55F8D8A878DAA0D0DF42
:10868000D9D0FAF8F8F8F8DB7DF8D89CA88CF5304A
:10869000DB38D9D0DEDFA0D0DEDFD8A848DB58D960
:1086A000DFD0DEA0DFD0DED8A868DB70D9DFDFA0A6
:1086B000DFDFD8F1A888902C547C98A8D05C38D102
:1086C000DAF2AE8CDFF9D8B087A8C1C1B188A8C6EC
:1086D000F9F9DA36D8A8F9DA36D8A8F9DA36D8A806
:1086E000F9DA36D8A8F9DA36D8F78D9DADF818DA68
:1086F000F2AEDFD8F7ADFA30D9A4DEF9D8F2AEDEAB
:10870000FAF983A7D9C3C5C7F1889BA77AADF7DE6D
:10871000DFA4F8849408A797F300AEF29819A48810
:10872000C6A39488F632DFF28393DB09D9F2AADF7D
:10873000D8D8AEF8F9D1DAF3A4DEA7F1889B7AD8BD
:10874000F38494AE19F9DAAAF1DFD8A881C0C3C5C1
:10875000C7A39283F628ADDED9F8D8A350ADD9F8D7
:10876000D8A378ADD9F8D8F8F9D1A1DADEC3C5C756
:10877000D8A18194F818F2B089ACC3C5C7F1D8B8B4
:10878000B4B09786A8319B069907AB9728889BF0D1
:108790000C201440B0B4B8F0A88A9A285078B79B3F
:1087A000A8295179247059446938644831F1BBAB28
:1087B00088002C547CF0B38BB8A804285078F1B012
:1087C00088B49726A85998BBABB38B02264666B0EF
:1087D000B8F08A9CA82951798B2951798A2470593B
:1087E0008B2058718A4469388B3940688A644831D3
:1087F0008B30496088F1AC002C547CF08CA80428A4
:108800005078F1889726A85998AC8C02264666F0D5
:10881000899CA8295179247059446938644831A940
:108820008809205970AB11384069A8193148608C0B
:10883000A83C415C207C00F187981986A86E767E62
:10884000A999882D557DD8B1B5B9A3DFDFDFAED0AA
:10885000DFAAD0DEF2ABF8F9D9B087C4AAF1DFDF26
:10886000BBAFDFDFB9D8B1F1A3978E60DFB084F280
:10887000C8F8F9D9DED89385F14AB183A308B58346
:108880009A0810B79F10D8F1B0BAAEB08AC2B2B68B
:108890008E9EF1FBD9F41DD8F9D90CF1D8F8F8ADBA
:1088A00061D9AEFBD8F40CF1D8F8F8AD19D9AEFB0C
:1088B000DFD8F416F1D8F8AD8D61D9F4F4ACF59C9D
:1088C0009C8DDF2BBAB6AEFAF8F40BD8F1AED0F827
:1088D000AD51DAAEFAF8F1D8B9B1B6A3839C08B9B4
:1088E000B1839AB5AAC0FD3083B79F10B58B93F2C0
:1088F0000202D1ABDADED8F1B080BAABC0C3B28429
:10890000C1C3D8B1B9F38BA391B609B4D9ABDEB06A
:10891000879CB9A3DDF1B38B8B8B8B8BB087A3A323
:10892000A3A3B28BB69BF2A3A3A3A3A3A3A3A3A3C6
:10893000A3F1B087B59AA3F39BA3A3DCBAACDFB9CC
:10894000A3A3A3A3A3A3A3A3A3A3A3A3A3A3A3A3F7
:10895000D8D8D8BBB3B7F1AAF9DAFFD9809AAA2838
:10896000B48098A720B79787A86688F07951F190CE
:108970002C870CA781976293F0717160859401290F
:10898000517990A5F1284C6C870C95188578A383B4
:1089900090284C6C886CD8F3A28200F210A892192F
:1089A00080A2F2D926D8F188A84DD948D896A839FE
:1089B00080D93CD89580A839A68698D92CDA87A783
:1089C0002CD8A8899519A980D938D8A88939A9801F
:1089D000DA3CD8A82EA83990D90CD8A8953198D9C6
:1089E0000CD8A809D9FFD801DAFFD89539A9DA2619
:1089F000FFD890A80D8999A810809821DA2ED889DF
:108A000099A83180DA2ED8A886963180DA2ED8A897
:108A1000873180DA2ED8A88292F34180F1D92ED8FE
:108A2000A882F31980F1D92ED882ACF3C0A280229B
:108A3000F1A62EA72EA92298A829DAACDEFFD8A28B
:108A4000F22AF1A92E8292A8F23180A696F1D900DD
:108A5000AC8C9C0C30ACDED0DEFFD88C9CACD01043
:108A6000ACDE8092A2F24C82A8F1CAF235F196886F
:108A7000A6D900D8F1FF04000008000000000000A3
:108A80000002000100001000555555555555C53FD1
:108A90007D6FEB0312D6D4BF5544880E55C1C93F34
:108AA0003B8F68B52882A4BF88B20175E0EF493FCB
:108AB00009F7FD0DE13D023F4B2D8A1C273A03C00B
:108AC000C88A599CE52A004059018D1B6C06E6BFF7
:108AD00082922EB1C5B8B33F4FBB610567ACDD3F95
:108AE000182D4454FB21E93F9BF681D20B73EF3FD5
:108AF000182D4454FB21F93FE2652F227F2B7A3C4D
:108B0000075C143326A6813CBDCBF07A8807703C05
:108B1000075C143326A6913CC4EB98999999C9BF78
:108B2000711623FEC671BCBF6D9A74AFF2B0B3BFAD
:108B30009AFDDE522DDEADBF2F6C6A2C44B4A2BF6D
:108B40000D5555555555D53FFF8300922449C23FD9
:108B50006E204CC5CD45B73F513DD0A0660DB13F0D
:108B6000EB0D76244B7BA93F11DA22E33AAD903F1F
:108B7000000000000000000050726F6475637420F4
:108B800049442072656164206173203020696E64FD
:108B900069636174657320646576696365206973D0
:108BA0002065697468657220696E636F6D706174A9
:108BB00069626C65206F7220616E204D50553330B4
:108BC00035302E0A00000000E88B0008000000206D
:108BD000D40000006C010008BC8C0008D400002008
:108BE000CC08000088010008000000000000000020
:108BF00000000000000000000000000000A24A0485
:108C0000000000000000000001020304060708093C
:108C10000000000001020304010203040607080922
:108C2000020406080000803F000000000000000071
:108C300000000000000000000AD7233C3333B33E9D
:108C40000000000000000000000000000000000024
:108C50000000000000000000000000000000000014
:108C6000FFFFFFFF00000000307E00084C7E000880
:108C700000000000000000000000000000000000F4
:108C800000000000000000000000000000000000E4
:108C9000587E0008010000000100000001000000F3
:108CA00000000000000000000000000000000000C4
:0C8CB000000000000000000000000000B8
:0400000508000131BD
:00000001FF
