:020000040800F2
:1000000070090020890100082907000891040008F0
:1000100079060008A50200086F2100080000000012
:10002000000000000000000000000000F10D0008CA
:100030005903000800000000610C0008050F0008CB
:10004000A3010008A3010008A3010008A301000800
:10005000A3010008A3010008A3010008A3010008F0
:10006000A3010008A3010008A3010008A3010008E0
:10007000A3010008A3010008A3010008A3010008D0
:10008000A3010008A3010008A3010008A3010008C0
:10009000A3010008A3010008A3010008A3010008B0
:1000A000A3010008A3010008A3010008A3010008A0
:1000B000DD120008811300089D130008A301000849
:1000C000A3010008A3010008A3010008A301000880
:1000D000A3010008DD1E0008651F0008A301000839
:1000E000A3010008A3010008A301000800F002F822
:1000F00000F03AF80AA090E8000C82448344AAF188
:100100000107DA4501D100F02FF8AFF2090EBAE885
:100110000F0013F0010F18BFFB1A43F0010318473B
:100120007C4500009C450000103A24BF78C878C187
:10013000FAD8520724BF30C830C144BF04680C60ED
:10014000704700000023002400250026103A28BF35
:1001500078C1FBD8520728BF30C148BF0B60704739
:100160001FB51FBD10B510BD00F033F81146FFF7E5
:10017000F7FF02F09DF800F051F803B4FFF7F2FF2B
:1001800003BC01F0F6FF000009488047094800471A
:10019000FEE7FEE7FEE7FEE7FEE7FEE7FEE7FEE737
:1001A000FEE7FEE704480549054A064B7047000094
:1001B000090F0008ED0000087003002070090020FE
:1001C0007005002070050020704770477047704729
:1001D0007047754600F02CF8AE4605006946534658
:1001E00020F00700854618B020B5FFF7DBFFBDE81B
:1001F00020404FF000064FF000074FF000084FF08E
:10020000000B21F00701AC46ACE8C009ACE8C0091E
:10021000ACE8C009ACE8C0098D46704710B504468B
:10022000AFF300802046BDE81040FFF7A6BF0000F6
:10023000004870470C03002010B500F076FA4FF428
:10024000E13002F087FF4FF4E13002F0DDFE4FF4C1
:10025000E13002F02BFF01F08FFF00F02FF900F0EA
:1002600023F800F00BFA00F039FB632141F61F4040
:1002700001F0CCFC4FF4E151002000F095FF4FF667
:10028000FF71002000F0E4FF4FF6FF71002001F045
:1002900031F800F0A3FC01F00FFE00F005F900F0CA
:1002A000F9F810BD00BFFEE710B510220421024886
:1002B00000F08CF910BD0000001401402DE9F84F4A
:1002C000824601201A49087000201A4908701A490C
:1002D00008701A4908701A4948618861504603F04D
:1002E0001BFD17490862504603F016FD009003F00D
:1002F0009BFB8046134A144B03F056F80646002237
:10030000124B03F0A9F9044602F074FF83465946E4
:100310000F4802F0EFFC59460E4802F0EBFC02F0E9
:10032000D5FC0020064948608860BDE8F88F0000D1
:100330007300002072000020700000207100002077
:100340003C0200202A1895D409E82C400040904037
:10035000B4020020D402002070472DE9F04102468B
:1003600000250026002000230024002791F803C068
:100370000CF00F0591F803C00CF0100CBCF1000F4D
:1003800003D091F802C04CEA050591F800C0BCF119
:10039000000F31D0146800202BE04FF0010C0CFA54
:1003A00000F3B1F800C00CEA03069E4220D183009E
:1003B0004FF00F0C0CFA03F7BC4305FA03FC4CEAB0
:1003C000040491F803C0BCF1280F06D14FF0010CD2
:1003D0000CFA00FCC2F814C00AE091F803C0BCF1AA
:1003E000480F05D14FF0010C0CFA00FCC2F810C008
:1003F000401C0828D1D31460B1F800C0BCF1FF0F35
:1004000034DD546800202EE000F1080C4FF00108A4
:1004100008FA0CF3B1F800C00CEA03069E4221D1A1
:1004200083004FF00F0C0CFA03F7BC4305FA03FCF2
:100430004CEA040491F803C0BCF1280F05D100F187
:10044000080C08FA0CF8C2F8148091F803C0BCF14B
:10045000480F07D100F1080C4FF0010808FA0CF81A
:10046000C2F81080401C0828CED35460BDE8F0814B
:100470000246002093680B400BB1012000E00020F1
:100480007047016170470AB1016100E04161704746
:1004900000BFFEE710B548222021024800F096F880
:1004A00010BD00000008014010B548220721024895
:1004B00000F08CF810BD00000010014010B51022B3
:1004C0004FF4E051044800F081F84FF4E051024845
:1004D000FFF7D7FF10BD0000001001400948006879
:1004E00018B90120084908707047064800680128BB
:1004F00005D105480078012801D10220F4E7002049
:10050000F2E700001401214298000020002801DDDC
:10051000024600E042421046002901DD0A4600E0A2
:100520004A421146B0F57A6F02DD4FF47A6200E07C
:1005300002461046B1F57A6F02DD4FF47A6200E0B0
:100540000A461146024B1880014B0C3B198070473C
:10055000402C014010B515480078012824D11448DA
:100560000078401C1249087008460078022809DB10
:100570000020087001F048FE0E49086001F01EFEE0
:100580000D4908600B4801680C4802F0B3FB0A48AB
:1005900001680B4802F0AEFB02F0E4FB0949086079
:1005A00002F0AAFB0849086010BD000068020020A4
:1005B0004800002050000020580000207402002055
:1005C000940200204C00002054000020F8B504469E
:1005D0000E461546ADF800608DF8035003208DF8E7
:1005E00002001E48844204D10121042000F05AFB7D
:1005F0002EE01B48844204D10121082000F052FB68
:1006000026E01848844204D10121102000F04AFB62
:100610001EE01548844204D10121202000F042FB55
:1006200016E01248844204D10121402000F03AFB38
:100630000EE00F48844204D10121802000F032FBFB
:1006400006E00C48844203D10121801500F02AFB0A
:1006500069462046FFF781FEF8BD00000008014012
:10066000000C01400010014000140140001801403E
:10067000001C01400020014000BFFEE708B5012139
:10068000082000F00FFB4FF47040ADF80000102080
:100690008DF8030003208DF8020069460148FFF73A
:1006A0005CFE08BD000C014038B900210C4A116005
:1006B00001210C4AC2F8B41111E0012807D101212F
:1006C000074A11600021074AC2F8B41107E0022866
:1006D00005D10021024A1160024AC2F8B4117047E4
:1006E000B08121420080214238B901210C4A1160B9
:1006F00000210C4AC2F8B81111E0012807D10021ED
:10070000074A11600121074AC2F8B81107E0022820
:1007100005D10021024A1160024AC2F8B81170479F
:10072000BC81214200802142704710B54FF4A06087
:1007300000F03AF810BD000070B5002100230F2230
:10074000C47804B3154C246804F4E064C4F5E06490
:10075000210AC1F10403CA40447804FA03F1847801
:100760001440214309010E4C0678A155047804F089
:100770001F050124AC4005786D11AD0005F1E025A1
:10078000C5F8004109E0047804F01F050124AC40DD
:10079000044D0678761145F8264070BD0CED00E05A
:1007A00000E400E080E100E002490143024A1160F8
:1007B000704700000000FA050CED00E070B5002461
:1007C0000EE00021204600F0EAF8002504E00020B9
:1007D00000F062F9681CC5B2802DF8DB601CC4B261
:1007E000082CEEDB70BD000008B50121102000F0E0
:1007F00059FA14208DF8030003208DF80200202000
:10080000ADF8000069460A48FFF7A7FD1020ADF8D3
:10081000000069460648FFF7A0FD01222021044898
:10082000FFF731FE012210210148FFF72CFE08BD21
:100830000010014070B50546002413E080202041DF
:1008400000EA050210210E48FFF71DFE01222021BB
:100850000B48FFF718FE002220210948FFF713FE7E
:10086000601CC4B2082CE9DB012220210448FFF7F8
:100870000AFE002220210248FFF705FE70BD00009D
:100880000010014010B5012210210948FFF7FBFDBF
:10089000012220210648FFF7F6FD0022102104481E
:1008A000FFF7F1FD002220210148FFF7ECFD10BD0C
:1008B0000010014010B5002210210748FFF7E3FDAA
:1008C000012220210448FFF7DEFD01221021024809
:1008D000FFF7D9FD10BD00000010014070B50024E5
:1008E00006E0002500E06D1CB5F57A7FFBD3641CA3
:1008F000B4F57A7FF5D3FFF777FFAE2000F0BCF8B0
:10090000D52000F0B9F8802000F0B6F8A82000F05B
:10091000B3F83F2000F0B0F8D32000F0ADF800208D
:1009200000F0AAF8402000F0A7F8A12000F0A4F8F9
:10093000C82000F0A1F8DA2000F09EF8122000F0A4
:100940009BF8812000F098F8CF2000F095F8D9208E
:1009500000F092F8F12000F08FF8DB2000F08CF826
:10096000302000F089F8A42000F086F8A62000F0DE
:1009700083F88D2000F080F8142000F07DF8AF207F
:1009800000F07AF8FFF71AFF70BD10B5024601209B
:1009900000E050430B1EA1F10101FAD110BD70B56A
:1009A00005460C4645F0B00000F066F8102141EA1B
:1009B000141000F061F804F00F0000F05DF870BD55
:1009C0002DE9F04105460E461746721ED206110E5D
:1009D0006A1E5206100EFFF7E2FF002409E0A7F19D
:1009E0002001134A02EB0111085D00F055F8601C6C
:1009F000C4B2082CF3DB721ED206110E6A1E01234C
:100A000003EB4202D0B2FFF7CAFF00240BE0A7F1CC
:100A10002001074A02EB011204F10801505C00F0CA
:100A20003BF8601CC4B2082CF1DBBDE8F08100008B
:100A3000AA4000082DE9F04780460E4617461D469D
:100A4000002415E0281B411E0A20FFF79EFFB7FB7C
:100A5000F0F00A21B0FBF1F201FB120000F13009C5
:100A60003019C1B24A464046FFF7AAFF601CC4B223
:100A7000AC42E7DBBDE8F08710B50446FFF702FFA4
:100A80007820FFF7D7FE0020FFF7D4FE2046FFF7BF
:100A9000D1FEFFF70FFF10BD10B50446FFF7F2FEC1
:100AA0007820FFF7C7FE4020FFF7C4FE2046FFF77F
:100AB000C1FEFFF7FFFE10BD0748008900B20749DD
:100AC00008800548808900B2054908800248008AEC
:100AD00000B2044908807047F40200209C00002006
:100AE000A00000209E00002000B502463848007893
:100AF00038B9B32A05D1012035490870354802605C
:100B000064E033480078012807D1B32A05D10220D8
:100B10002F4908702F48426058E02D48007802287D
:100B200005D103202A4908702A4882604EE02848EF
:100B30000078032805D10420254908702548C260A3
:100B400044E023480078042805D105202049087096
:100B5000204802613AE01E480078052821D15B2A2E
:100B600007D100201A4908701A484261FFF7A4FF14
:100B70002CE05B2A2AD0002015490870164908602D
:100B80000AE000201349144B1B6841F82300124867
:100B90000068401C104908600F4800680628F0DB18
:100BA00014E000200A4908700B4908600AE00020A0
:100BB0000849094B1B6841F8230007480068401C9E
:100BC00005490860044800680628F0DB00BD000005
:100BD000A8000020F4020020A400002000201A49F0
:100BE000086048608860C860C8614FF07F50086145
:100BF0000020486188611549086048608860C860C5
:100C0000C861134808614FF07F50486111488861FE
:100C100000201149086048608860C860C8614FF0D2
:100C20007F5008610020486188610C490860486075
:100C30008860C860C861064808614FF07F5048610D
:100C40000448886170470000B4020020740200204C
:100C50000000F04100007041D40200209402002006
:100C60007047000029B1064AD2690243044BDA6199
:100C700004E0034AD2698243014BDA617047000005
:100C80000010024029B1064A12690243044B1A615E
:100C900004E0034A12698243014B1A617047000065
:100CA0000010024029B1064A92690243044B9A613E
:100CB00004E0034A92698243014B9A617047000045
:100CC0000010024029B1064AD2680243044BDA60A0
:100CD00004E0034AD2688243014BDA6070470000A7
:100CE0000010024030B500210022002400232D4DC9
:100CF0006D6805F00C0121B1042905D0082923D124
:100D000005E0294D056022E0274D05601FE0254DD7
:100D10006D6805F47012234D6D6805F4803402256A
:100D200005EB92421CB9214D554305600BE01D4D6A
:100D30006D6805F400351DB11C4D5543056002E09A
:100D4000194D5543056002E0174D056000BF00BF17
:100D5000144D6D6805F0F0010909154D6B5C0568CF
:100D6000DD4045600F4D6D6805F4E061090A104DE6
:100D70006B5C4568DD4085600A4D6D6805F4605127
:100D8000C90A0B4D6B5C4568DD40C560054D6D685B
:100D900005F44041890B074D6B5CC568B5FBF3F565
:100DA000056130BD0010024000127A0000093D00CC
:100DB00028000020380000200146022902D0032923
:100DC00010D108E04FF08042928C10B200224FF018
:100DD00080439A8408E0054A128810B20022034B2F
:100DE0001A8001E0002000BF00BF704724040040CB
:100DF000704710B500F002F810BD00000CB50020DF
:100E0000019000903348006840F480303149086018
:100E100000BF3048006800F4003000900198401C8A
:100E20000190009818B90198B0F5A06FF1D1294848
:100E3000006800F4003010B10120009001E00020B3
:100E400000900098012843D12348006840F010002A
:100E5000214908600846006820F003000860084641
:100E6000006840F0020008601A484068194948606C
:100E70000846406848600846406840F48060486022
:100E80000846406820F47C1048600846406840F4FA
:100E9000E81048600846006840F08070086000BFB5
:100EA0000C48006800F000700028F9D0094840683C
:100EB00020F00300074948600846406840F00200FF
:100EC000486000BF0348406800F00C000828F9D1D2
:100ED0000CBD00000010024000200240042808D190
:100EE0004FF0E021096941F004014FF0E022116167
:100EF00007E04FF0E021096921F004014FF0E02202
:100F0000116170477047000010B51348006840F049
:100F100001001149086008464068104908400E4920
:100F20004860084600680E4908400B4908600846BA
:100F3000006820F4802008600846406820F4FE0025
:100F400048604FF41F008860FFF753FF4FF00060C8
:100F50000449086010BD0000001002400000FFF8C6
:100F6000FFFFF6FE08ED00E0F0B50C461546002246
:100F70000021068C4FF6FE773E400684028B018CE2
:100F80004FF60C7632407E1C06EA03162E4332439F
:100F9000104EB0420ED0104EB0420BD0B0F1804F88
:100FA00008D00E4EB04205D00D4EB04202D00D4ECC
:100FB000B04206D14FF6FD76314044F00106314390
:100FC00005E04FF6F576314044F0010631430283E7
:100FD0000184F0BD002C01400034014000040040B9
:100FE00000080040000C0040F0B50C4615460022F9
:100FF00000210026078C4FF6EF7C07EA0C070784D8
:10100000028B018C4FF6FF7707EA041640F6FF4784
:101010003A404FF6FF7707EA03373A434FF6FF7738
:1010200007EA05273A43114FB8420ED0104FB84295
:101030000BD0B0F1804F08D00E4FB84205D00E4F04
:10104000B84202D00D4FB84206D14FF6DF77394093
:1010500046F01007394305E04FF65F77394044F01A
:101060001007394302830184F0BD0000002C0140C9
:10107000003401400004004000080040000C004023
:10108000F0B50C461546002200210026078C4FF6CD
:10109000FF6C07EA0C070784828B018C4FF6FF7701
:1010A00007EA04264FF60C773A404FF6FF7707EA37
:1010B00003172F433A43114FB8420ED0104FB84296
:1010C0000BD0B0F1804F08D00E4FB84205D00E4F74
:1010D000B84202D00D4FB84206D14FF6FF57394003
:1010E00046F48077394305E04FF2FF57394044F426
:1010F0008077394382830184F0BD0000002C0140D9
:10110000003401400004004000080040000C004092
:10111000F0B50C461546002200210026078C4EF63D
:10112000FF7C07EA0C070784828B018C4FF6FF7760
:1011300007EA043640F6FF473A404FF6FF7707EAE2
:1011400005273A434FF6FF7707EA03373A43114F33
:10115000B8420ED0104FB8420BD0B0F1804F08D03B
:101160000E4FB84205D00E4FB84202D00D4FB842D4
:1011700006D14DF6FF77394046F48057394305E0F4
:1011800047F6FF57394044F480573943828301843E
:10119000F0BD0000002C014000340140000400407C
:1011A00000080040000C004030B587B004460D46F2
:1011B0000121C802FFF776FD01210420FFF772FD2F
:1011C00018224FF410612048FFF700FA0020ADF814
:1011D0001600ADF81200ADF81450ADF8104004A997
:1011E0001A4800F0C1FC6020ADF800000020ADF806
:1011F00006000120ADF802000420ADF80400002034
:10120000ADF80C00ADF80E00ADF8080069460F48C7
:1012100000F0DAFB69460D4800F02CFC08210B4871
:1012200000F01EFC0821094800F062FC012107487B
:1012300000F000FA0121054800F029FA01210348D5
:1012400000F019FA07B030BD00080140002C014041
:1012500030B587B004460D4601210420FFF722FD7A
:1012600001210846FFF7FEFC042203211A48FFF77C
:10127000ADF90020ADF81600ADF81200ADF814502D
:10128000ADF8104004A94FF0804000F06DFC002341
:101290001A4603214FF0804000F0FCFA01A800F04C
:1012A00081FB0A20ADF80C0001A9400700F024FBE7
:1012B0000121880700F0D9F901221146900700F0BA
:1012C0007AFB00214FF0804000F01FFC01218807CD
:1012D00000F0D1F907B030BD0008014010B5012180
:1012E000880700F0F8FA012803D10121800700F0F7
:1012F000BFF910BD30B587B004460D46012104206A
:10130000FFF7D0FC01210220FFF7ACFC0422C02132
:101310001948FFF75BF90020ADF81600ADF8120090
:10132000ADF81450ADF8104004A9144800F01CFCAE
:1013300000231A460321114800F0ACFA01A800F07E
:1013400031FB0A20ADF80C0001A90C4800F0D4FADA
:1013500001210A4800F089F901221146074800F0EE
:101360002AFB0021054800F0D0FB0121034800F0D2
:1013700082F907B030BD00000008014000040040C1
:1013800010B50121044800F0A6FA012803D101217B
:10139000014800F06DF910BD000400402DE9F04156
:1013A0000121954800F097FA01287DD1012192484A
:1013B00000F05EF90220FFF7FFFC404200B28F49C7
:1013C00008800320FFF7F8FC00B28C494880B1F98F
:1013D000000002F0A1FC044688484168204602F063
:1013E0004FFB86494860B1F9020002F095FC0446C3
:1013F00082488168204602F043FB80498860486843
:101400007F4902F0ABFB804602F00EFB06467D4AA8
:101410007D4B02F021F9044601F0ECFE774948616A
:101420008868774902F09AFB804602F0FDFA06468A
:10143000744A754B02F010F9044601F0DBFE6F4967
:10144000886100F021FC71480078012879D16B494E
:10145000086A6F4902F014FB044668484169204657
:1014600002F072FD21D86549086A694902F0A8FDB9
:10147000044662484169204602F066FC15D865487A
:101480000078401C6349087008460078642811DB26
:1014900000205E49087001205F49087000205D4906
:1014A000087001F0FFFB05E0A4E000205A49087035
:1014B0005849087059480078012856D1FFF74AF872
:1014C0004E48C069C0B94D4A9168506802F0D8FAD8
:1014D00005464FF0804102F041FB044602F000FC5B
:1014E00046494862486A02F017FC44494860486A25
:1014F00002F012FC414988604049C86902F00CFCC6
:10150000054647480168284602F0BAFA044602F048
:10151000E7FB3A49C860C86902F0FEFB054641484E
:101520000168284602F041FD044602F0D9FB334928
:1015300008610846C068002804DD0020FFF7B4F801
:1015400003E012E00120FFF7AFF82C480069002803
:1015500003DD0020FFF7C8F802E00120FFF7C4F820
:10156000264A1169D068FEF7D1FF2F48007801287C
:1015700040D12A48007801283CD1FEF7EBFF2848EB
:10158000006802F0ADFB1D49C8602648006802F003
:10159000A7FB1A4908610846C068002803DD00203F
:1015A000FFF782F802E00120FFF77EF81348006998
:1015B000002803DD0020FFF797F802E00120FFF785
:1015C00093F81A480078401C1849087008460078BB
:1015D00064280ADB00201449087014490870074980
:1015E000C8600861012012490870044A1169D06876
:1015F000FEF78CFFBDE8F081000800403C020020AF
:101600000000824416D9CEF753E32C40730000202B
:101610000000C84175000020720000206802002010
:101620004C000020540000207000002076000020B4
:101630007100002021B1028842F08002028004E0A3
:1016400002884FF67F731A400280704730B500233E
:1016500001248C40A3B2048C9C430484048C02FAC1
:1016600001F5ADB22C43048430BDCA4302827047F9
:10167000CA430282704721B1028842F0010202800F
:1016800004E002884FF6FE731A400280704731B1C1
:10169000B0F8442042F40042A0F8442005E0B0F83D
:1016A0004420C2F30E02A0F84420704710B504464F
:1016B0006848844208D10121C014FFF703FB0021D0
:1016C000E014FFF7FFFAC4E0B4F1804F08D1012124
:1016D0000846FFF7D7FA00210120FFF7D3FAB8E058
:1016E0005D48844208D101210220FFF7CBFA002196
:1016F0000220FFF7C7FAACE05848844208D1012124
:101700000420FFF7BFFA00210420FFF7BBFAA0E096
:101710005348844208D101210820FFF7B3FA002181
:101720000820FFF7AFFA94E04E48844208D1012127
:101730001020FFF7A7FA00211020FFF7A3FA88E096
:101740004948844208D101212020FFF79BFA00215B
:101750002020FFF797FA7CE04448844208D1012119
:101760004014FFF7AFFA00216014FFF7ABFA70E006
:101770003F48844209D10121C804FFF7A3FA0021A0
:101780004FF40020FFF79EFA63E03A48844209D103
:1017900001210805FFF796FA00214FF48010FFF7AA
:1017A00091FA56E03448844209D101214805FFF7F7
:1017B00089FA00214FF40010FFF784FA49E02F481E
:1017C000844208D101214020FFF75CFA002140202B
:1017D000FFF758FA3DE02A48844208D101218020D1
:1017E000FFF750FA00218020FFF74CFA31E025483E
:1017F000844208D101218015FFF744FA0021A01589
:10180000FFF740FA25E02048844209D1012108046D
:10181000FFF758FA00214FF48030FFF753FA18E031
:101820001A48844209D101214804FFF74BFA0021EC
:101830004FF40030FFF746FA0BE01548844208D118
:1018400001218804FFF73EFA00214FF48020FFF7C2
:1018500039FA10BD002C014000040040000800408F
:10186000000C004000100040001400400034014013
:10187000004C01400050014000540140001800405D
:10188000001C004000200040004001400044014096
:1018900000480140F0B50C4615461E4600210022C6
:1018A00000230189028B038C4FF6F87739402143DE
:1018B0004FF6FC473A4040F201173A434FF6DD77C6
:1018C0003B404FF6FF7707EA06172F433B43018162
:1018D00002830384F0BD30B50246002000230024BB
:1018E000158A05EA0103958905EA010413B10CB1D3
:1018F000012000E0002030BD70B505460C462448AC
:1019000085420ED0234885420BD0B5F1804F08D0D8
:101910002148854205D02148854202D02048854291
:1019200000D100E000BF208850B92389A2886188D7
:101930002846FFF719FBE188284600F0E8F825E083
:10194000208804280AD12389A28861882846FFF7C5
:101950004BFBE188284600F0E3F817E020880828D0
:101960000AD12389A28861882846FFF789FBE1888C
:10197000284600F0E2F809E02389A2886188284619
:10198000FFF7C6FBE188284600F0E0F870BD0000D4
:10199000002C0140003401400004004000080040D9
:1019A000000C004000210180418001218180002144
:1019B000C180018170471AB183890B43838102E0A2
:1019C00083898B438381704770B5002400220023F4
:1019D000058C4FF6FE7635400584028C8388048B97
:1019E0004FF68F752C40B51E2C400D882C43751E6C
:1019F0002A400D892A434D882A43144DA8420BD012
:101A0000134DA84208D0134DA84205D0124DA8424C
:101A100002D0124DA84213D14FF6F7752A404D89D6
:101A20002A434FF6FB752A408D882A434FF6FF65FF
:101A30002B404FF6FF552B408D892B43CD892B43EF
:101A400083800483CD888586028470BD002C01408C
:101A50000034014000400140004401400048014082
:101A60000A460021018B4FF6F77319401143018399
:101A70007047000070B5002200230024058C4EF64C
:101A8000FF7635400584038C8488828B48F6FF7589
:101A90002A404FF6FF452A400D884FF6FF7606EAAA
:101AA00005252A434DF6FF752B400D8906EA0535BD
:101AB0002B434D8806EA05352B430B4DA84202D037
:101AC0000A4DA84208D14BF6FF752C408D894FF680
:101AD000FF7606EA85152C4384808283CD88A0F8A2
:101AE0004050038470BD0000002C014000340140D0
:101AF0000A460021818B4FF2FF7319404FF6FF73A6
:101B000003EA022319438183704781847047028B63
:101B10004FF6F3731A400283028B0A430283704725
:101B2000028B4FF2FF331A400283028B4FF6FF7392
:101B300003EA01231A4302837047828B4FF6F37343
:101B40001A408283828B0A4382837047828B4FF2D2
:101B5000FF331A408283828B4FF6FF7303EA01231F
:101B60001A43828370470000002202881D4B98426E
:101B70000ED01D4B98420BD0B0F1804F08D01B4BBC
:101B8000984205D01A4B984202D01A4B984204D181
:101B90004FF68F731A404B881A43174B984207D061
:101BA000164B984204D04FF6FF431A40CB881A4395
:101BB00002808B8883850B8803850A4B98420BD063
:101BC000094B984208D00E4B984205D00D4B9842D5
:101BD00002D00D4B984201D10B7A038601238382F8
:101BE00070470000002C0140003401400004004018
:101BF00000080040000C00400010004000140040AD
:101C00000040014000440140004801407FB50446C7
:101C10000D4601210420FFF725F801210846FFF7B2
:101C200041F81848FFF742FDADF80850ADF8044000
:101C30000020ADF80600ADF80A0001A91148FFF731
:101C400093FF1E208DF8000000208DF801008DF814
:101C5000020001208DF803006846FEF76DFD0121AA
:101C60000848FFF702FD01210648FFF701FD0122A8
:101C700011460448FFF79FFE01210248FFF7FBFCD5
:101C80007FBD00000008004010B54FF4007185488A
:101C9000FEF7EEFBC0B94FF480718248FEF7E8FB17
:101CA00090B94FF480718048FEF7E2FB60B90221E1
:101CB0007C48FEF7DDFB38B901217A48FEF7D8FBF6
:101CC00010B900207949C8614FF400717548FEF7DA
:101CD000CFFB012817D101027248FEF7C9FB90B96A
:101CE0004FF480717048FEF7C3FB60B902216D4864
:101CF000FEF7BEFB38B901216A48FEF7B9FB10B9FF
:101D00006B486A49C8614FF400716648FEF7B0FB42
:101D1000D0B94FF480716348FEF7AAFBA0B94FF425
:101D200080716148FEF7A4FB70B902215D48FEF79F
:101D30009FFB48B901215B48FEF79AFB012803D1BC
:101D400040F698005949C8614FF400715548FEF7B4
:101D50008FFBC8B94FF480715248FEF789FB012808
:101D600012D101025048FEF783FB68B902214D48A9
:101D7000FEF77EFB40B901214A48FEF779FB18B90E
:101D80004B48C8304949C8614FF400714548FEF7D7
:101D90006FFBD0B94FF480714248FEF769FBA0B9E0
:101DA0004FF480714048FEF763FB70B902213D4853
:101DB000FEF75EFB012808D101213A48FEF758FBE7
:101DC00018B94FF4FA603949C8614FF48071354849
:101DD000FEF74EFB70B94FF480713348FEF748FBB5
:101DE000012807D102212F48FEF742FB10B900203D
:101DF0002E49C8614FF480712A48FEF739FB80B93B
:101E00004FF480712848FEF733FB012809D10221E5
:101E10002448FEF72DFB012803D140F26C702349C2
:101E2000C8614FF480711F48FEF722FB78B94FF468
:101E300080711D48FEF71CFB48B902211948FEF7C6
:101E400017FB012803D140F698001849C8614FF4E8
:101E500080711448FEF70CFB01280CD101021248D6
:101E6000FEF706FB38B902210E48FEF701FB10B958
:101E70000F480E49C8614FF480710A48FEF7F8FA1E
:101E800001280DD101020848FEF7F2FA012807D116
:101E900002210448FEF7ECFA10B906480349C8616C
:101EA00010BD0000000C0140001001403C02002069
:101EB00068F7FFFF94F8FFFF10B5282240F20331C6
:101EC0000448FEF783FB28224FF480710248FEF796
:101ED0007DFB10BD000C01400010014010B540F228
:101EE00025511D4800F07EF810B31B4800F036F96C
:101EF000C4B21A48008800F40040C8B917480088E6
:101F000000F4804060B10A2C03D0002013490880FF
:101F100020E01248008840F400401049088019E091
:101F20000D2C06D10D48008840F480400B490880F4
:101F300010E00A480088C0F30D0009490C54074816
:101F40000088401C0549088008460088C72801DD34
:101F50000020088010BD000000380140440000202F
:101F6000AC00002010B540F22551094800F03AF8C5
:101F700068B140F22551064800F00CF80448001DF5
:101F80000088C4B22046FEF7AFFDFEF795FD10BDF8
:101F90000044004010B50022002340F66A14A1421C
:101FA00000D100BF0A1201249440A3B2DC43048094
:101FB00010BD21B1828942F40052828104E08289FD
:101FC0004DF6FF731A408281704702460020B1F53A
:101FD000007F00D100BF13880B400BB1012000E04F
:101FE0000020704770B50246002400230025002021
:101FF00040F66A16B14200D100BFC1F3421501F0AC
:102000001F03012606FA03F3012D02D196893340FE
:1020100006E0022D02D1168A334001E0968A334051
:102020000C12012606FA04F41688344013B10CB1E0
:10203000012000E0002070BDF0B50346002400261A
:102040000025002040F66A17B94200D100BF1846AB
:10205000C1F3421401F01F06012707FA06F5012C0F
:1020600001D10C3004E0022C01D1103000E014301A
:102070001AB107682F43076002E00768AF430760A3
:10208000F0BD00002DE9F04786B005460E4600245D
:10209000A24600BFA1460027B08900B100BF2F466D
:1020A0002C8A4CF6FF700440F08804432C82AC89E3
:1020B0004EF6F3100440B088318908437189084313
:1020C0000443AC81AC8A4FF6FF400440B08904431E
:1020D000AC8201A8FEF706FE1F48874202D1DDF858
:1020E00010A001E0DDF80CA0A88900F4004040B188
:1020F0000AEBCA0000EB0A1031684900B0FBF1F8A6
:1021000007E00AEBCA0000EB0A1031688900B0FB57
:10211000F1F86420B8FBF0F004012009642101FB10
:102120001089A88900F4004040B1322000EBC900BA
:10213000B0FBF1F000F00700044308E0322000EBB0
:1021400009106421B0FBF1F000F00F0004432C8172
:1021500006B0BDE8F08700000038014001468888DD
:10216000C0F308007047C1F308028280704700BFC7
:10217000FEE700BF7047000010B56FF00400FEF7E7
:10218000ADFE0A4800680A49B0FBF1F00949087041
:102190000846007800EB4001C1EBC0104FF6FF711C
:1021A00001EAC0000449088010BD000014000020AE
:1021B00000127A003C0000203E00002010B50024F0
:1021C0000C4880680C490860084601680B4800F01C
:1021D00041F804460A49204601F0B6FE01D2084CF7
:1021E00005E00849204601F0AFFD00D2054C20462D
:1021F00010BD00003C02002094000020D40200200A
:1022000000003443000034C310B500240C4840687B
:102210000C490860084601680B4800F01BF80446AA
:102220000A49204601F090FE01D2084C05E0084919
:10223000204601F089FD00D2054C204610BD00006B
:102240003C02002090000020B40200200000344333
:10225000000034C32DE9F04704460D4629462068A6
:1022600001F0AEFEA060A168E06901F009FCE06148
:10227000D4E9020101F0A4FE8046A16901F098FDB5
:102280000646E169606901F093FD8046A168206916
:1022900001F08EFD8146414601F0F2FB07463146D2
:1022A00001F0EEFB6060A068E0606068BDE8F08768
:1022B000FDF7C2FF60E20323FA4802780121022001
:1022C000FEF7B8FB0323F848027805210220FEF749
:1022D000B1FB0223F548B0F9002001210320FEF7ED
:1022E000A9FB0223F248B0F9002004210320FEF7E5
:1022F000A1FB0223EF48028801210420FEF79AFB8C
:10230000FEF7ECF804460223224604210846FEF7B5
:1023100091FBE948407958BBE4480078E7490870E8
:1023200000BFFEF7DBF80028FBD0E448007828B9AE
:102330000020E3490880E0494871BBE7DF480078A6
:10234000012804D1DE490880DB494871B2E7DB4847
:102350000078022805D1DA4908800120D649487161
:10236000A8E70320D64908800120D3494871A1E796
:10237000D148407901289DD1FEF7B0F8012874D1E9
:10238000CF480088012832D1CA490880C548007862
:1023900030B101280BD0022814D0032825D11CE02D
:1023A0005520FDF78BFF0120BE4908701EE0C5488F
:1023B0000078012805D1002000F05AFD0220B9491B
:1023C000087013E0C0480078012805D11F20FDF7F0
:1023D00075FF0320B349087000BFBA480078012890
:1023E00002D10020B949086000E000BF62E7B448AC
:1023F0000088022831D1AF490880AA48007830B15E
:1024000001280BD0022813D0032824D11BE055202B
:10241000FDF754FF0120A34908701DE0A94800788A
:10242000012804D100F024FD02209E49087013E029
:10243000A5480078012805D12020FDF73FFF0320A3
:102440009849087000BF9F480078012802D10020F9
:102450009E49086000E000BF2CE7924800780728FA
:1024600078D009DC072876D200E037E1DFE800F019
:10247000151C47525A6477000C286DD006DC0828DA
:102480006BD00A286AD00B2865D1BDE00D287CD01E
:1024900063287BD06428F7D1E4E0AF20FDF70EFF7E
:1024A000012080490870FCE086480078012825D189
:1024B0007F48007886490870084600783A2809D194
:1024C000002000F0D5FC03207A49088002207549DD
:1024D000087013E07E4800783B2809D1012000F005
:1024E000C7FC04207349088002206E49087005E08B
:1024F0005520FDF7E3FE04206A490870D1E07248D8
:102500000078012805D12020FDF7D8FE0320654979
:102510000870C6E06B480078012802D100206B49A2
:102520000860BEE067480078012804D100F0A0FCF4
:1025300005205C490870B4E063480078012808D1A0
:102540005820FDF7BBFE0020594908800620554958
:102550000870A6E03AE0A3E08FE042E049E0594885
:102560000078012826D1524800785A490870084658
:1025700000783A280BD1002000F07AFC08204D4961
:10258000088063204749087014E081E013E0514857
:1025900000783B2808D1012000F06AFC072045495B
:1025A00008804049087005E0022000F061FC0A2024
:1025B0003C49087075E044480078012805D1202086
:1025C000FDF77CFE0820374908706AE03E48007835
:1025D000012805D12220FDF771FE0820314908703D
:1025E0005FE038480078012802D1002037490860B0
:1025F00057E035480078012805D1B120FDF75EFE8F
:102600000B20284908704CE02E480078012828D17A
:102610002748007830490870084600783A2809D1E0
:10262000002000F025FC0520224908800C201D49CF
:10263000087016E0284800783B2809D1012000F0F6
:1026400017FC06201B49088064201649087008E022
:10265000002000F00DFC0520164908800C201149CF
:1026600008701EE018480078012805D12020FDF7E9
:1026700025FE0D200B49087013E01348007801284F
:1026800005D12020FDF71AFE0D200649087008E04C
:102690000C480078012802D100200C49086000BFD6
:1026A00000BFF0E200000020020000209C0000209B
:1026B000A00000200E00002068020020060000207C
:1026C0000A0000207200002071000020A8012242B0
:1026D000070000200800002009000020FDF7FEFE92
:1026E0000228DED1FC480088012846D1FB4890F83A
:1026F000290005283FD2DFE800F0030E1A2531003B
:102700000120F7490860022000F0B2FB0120F349E4
:1027100081F8290030E0F3480078012806D1232011
:10272000FDF7CCFD0220ED4981F8290024E0EE48B8
:102730000078012805D100F09BFB0320E74981F8D0
:10274000290019E0E7480078012806D13320FDF779
:10275000B5FD0420E14981F829000DE0E248007848
:10276000012807D10020DE49091D08600120DF494A
:10277000C1F8A80100E000BF85E2D7480088022820
:1027800047D1D64890F82900052840D2DFE800F06C
:10279000030E1A2632000120D1490860022000F001
:1027A00067FB0120CD4981F8290031E0CD48007850
:1027B000012806D12320FDF781FD0220C74981F8B9
:1027C000290025E0C8480078012806D1002000F043
:1027D0004FFB0320C14981F8290019E0C148007866
:1027E000012806D13420FDF769FD0420BB4981F89A
:1027F00029000DE0BC480078012807D10020B84925
:10280000091D08600120B949C1F8A80100E000BF16
:1028100039E2B1480088032849D1B04890F829002E
:10282000052842D2DFE800F0030E1A25340001200B
:10283000AB490860022000F01BFB0120A74981F88A
:10284000290033E0A7480078012806D12220FDF7AF
:1028500035FD0220A14981F8290027E0A24800782F
:10286000012805D100F004FB03209C4981F82900D0
:102870001CE09C480078012809D1FE2000F0B4FB40
:102880008E20FDF71BFD0420944981F829000DE0FE
:1028900095480078012807D100209149091D08605A
:1028A00001209249C1F8A80100E000BFEBE18A488D
:1028B000008804284AD1894890F82900052843D285
:1028C000DFE800F0030E1A26350001208449086075
:1028D000022000F0CDFA0120804981F8290034E07F
:1028E00080480078012806D12320FDF7E7FC02206C
:1028F0007A4981F8290028E07B480078012806D130
:10290000002000F0B5FA0320744981F829001CE08A
:1029100074480078012809D1FE2000F065FB8E2064
:10292000FDF7CCFC04206D4981F829000DE06E48CC
:102930000078012807D100206949091D086001209D
:102940006A49C1F8A80100E000BF9CE16248008824
:1029500005285ED1614890F82900072857D2DFE8A2
:1029600000F0040F1B26323D490001205C4908603D
:10297000022000F07DFA0120584981F8290047E043
:1029800058480078012806D12120FDF797FC022045
:10299000524981F829003BE053480078012805D1CD
:1029A00000F066FA03204D4981F8290030E04D48D7
:1029B0000078012806D15820FDF780FC0420474903
:1029C00081F8290024E048480078012805D100F06A
:1029D0004FFA0520414981F8290019E04148007863
:1029E000012806D1EA20FDF769FC06203B4981F861
:1029F00029000DE03C480078012807D10020384923
:102A0000091D086001203949C1F8A80100E000BF94
:102A100039E13148008806286CD1304890F8290007
:102A2000072865D2DFE800F0040F1B27333E4A0079
:102A300001202B490860022000F01AFA01202749E2
:102A400081F8290055E027480078012806D1252083
:102A5000FDF734FC0220214981F8290049E0224891
:102A60000078012806D1002000F002FA03201B495B
:102A700081F829003DE01B480078012806D15B2041
:102A8000FDF71CFC0420154981F8290031E01648A7
:102A90000078012805D100F0EBF905200F4981F8F5
:102AA000290026E00F480078012806D1EA20FDF72A
:102AB00005FC0620094981F829001AE00A48007837
:102AC000012807D100200649091D08600120074997
:102AD000C1F8A8010DE00DE00E0000203C0200202E
:102AE000A801224271000020720000200000224252
:102AF00000BFC8E065480088072860D1644890F8A6
:102B00002900072859D2DFE800F0040F1B27333FC4
:102B10004B0001205F490860022000F0A9F9012064
:102B20005B4981F8290049E05B480078012806D11B
:102B30002320FDF7C3FB0220554981F829003DE021
:102B400056480078012806D1002000F091F90320B2
:102B50004F4981F8290031E04F480078012806D11B
:102B60005720FDF7ABFB0420494981F8290025E0F7
:102B70004A480078012806D1002000F079F90520A4
:102B8000434981F8290019E043480078012806D11B
:102B9000E920FDF793FB06203D4981F829000DE06F
:102BA0003E480078012807D100203A49091D0860F5
:102BB00001203B49C1F8A80100E000BF63E03348B1
:102BC000008808285FD1324890F82900072858D299
:102BD000DFE800F0040F1B26323E4A0001202D4999
:102BE0000860022000F044F90120294981F82900F9
:102BF00048E029480078012806D12320FDF75EFB34
:102C00000220234981F829003CE02448007801286B
:102C100005D100F02DF903201D4981F8290031E08C
:102C20001D480078012806D15620FDF747FB0420F7
:102C3000174981F8290025E018480078012806D1B5
:102C4000002000F015F90520114981F8290019E04C
:102C500011480078012806D1EA20FDF72FFB062055
:102C60000B4981F829000DE00C480078012807D1B4
:102C700000200849091D086001200949C1F8A80180
:102C800000E000BF00BFFFF716BB00000E000020F1
:102C90003C020020A80122427100002072000020A6
:102CA0000000224210B5002006490870002211469B
:102CB0000548FEF7CBFC00220C210348FEF7C6FCBA
:102CC00010BD000068020020002C014010B501205A
:102CD00006490870012200210548FEF7B7FC0122D1
:102CE0000C210348FEF7B2FC10BD00006802002072
:102CF000002C0140016070472DE9FC5F002001902D
:102D00001249B1F9020001F007F8009000F08CFEC2
:102D1000804600220E4B00F09FFC064600220D4B21
:102D200000F09AFC044600220B4B00F03DFB82466B
:102D300000F060FA0949086008460168084800F098
:102D400047F801900198BDE8FC9F00003C0200207C
:102D500000408F4000004E400068BA408C000020C8
:102D6000940200202DE9FC5F002001901249B1F986
:102D7000000000F0D1FF009000F056FE80460022D7
:102D80000E4B00F069FC064600220D4B00F064FC7F
:102D9000044600220B4B00F007FB824600F02AFAA3
:102DA0000949086008460168084800F011F80190D8
:102DB0000198BDE8FC9F00003C02002000408F40CD
:102DC00000004E400068BA408800002074020020D5
:102DD0002DE9F04704460D462946206801F0F0F839
:102DE000A0604FF07C51A06800F0AEFF07D24FF01A
:102DF0003F41A06801F0A8F801D20020A060A168BE
:102E0000E06900F03DFEE0611749E06901F09CF8DF
:102E100002D81548E06106E01449E06900F094FF2B
:102E200001D21248E061D4E9020101F0C9F88046FC
:102E3000A16900F0BDFF0646E169606900F0B8FFD6
:102E40008046A168206900F0B3FF8146414600F04A
:102E500017FE0746314600F013FE6060A068E06090
:102E60006068BDE8F087000000007A4500007AC580
:102E70002DE9F84F044600204B4908704B49087073
:102E800001204B49087000204A4908704A494861AE
:102E900088614A48009014BB009800F0C5FD0746C1
:102EA000474A484B00F080FA82460022464B00F029
:102EB000D3FB054600F09EF98146484600F0B4FD7C
:102EC0008246424A424B00F0C7FB07460022414B74
:102ED00000F0C2F9054600F08DF9814651E0012C61
:102EE00024D1009800F0A0FD0746354A354B00F08C
:102EF0005BFA81F0004105460022334B00F0ACFB49
:102F0000824600F077F98146484600F08DFD05467F
:102F10002E4A2F4B00F0A0FB074600222E4B00F05C
:102F200099FC824600F066F981462AE0022C28D1FD
:102F3000009800F079FD0546214A224B00F034FA52
:102F400081F00041074600221F4B00F085FB8246BE
:102F500000F050F98146484600F066FD07461B4ADE
:102F60001B4B00F079FB054600221C4B00F072FC65
:102F7000824600F03FF981464946600700F018FF9D
:102F8000814689F0004529461548FFF7B3FE4946BA
:102F90001448FFF7AFFE0020074948608860FFF73C
:102FA00095FEBDE8F88F000073000020720000203D
:102FB00070000020710000203C020020FB5C2341D7
:102FC0002A1895D409E82C40004090405C8FC2F547
:102FD000285CEF3F00C0624000E0604000C0574006
:102FE000B4020020D402002010B504462146054852
:102FF000FFF7B9F800BF80210248FEF7E6FF00287E
:10300000F9D010BD0048004010B586B0044601213B
:103010004804FDF727FE01210420FDF743FE0420AC
:10302000ADF8140003208DF8160018208DF8170055
:1030300005A91C48FDF791F90820ADF814000420FB
:103040008DF8170005A91748FDF787F926208DF898
:10305000000003208DF801008DF8020001208DF89A
:1030600003006846FDF768FB01940020ADF80800F6
:10307000ADF80A00ADF80C00ADF810000C20ADF86A
:103080000E0001A90848FEF7FDFF012240F225517C
:103090000548FEF7D1FF01210348FEF78AFF06B07D
:1030A00010BD0000000801400044004010B586B08B
:1030B000044601210820FDF7F5FD01218804FDF7F4
:1030C000D1FD4FF48060ADF8140003208DF8160098
:1030D00018208DF8170005A91C48FDF73EF94FF49C
:1030E0000060ADF8140004208DF8170005A91748FA
:1030F000FDF733F901940020ADF80800ADF80A009F
:10310000ADF80C00ADF810000C20ADF80E00272033
:103110008DF8000001208DF803008DF801000020DB
:103120008DF802006846FDF707FB01A90848FEF785
:10313000A9FF012240F225510548FEF77DFF01213C
:103140000348FEF736FF06B010BD0000000C01403A
:103150000048004010B586B00446012144F2040046
:10316000FDF7A0FD4FF40070ADF8140003208DF8BA
:10317000160018208DF8170005A91C48FDF7EDF87A
:103180004FF48060ADF8140004208DF8170005A9F5
:103190001648FDF7E2F825208DF8000003208DF891
:1031A00001008DF8020001208DF803006846FDF74C
:1031B000C3FA01940020ADF80800ADF80A00ADF89C
:1031C0000C00ADF810000C20ADF80E0001A9084865
:1031D000FEF758FF012240F225510548FEF72CFF6B
:1031E00001210348FEF7E5FE06B010BD00080140CE
:1031F0000038014021F00042A2F16052B2F5801F78
:1032000001F0004328BFD2F17F6C0BD95FEA001CAC
:1032100043EAC20242EB507018BF704728BF20F04B
:1032200001007047B2F5801FBCBF184670474FEAD7
:10323000410C1CF5001F02D2084600F080BE70B59C
:1032400000F0B4FA00000089FFF7F6BF4FF000402D
:10325000A0F580007047000010B591EA030F48BF49
:1032600083F0004300F1FE82841A71EB030C05D257
:10327000121943EB0C03001B61EB0C01DFF824E196
:103280004FEA1154A4EB135C1EEA430F18BF9EEAE9
:10329000445F73D023EA0E03DCF1200E21EA0451CF
:1032A00043F4801332D322FA0CFE10EB0E0023FA03
:1032B0000CFE41EB0E01CCF1200E03FA0EFE10EBDA
:1032C0000E0051F10001B1F5801FCCF1200E32D279
:1032D00001EB045112FA0EF2BDE8104058BF7047DE
:1032E000401C38BF5FEA420218BF7047002814BF75
:1032F00020F0010041F100014FEA410313F5001FE6
:1033000038BF7047A1F1C04100F09EBA012A43EBDB
:103310000302ACF1200CDCF11F0E32BF4FF0000EA7
:1033200023FA0CF310EB030041EB0451B4EB115FF3
:10333000D0D0A1EB045101F5801149085FEA3000BB
:1033400001EB04510ED350F1000038BF12FA0EFE0B
:1033500008D1BDE81040C9E7401C38BF5FEA42020F
:10336000CAD1C3E7BDE810404FEA410313F5001F7F
:1033700038BF7047A1F1C04100F066BA9EEA445FD1
:1033800008D011EA5E0FBDE8104004BF01F0004113
:1033900000207047BDE8104070B500F007FA00BF8C
:1033A00064FBBE3E0000E0FF2DE9C04130B4DFF811
:1033B000A0C23CEA111418BF3CEA131400F0EC80E0
:1033C00081EA03051CEA111444EAD57418BF1CEA0B
:1033D000131500F0C780A4EB05044FF0004545EA43
:1033E000C12145EAC32341EA505143EA525304F153
:1033F0007F74994204F500344FEAC0204FEAC2229C
:1034000008BF904200F09C804FEA13650FF240160F
:10341000765D4FEA134506FB05F7C7F1807706FB9B
:1034200007F74FEAD737A7FB03687642C8F580381D
:10343000A7FB06CE38BFA8F1010807FB08E64FF04E
:10344000000EA6FB028CE6FB03CEDCF1000CCEF1F5
:10345000004E38BFAEF1010EA6FB0C584FF000072E
:103460004FF00005E6FB0E87A1FB08C6A0FB07CEC8
:1034700016EB0E0645F10005E1FB076515F1E04E80
:103480007EBFA4F580345FEA46066D4116F18007E1
:1034900045F100054FEA17274FEA066647EA056738
:1034A000A6F1DE46B6F1805F4FEA15251FD93846F2
:1034B00024F0010C05EBC471BCF1FE6F01EB0C11A3
:1034C00002D8F0BCBDE8008124425CBF01F5801E3B
:1034D0009EEAC47F02D4F0BCBDE80081244238D407
:1034E000F0BCA1F1C041BDE8004100F0ADB94FEA28
:1034F000D22242EA43524FEAD323A7FB02864FEA85
:10350000D02040EA415007FB03661EEA0E0F4FEA47
:10351000D12105FB026658BFA6EB0056B6EB00565C
:103520004FEA520E4EEAC37E18EB0E0E56EB530EC8
:10353000BDD518EB02085E417F1C55F10005B6E7CA
:103540004FF480154FF000074FF000064FF00008D1
:10355000ADE7F0BC4FF0000001F1C04101F00041C7
:10356000BDE8008111EA0C1F0CEA131500D00CE035
:1035700013EA0C1F00F025804FF00000F0BC81EA38
:10358000030101F00041BDE80081F0BCBDE800414D
:1035900081EA030100F058B9F0BCBDE8004170B504
:1035A00000F004F9097EFC3E00F007B881EA03014F
:1035B0004FF0000001F00041704781EA030100F084
:1035C00043B9F0BCBDE800414FF00000214970470D
:1035D000FFFDFBF9F7F5F4F2F0EEEDEBE9E8E6E4D8
:1035E000E3E1E0DEDDDBDAD8D7D5D4D3D1D0CFCD5F
:1035F000CCCBCAC8C7C6C5C4C2C1C0BFBEBDBCBB98
:10360000BAB9B8B7B6B5B4B3B2B1B0AFAEADACAB92
:10361000AAA9A8A8A7A6A5A4A3A3A2A1A09F9F9E6C
:103620009D9C9C9B9A99999897979695959493931E
:10363000929191908F8F8E8E8D8C8C8B8B8A8989B5
:103640008888878786858584848383828281818038
:103650000000FF070000F87FDFF848C170B51CEAE2
:10366000111E1EBF1CEA13159EEA0C0F95EA0C0FE3
:1036700000F06F8081EA030423EA4C134EEAD47E03
:1036800021EA4C1141F4801143F48013AE44A1FBB4
:10369000024CA0FB0365AEF17F7E361955EB0C059D
:1036A000A1FB034C4CF10003A0FB021C16EB0C0623
:1036B000654153F10003094218BF46F0010613F4B7
:1036C000007F0BD14FEA03314FEA0530340341EA62
:1036D000155140EA16506FF003020AE04FEAC32189
:1036E0004FEAC520F40241EA555140EA56506FF0C6
:1036F000020202EB2E4201EB025585EACE710AD09E
:103700005FEA440C18BF24F0004450F1000041F17E
:10371000000120EAD47040F2FE7C624500D270BD08
:10372000A84214BF4FF080444FF04044002E08BF21
:103730000024BEF1806FA8BFA1F1C041BDE8704078
:1037400080F282804FF0000001F1C04101F00041A1
:1037500070479EEA0C0F0CEA131518BF95EA0C0F80
:1037600006D04FF0000081EA030E0EF0004170BD5C
:1037700000F01CF88900013E00F007B800F009B81D
:103780004FEA430C5FEA5C5C08D081EA030100F079
:103790005BB84FEA410C5FEA5C5CF6D14FF0000089
:1037A000014970470000FF070000F87F0EF1020E8C
:1037B0002EF0030E5EF8046B364205D4012A43EB6B
:1037C000030515F5001F12D8012841EB010C1CF56B
:1037D000001F0CD80ED14FEAD17C15F5001F0CEB61
:1037E0004C0C0CF1020C08BF4CEBD37C04E04FF006
:1037F000080C01E04FEAD37C0CEB4C0526FA05F6E9
:1038000006F00706B6F1040C06D20EEB860CBDE8F6
:1038100070404CF0010C6047DFE80CF0090B02022D
:103820004FF000414FF00000A1F5002170BD194696
:103830001046012851EB010418BFD4F5001484BFD1
:10384000002001F0004170BD0808A0F500114FEA0A
:103850003101704710B591EA030F48BF83F0004370
:103860003FF502AD841A71EB030C07D212198CF0EC
:10387000004C43EB0C03001B61EB0C01DFF8A4E1EF
:103880004FEA1154A4EB135C1EEA430F18BF9EEAE3
:10389000445F00F0B08023EA6E03524221EA0451F3
:1038A000C3EB6E0338BF5B1EDCF1200E25D322FA7A
:1038B0000CFE10EB0E0043FA0CFE41EB0E01CCF1B6
:1038C000200E03FA0EFE10EB0E0051F10001CCF1B8
:1038D000200E29D412FA0EF201EB0451BDE810407B
:1038E00058BF7047401C1CBFB2F1004F7047002802
:1038F0000CBF491C20F00100704712EB020E43EB95
:10390000030218BF4FF0010E4EEA4202ACF1200C48
:10391000DCF11E0E54D943FA0CFE10EB0E0051F1EF
:10392000FF31CCF11E0ED5D50EF1010E12FA0EFEAE
:10393000404141EB010101EB445C5FEA5C5C10D962
:1039400010EBDE7001EB045138BFBEF1004FBDE853
:10395000104018BF704700280CBF491C20F0010020
:10396000704730D24FEAD42C11F5001124F40064D2
:103970001BD0B1FA81F20B3AA41AA41ED2F1200393
:10398000914030FA03F31943904001EBCC71002CC5
:1039900001EB0451BDE81040A8BF704701F1C041E0
:1039A0004FF0000001F000417047B0FA80F310FAC8
:1039B00003F100D110BDE41A173C4805C90AE4E739
:1039C00001EB045110BD491001EB0451BDE810405A
:1039D0004FEA300002E04FF0000170474A0008BF94
:1039E0000042F8D0B2F5001F28BF704701F0004137
:1039F0004FF0000070479EEA445F07D011EA5E0F67
:103A0000BDE8104004BF002100207047BDE8104011
:103A100070B5FFF7CBFE00BF40DFF63E83F00041FC
:103A2000104670470000E0FF43004FEAD30C4FEA16
:103A30003C0C43401FBF40070CF1605113F0FE4F98
:103A400070471CF0006F03D100200CF0004170475C
:103A50000CF0004343EA507010B540EACC0000F08F
:103A600028FA00BF000000924FEA0001FFF7ECBE09
:103A70004FF000414FF00000A1F500217047000019
:103A800090EA010F48BF81F0004100F1A082421A84
:103A90003CBF801A89184FEAD0524FF07F4C1CEA85
:103AA000410FA2EBD15318BF9CEA026F00F03B809C
:103AB0004FF0004C4CEA00204CEA012121FA03FCB3
:103AC00010EB0C0C1ED202F1FF325FEA1C2040EB1F
:103AD000C25038BF70471CF07F0F4FEA400C18BF30
:103AE000BCF17F4F38BF7047C3F12003994008BF36
:103AF00020F00100BCF17F4F38BF7047A0F1C040FB
:103B000000F01DBA4FEA3C00000A40EBC25028BF4B
:103B10001CF0FF0F4FEA400CE6D018BFBCF17F4FFE
:103B200038BF7047EAE79CEA026F05D010EA5C0FE5
:103B300008BF00F00040704710B500F0BAF900BFB0
:103B400064FBBE3E401058BFC0F14040491058BF12
:103B5000C1F140418142EFF3008070474FF47F0C88
:103B60001CEAD0121EBF1CEAD11392EA0C0F93EA92
:103B70000C0F00F0858090EA010F48BF42F480727C
:103B800040F4000C41F400002CF07F4120F07F4015
:103B900000B58142A2EB03020FF2081CACEB504EC1
:103BA000C0F100009EF800E04FEA4E0E00FB0EFC54
:103BB00038BF49004FEA2C1C02F5FA020CFB0EF349
:103BC0004FEACE1E4FEA112C4FEAC1210EEB635E85
:103BD00042EB22420EFB0CFC4FEA1C5300FB03118C
:103BE0004FEA112C4FEA01310EFB0CFC4FEADC4C82
:103BF00000FB0C11C14228BF09184CEB03335DF8E0
:103C000004EB10EB410143EBC250B2F57C0F38BF1F
:103C1000704729D512F0F00F1CBF00F1C04000F032
:103C200000407047008182838485868788898B8CD9
:103C30008D8E8F919293959697999A9C9D9FA0A215
:103C4000A3A5A7A8AAACAEB0B2B3B5B7B9BCBEC065
:103C5000C2C5C7C9CCCED1D4D7D9DCDFE2E6E9EC06
:103C6000F0F3F7FAFE0000004FEA400C0CF1807C04
:103C7000BCF17E4F28BF7047B0F1C04000F05FB983
:103C800090EA010F0CEAD11348BF42F480726245FA
:103C900038BF634507D213F47F0F16D080EA0100C6
:103CA00000F00040704710B500F003F9097EFC3EBB
:103CB00000F005B880EA010000F00040704780EA9B
:103CC000010000F0004000F03AB912F47F0F04BF89
:103CD0000248704780EA010000F031B90000C07F5F
:103CE00041000B0ED3F19E0208D950F400034FEAB5
:103CF000032323FA02F048BF4042704710B500F09A
:103D0000D8F800BF49922480002070476FF000422D
:103D100082EA20007047000010F0004148BF404296
:103D2000B0FA80F310FA03F2C3F19D030BD051EA0D
:103D3000C35101EB1220530638BF704700F1010058
:103D400008BF20F00100704750EA010C00F1138019
:103D50001CF5000F58BFBCF5000F01D48842704716
:103D600007D710F5000F58BF11F5000F15D4884282
:103D70007047894270471CF5000F04D5BCF5000F51
:103D8000F7D5814270474FF0807C1CEB400F38BF65
:103D90001CEB410F01D28142704710B500F089F849
:103DA000922449004FF000504FF08051FFF7CABEF7
:103DB0004FF47F0C1CEAD0121EBF1CEAD11392EA0A
:103DC0000C0F93EA0C0F00F0478090EA010F48BFF8
:103DD00042F480724FF0004C4CEA00204CEA012182
:103DE00002EB0302A0FB0113A2F50002002918BF99
:103DF00043F001035B0028BF4FEA330342EB22424A
:103E00005FEA132C4CEBC2502EBFBCEB436FB2F5F4
:103E10007C0F70474FEA036CBCF1004F08BF20F0E5
:103E20000100B2F57C0F38BF70470BD582F0FF025E
:103E300012F5803FC8BF704700F1C040D8BF00F006
:103E40000040704700F5000C5FEA4C0C48BF70471B
:103E5000B0F1C04000F073B890EA010F0CEAD11342
:103E600048BF42F48072624538BF634504D280EA9D
:103E7000010000F00040704710B500F01AF800BFD4
:103E80008900013E00F007B800F009B85FEA410C74
:103E90005FEA1C6C08D080EA010000F050B85FEACD
:103EA000400C5FEA1C6CF6D14FF00040A0F580009A
:103EB00070470EF1020E2EF0030E5EF8044B244202
:103EC00004D44FEA4102B2F17F4F11D84FEA4003C8
:103ED000B3F17F4F0CD80ED14FEAD07CB2F17F4FB7
:103EE0000CEB4C0C0CF1020C08BF4CEBD17C04E049
:103EF0004FF0080C01E04FEAD17C0CEB4C0324FAA4
:103F000003F404F00704B4F1040C06D20EEB840CA5
:103F1000BDE810404CF0010C6047DFE80CF00708EA
:103F200002024FF00040A0F5800010BD084642009C
:103F300018BFD2F1807288BF00F0004010BDFF2191
:103F400041EAD050C005704751EA000C00F11380DF
:103F50001CF5000F58BFBCF5000F01D4814270471B
:103F600007D711F5000F58BF10F5000F15D4814287
:103F70007047894270471CF5000F04D5BCF5000F4F
:103F8000F7D5884270474FF0807C1CEB410F38BF5B
:103F90001CEB400F01D28842704780EA010081EAA1
:103FA000000180EA0100FFF7F8BE80F0004090EACF
:103FB000010F7FF56CAD81F0004100F008B8000002
:103FC00090EA010F48BF81F000413FF560AD421A11
:103FD00004D882F00042A0EB020011444FEAD05214
:103FE0004FF07F4C1CEA410FA2EBD15318BF9CEA63
:103FF000026F4AD04FF0004C4CEA00204CEA0121FD
:1040000021FA03FCB0EB0C0C0FD412F0FE0F36D0EB
:104010005FEA4C001DD5001240EBC25038BF70471C
:104020001CF03F0F18BF70470BE0A2F101025FEADE
:104030001C2040EBC25038BF70471CF07F0F18BFE8
:104040007047C3F12003994014BF401E20F00100C7
:10405000704780084FEA122308BF7047B0FA80FC0F
:10406000A2EB0C02CCF1280C60FA0CF093EA122FB0
:1040700004BF00EBC25070474FEAC3707047130A89
:104080005FEADC1008BF7047F6E79CEA026F04D0D5
:1040900010EA5C0F08BF0020704710B5FFF709FF5A
:1040A00040DFF63E81F00040704700000000000055
:1040B00000000000000000000000000000F8000008
:1040C0000000000000333000000000100C06100C4F
:1040D0000600000000000000000040C07840C078EA
:1040E0004000043F04043F040400007088FC0830D2
:1040F0000000001820FF211E0000F008F000E0186A
:10410000000000211C031E211E0000F00888700022
:1041100000001E2123241927211010160E00000074
:1041200000000000000000000000000000E0180493
:104130000200000000071820400000020418E00000
:1041400000000040201807000000404080F0804040
:1041500040000202010F01020200000000F0000016
:1041600000000101011F010101000000000000002A
:10417000000080B07000000000000000000000009F
:104180000000000101010101010100000000000028
:1041900000000030300000000000000000008060DF
:1041A0001804006018060100000000E01008081064
:1041B000E000000F102020100F00001010F8000089
:1041C00000000020203F2020000000700808088820
:1041D00070000030282422213000003008888848F0
:1041E00030000018202020110E000000C02010F820
:1041F000000000070424243F240000F808888808F1
:1042000008000019212020110E0000E010888818F5
:104210000000000F112020110E0000380808C838D7
:1042200008000000003F00000000007088080888B7
:104230007000001C222121221C0000E01008081040
:10424000E0000000312222110F00000000C0C00079
:10425000000000000030300000000000008000007E
:10426000000000008060000000000000804020107E
:104270000800000102040810200040404040404077
:1042800040000404040404040400000810204080DA
:10429000000000201008040201000070480808080F
:1042A000F0000000003036010000C030C828E810DF
:1042B000E0000718272423140B000000C038E0009A
:1042C0000000203C23020227382008F888888870E4
:1042D0000000203F202020110E00C03008080808F0
:1042E0003800071820202010080008F808080810D7
:1042F000E000203F202020100F0008F88888E80800
:104300001000203F20202320180008F88888E808A3
:104310001000203F200003000000C03008080838CB
:10432000000007182020221E020008F808000008DC
:10433000F808203F210101213F20000808F8080863
:1043400000000020203F2020000000000808F8089E
:104350000800C08080807F00000008F888C028180E
:104360000800203F20012638200008F8080000003F
:104370000000203F20202020300008F8F800F8F846
:104380000800203F003F003F200008F830C0000830
:10439000F808203F200007183F00E0100808081028
:1043A000E0000F10202020100F0008F8080808086F
:1043B000F000203F210101010000E0100808081072
:1043C000E0000F18242438504F0008F888888888A7
:1043D0007000203F2000030C30200070880808087F
:1043E00038000038202121221C00180808F808088D
:1043F00018000000203F2000000008F80800000816
:10440000F808001F202020201F000878880000C81E
:104410003808000007380E010000F80800F800080E
:10442000F800033C0700073C030008186880806818
:10443000180820302C03032C30200838C800C83856
:1044400008000000203F2000000010080808C838BD
:1044500008002038262120201800000000FE02025B
:1044600002000000007F40404000000C30C000000F
:104470000000000000010638C00000020202FE0039
:104480000000004040407F000000000004020202E3
:104490000400000000000000000000000000000018
:1044A0000000808080808080808000020204000004
:1044B00000000000000000000000000080808080FC
:1044C00000000019242222223F2008F800808000EA
:1044D0000000003F112020110E00000000808080AD
:1044E0000000000E112020201100000000808088B4
:1044F000F800000E112020103F20000080808080F6
:104500000000001F222222221300008080F08888F1
:1045100088180020203F202000000000808080803C
:104520008000006B94949493600008F80080808071
:104530000000203F210000203F20008098980000CC
:1045400000000020203F20200000000000809898FC
:10455000000000C08080807F000008F8000080809C
:104560008000203F24022D302000000808F80000C1
:1045700000000020203F202000008080808080807C
:104580008000203F20003F20003F8080008080800E
:104590000000203F210000203F200000808080801C
:1045A0000000001F202020201F008080008080004D
:1045B000000080FFA12020110E00000000808080FC
:1045C0008000000E112020A0FF808080800080806D
:1045D000800020203F21200001000000808080809A
:1045E00080000033242424241900008080E080808F
:1045F00000000000001F20200000808000000080DC
:104600008000001F202020103F208080800000803C
:10461000808000010E30080601008080008000804C
:1046200080800F300C030C300F00008080008080F1
:1046300080000020312E0E3120008080800000801C
:10464000808080818E7018060100008080808080CC
:1046500080000021302C2221300000000000807CEE
:10466000020200000000003F404000000000FF0088
:10467000000000000000FF0000000002027C80003B
:1046800000000040403F000000000006010102025F
:10469000040400000000000000000000BC46000808
:1046A00000000020AC000000280100086847000856
:1046B000AC000020C4080000440100080000000015
:1046C00000000000000000000000000000000000EA
:1046D00000A24A04000000000000000001020304E0
:1046E0000607080900000000010203040102030498
:1046F0000607080902040608000000000000000088
:1047000000000000000000000000000000000000A9
:104710000000000000000000000000000000000099
:104720000000000000000000000000000000000089
:104730000000000000000000000000000000000079
:104740000000000000000000000000000000000069
:104750000000000000000000000000000000000059
:08476000000000000000000051
:04000005080000ED02
:00000001FF
