:020000040800F2
:10000000C0080020350200085D210008151E000808
:10001000AD2000086D1B0008173900080000000023
:10002000000000000000000000000000AD260008F5
:10003000E11C0008000000001D250008C127000881
:100040004F0200084F0200084F0200084F0200084C
:100050004F0200084F0200084F0200084F0200083C
:100060004F0200084F0200084F0200084F0200082C
:100070004F0200084F0200084F0200084F0200081C
:100080004F0200084F0200084F0200084F0200080C
:100090004F0200084F0200084F0200084F020008FC
:1000A0004F0200084F0200084F0200084F020008EC
:1000B000992B00083D2C0008592C00084F0200081D
:1000C0004F0200084F0200084F0200084F020008CC
:1000D0004F020008D53600084F0200084F02000802
:1000E0004F0200084F0200084F02000800F002F81B
:1000F00000F090F80AA090E8000C82448344AAF132
:100100000107DA4501D100F085F8AFF2090EBAE82F
:100110000F0013F0010F18BFFB1A43F0010318473B
:100120002057000040570000103A24BF78C878C11B
:10013000FAD8520724BF30C830C144BF04680C60ED
:10014000704700000023002400250026103A28BF35
:1001500078C1FBD8520728BF30C148BF0B60704739
:100160006E2900F08582702900F0D983662904F099
:10017000EC87652904F0E987672904F0E68761299F
:1001800004F0E58703681B0A28BF41F08001692954
:1001900000F09080642900F08D80752900F08A803D
:1001A0006F2900F06683782900F0A583E92900F023
:1001B0000183E42900F0FE82F52900F0FB82EF299B
:1001C00000F06383F82900F0A4830368DB0928BFEB
:1001D00041F08001632900F08987732900F08E8740
:1001E000E32900F09987F32900F09E8700207047EB
:1001F0001FB500F0EFFF04000020002104F0C6F955
:10020000401C60600020002104F0AAF9E0601FBDDE
:1002100010B510BD00F0B0FF1146FFF7E9FF03F085
:1002200099FC01F08DF803B4FFF7F2FF03BC03F073
:1002300038FC00000948804709480047FEE7FEE710
:10024000FEE7FEE7FEE7FEE7FEE7FEE7FEE7FEE786
:1002500004480549054A064B70470000C5270008B9
:10026000ED000008C0020020C0080020C0040020EB
:10027000C0040020704700001CB50C46064B7B44B0
:1002800069460090204600F00CFA044600206946BA
:1002900000F01AFA20461CBD470400000FB40449C0
:1002A00010B503AA029800F015FA10BC5DF814FB13
:1002B000300000202DE9F041064600241068752921
:1002C000314616A510D000F03FF9002802DA40426E
:1002D00013A507E031688A0701D512A502E0490796
:1002E00004D511A5012401E000F037F900210A220C
:1002F00006F1240709E0B0FBF2FCB0FBF2F302FBCD
:100300001C00303078541846491C0028F3D123468D
:100310002A463046BDE8F04100F051B90000000027
:100320002D0000002B000000200000002DE9F05FF0
:10033000894604464FF0000ADFF874B1FB44C0F868
:1003400020A02046E1688847002874D0252806D0E0
:10035000D4E901219047206A401C2062F1E7002681
:100360005F462046E16888472028054607DB312D97
:1003700005D2781910F8200C08B10643F1E7B00750
:1003800001D526F00406C4F81CA00027C4F818A064
:100390002A2D09D0284603F07DFB38B304EB8708EB
:1003A000303DC8F8185019E059F8041B204604EBFA
:1003B00087029161E1688847012F054618D1E069FD
:1003C000002820DA26F020061DE0D8F8180000EBFF
:1003D000800005EB40003038C8F818002046E1687E
:1003E0008847054603F056FB0028EED1012F0AD0BE
:1003F0002E2D08D12046E16888477F1C0546022F34
:1004000046F02006C4DBA069002803DA404246F02B
:100410000106A061F00701D026F010066C2D0BD06C
:10042000682D09D04C2D39D06A2D35D0742D35D09A
:100430007A2D33D016E038E0E1682F462046884711
:10044000B842054609D16C2F26D04FF48060E16890
:10045000064320468847054604E06C2F1AD04FF427
:10046000807006430DB3A5F14100192802D820354C
:1004700046F400664A462946204626604E46FFF767
:100480006FFE80B101280BD0F61D26F0070000F1A9
:10049000080956E74020E4E78020D8E70020D6E7A7
:1004A00006F104094DE7284652E7206ABDE8F09FAF
:1004B0000254000010B5431C02E010F8011B71B19A
:1004C0008107FAD14FF0013202C88C1A8C4314EA2A
:1004D000C211F9D0C01A0A0603D0C01E10BDC01A3E
:1004E00010BD0A0401D0801E10BD0902FCD0401EC0
:1004F00010BD704770477047704770B504468569F6
:100500000068C10601D5302600E02026C00707D0CC
:1005100070BDD4E9012130469047206A401C20621A
:100520006D1EF6D570BD70B5044685690078C007AC
:1005300007D170BDD4E9012120209047206A401CDA
:1005400020626D1EF6D570BD09684A0501D540B21E
:100550007047C905FCD500B2704709684A0501D546
:10056000C0B27047C905FCD580B2704770B50C4663
:100570000546012A05D02878800600D5EA690023BF
:1005800002E0012305E05B1C934202D2E05C0028FC
:10059000F9D1A869E618C01AA861286A1844286227
:1005A0002846FFF7AAFF04E0D5E9012114F8010B62
:1005B0009047B442F8D32846FFF7B5FF70BD2DE948
:1005C000F0470D4699469246044600F1240801681A
:1005D000880604D5E06921F01001216000E00120C7
:1005E000A84201DD471B00E00027A1697A1902EB50
:1005F0000900081AA0612078C00602D42046FFF73F
:100600007CFF002608E0D4E901211AF80600904793
:10061000206A401C761C20624E45F4DB2078C00620
:100620000AD52046FFF769FF06E0D4E90121302012
:100630009047206A401C2062381EA7F10107F4DCB5
:1006400007E0D4E9012118F805009047206A401C12
:100650002062281EA5F10105F3DC2046FFF763FFA9
:100660002078000602D50220BDE8F0870120FBE7D4
:1006700011680268006A530501D508700AE0D305C5
:1006800001D5088006E0130603D5C217C1E90002B0
:1006900000E008600120704701694A1C0261087887
:1006A000704700B58FB0CDE90131002105910549B2
:1006B0007944CDE9031011466846FFF737FE0FB0C5
:1006C00000BD0000E5FFFFFF0A6802F8010B0A60A9
:1006D00070470000074B70B50D467B44FFF7E1FF04
:1006E0000446284600F024FD10B14FF0FF3070BDE5
:1006F000204670BD5B3400002DE9FF5F15468A4639
:100700000446DFF8AC80F8440027D8E900103E46E4
:10071000CDE9001010E03AF816106A4602A800F081
:100720000BFD411C07D02178890603D5E2693918F1
:1007300091420DD80744761C2078800602D5E069E6
:10074000B84205DDAE42E6DB3AF816000028E2D1F9
:10075000A069C01BA0612046FFF7CFFED8E90010BA
:10076000CDE90010002017E03AF818106A4602A8F8
:1007700000F0E2FCB0F1FF3F81460BD000250DF107
:10078000080B05E0D4E901211BF8050090476D1C1A
:100790004D45F7D308F10100B0428046E4DB206A02
:1007A000384420622046FFF7BEFEBDE8FF9F0000F0
:1007B0004A5000002DE9F0418046D21D22F0070288
:1007C0000025D2E90002F52915A614D0011E72F108
:1007D000000106DA0023D0EB030063EB020211A64E
:1007E00008E0D8F800108B0701D50FA602E04907F2
:1007F00001D50EA601251146002408F1240704E0C6
:1008000000F098F830323A55641C50EA0102F7D1F2
:100810002B46324621464046BDE8F041FFF7CFBEA9
:10082000000000002D0000002B0000002000000050
:1008300030B4002100F1240408E002F00705D208DA
:10084000303542EA4372DB086554491C52EA03051D
:10085000F3D10468002310A2250707D5A40600D40D
:1008600021B1C46901230DA2641EC46130BCFFF72D
:10087000A6BE10B5044621461068FFF76EFE02467C
:100880002046BDE810400023D2E7D21D22F0070128
:10089000D1E90023CCE70000000000003000000098
:1008A000F0B40D460188090502D5214C7C4402E0D4
:1008B0001F4C7C440E34002100F1240608E002F0B5
:1008C0000F071209E75D42EA03721B097754491CBE
:1008D00052EA0307F3D102780023120704D5702DE2
:1008E00006D009B1022311342246F0BCFFF767BEDF
:1008F00001231034F8E770B504460D462146106810
:10090000FFF72BFE024629462046BDE87040002333
:10091000C6E7D21D22F00703D3E90023C0E703682E
:10092000126843F0200303600823C3610023B7E784
:10093000AC4E000030B5B0F10A024FEA900E71F1F2
:1009400000034EEA817EB0EB0E0061EB91014FEAAD
:10095000101E4EEA017E10EB0E0041EB11114FEA22
:10096000102E4EEA016E10EB0E0041EB11214FEA02
:10097000104E4EEA014E10EB0E0041EB11414018B3
:1009800041F100014FEAD00040EA41704FEAD10145
:1009900010EB80054FEA810444EA907444EB0104B3
:1009A0006D1944EB0404521BA3414FF0000348BFF0
:1009B0000A3200D530BD401C41F1000130BD704706
:1009C0002DE9FF4F0C461E464FF0FF378BB0D2E9A2
:1009D0000001DDF860800A908A46C1F30A5505B926
:1009E0003D46002108464FF00000BAF1000F00F428
:1009F000400005DA00EB80004FF4400101EA5000AE
:100A00004FEA9059B9F1010F00DDB9460A9850EA52
:100A10004A000ED044F61050A5F2FF3545432F147E
:100A2000B8F1000F1ED07542291E1EDDC9F100026B
:100A30001CE0B8F1010F4FF0000001D0302103E0BD
:100A4000F24305E02154401CB042FBDB304600225B
:100A5000002121540B99C1F80880C1E900200FB092
:100A6000BDE8F08FBD1B6D1CDEE74A4600DA694227
:100A700006A800F0F3FB06AB93E8070003AB83E89E
:100A8000070050460A9900F0A9FC8DE80700A0F580
:100A900000501F3800900398002D0ADD42F21F011C
:100AA0004A460844002303A90390684600F012FF59
:100AB00009E0A0F500504A461F38002303A903901F
:100AC000684600F01CFF8DE807000004000C03D00E
:100AD0004FF0FF30410800E01046B8F1000F03D09E
:100AE0000022009215461EE0751E05D4FFF722FF76
:100AF000303262556D1EF9D5B3460122084302D04B
:100B000000227F1C04E02078302801D100227F1EC3
:100B1000002A099784D01DE0112D07DAFFF70AFF9C
:100B2000303262556D1C50EA0102F5D1084302D003
:100B30000098C8B10EE00021681E05E0235C625CED
:100B400063542254401E491C8142F7DBAB46A81B6C
:100B5000401E0990002004F80B000B98099AC0F879
:100B60000880C0E9002B7AE711264FF0000857E70C
:100B70002DE9F04F88460446D21D22F0070191B0BE
:100B8000D1E90001CDE90A0102F070FF02460B989D
:100B9000C00F01D02D2007E02068810701D52B2050
:100BA00002E0202101EAC000032A099001D0072AAF
:100BB00005DB03464146204600F010FB0BE12078A0
:100BC000800601D5E06900E00620B8F1650F814696
:100BD00006D0B8F1660F18D0B8F1670F70D131E0C8
:100BE0000020B9F1110F009001DB112301E009F1A0
:100BF00001030AAA01A90CA8FFF7E2FEDDE90C70C7
:100C0000002609F10105834647E001204B4600908C
:100C10004FF000470AAA01A90CA8FFF7D1FEDDE9B1
:100C20000DB00C995D46002610B909F101000D18B0
:100C3000B9EB050003D4C0F1FF3609F10105A5EBBE
:100C400009002BE0B9F1010F01DA4FF00109002092
:100C5000B9F1110F0090484601DD112300E0034671
:100C60000AAA01A90CA8FFF7ABFEDDE90C704D46FE
:100C700000268346207800070AD4AB4500DA5D469B
:100C800001A8012D04DD411911F8011C302907D0FC
:100C90004F4502DA17F1040F04DA012082460FE013
:100CA0006D1EEEE7002F02DCED1B3E4403E0781CD6
:100CB000A84200DD7D1CB81B00F1010A4FF000477F
:100CC0002078000703D4AA4501DB4FF0FF3A00214A
:100CD000B7F1004F0DF143088DF8431024D00220E6
:100CE0002B23002F01DA7F422D230A21021EA0F1BF
:100CF000010000DC5FB197FBF1FC97FBF1F201FB17
:100D00001C7C17460CF1300C08F801CDEEE7A8F179
:100D1000010003702188090501D5452100E0652106
:100D2000A0F1010800F8011C09980FA9A1EB080720
:100D3000FF1D00B10120411901EBEA70A16938449F
:100D4000081A401EA0612078C00602D42046FFF792
:100D5000D4FB099828B1D4E901219047206A401CAE
:100D600020622078C00622D52046FFF7C6FB1EE091
:100D7000002E04DBB34502DD01A8805D00E03020D9
:100D8000D4E901219047206A401C2062761CAAF118
:100D900001005FEA000A0AD100F01CFAC06801688D
:100DA000405CD4E901219047206A401C2062281E43
:100DB000A5F10105DCDC07E0D4E9012118F8010BFD
:100DC0009047206A401C2062381EA7F10107F3DC1F
:100DD0002046FFF7A8FB032011B041E62DE9F04FB4
:100DE00004460D46D21D22F0070089B0D0E90097D5
:100DF0004846394602F03AFE0246F80F01D02D234C
:100E000007E02068810701D52B2302E0202101EAB9
:100E1000C0038DF820300BB1012000E00020032A30
:100E2000824601D0072A04DB2946204600F0D6F985
:100E30003FE12078800601D40D2500E0E569C7F385
:100E40000A560D2D49DA00214FEA175B08464FF08C
:100E50000000002F00F4400007DA00EB80004FF4A0
:100E6000400100EBD07001EA60008115012901DD2D
:100E70004FF0FF3100224FEA850CBCF1180F06D36A
:100E80001346ACF118004FF08052C24003E04FF41B
:100E9000801323FA0CF30CF10C0CBCF1200F04D3DB
:100EA000ACF1200C09FA0CF001E007FA0CF0002973
:100EB0004FF0004801DD18B90FE00ED140450CD3CA
:100EC00019EB02095F4121B9404502D19F4329EA4C
:100ED0000209BBEB175F00D0761C2088000502D505
:100EE0007B48784402E07A487844193808AA3023CD
:100EF00002F80A30037C0AF10101002E0AF1020A0D
:100F000053546A4602DC4FF0300101E04FF03101EA
:100F10004FF001088DF8001002D0A6F2FF3603E072
:100F200059EA470100D06B4E002D02DC21780907F9
:100F300004D54FF002082E218DF80110C44600217F
:100F40000BE0C7F303433F01C35C491C6D1E02F86D
:100F50000830052908F1010801DA002DF1DC002133
:100F60000CE000EB1973491C1B786D1E082902F870
:100F700008304FEA091908F1010801DA002DF0DC08
:100F800021688B0602D516E0A8F10108E04505DDD1
:100F900002EB080313F8013C302BF5D0B8F1000F39
:100FA00009DD02EB080313F8013C2E2B03D10907DE
:100FB00001D4A8F10108002D05DD3E2102F808103A
:100FC0006D1E08F10108407C002E02F8080008F1AF
:100FD000010804DA2D20764202F8080002E02B20F6
:100FE00002F808000A214FF47A70864208F10108DD
:100FF0000BDB96FBF0F3303302F8083096FBF0F38E
:1010000008F1010800FB136601E0642E0CDB64208C
:1010100096FBF0F3303302F8083096FBF0F308F15A
:10102000010800FB136601E00A2E06DB96FBF1F0D7
:10103000303002F8080008F1010896FBF1F001FBDE
:101040001060303002F80800A16908F1010808EBCF
:10105000050202EB0A00081AA0612078C00602D43B
:101060002046FFF74AFA216A08AE01EB0A00206227
:1010700004E0D4E9012116F8010B9047BAF1010A06
:10108000F7D22078C00602D52046FFF736FA6E4622
:1010900009E016F8010B3E280FD0D4E90121904752
:1010A000206A401C2062B8F10108F2D22046FFF706
:1010B0003AFA09B00320BDE8F08F206A2844206284
:1010C00003E0D4E90121302090476D1EEBD3F8E70F
:1010D000B148000002FCFFFF10B5436913B1AFF344
:1010E000008001E0FFF742FA012010BD127800F104
:1010F00024010A7000224A700122EDE711684FF0C6
:10110000FF32E9E710B5436913B1AFF3008001E0A6
:10111000FFF7F2FA012010BD128800F12401828449
:101120000022C2840122EDE711684FF0FF32E9E7A7
:10113000007B00F08000704770B516460C460546EF
:1011400000F040F8036893F80101012806D0FF2C55
:101150000FD8185D68B101202C7070BDD3F807015D
:101160003246214603F2071303442846BDE8704087
:1011700018474FF0FF3070BD754600F0EBF8AE46F3
:1011800005006946534620F00700854618B020B593
:10119000FFF75EF8BDE820404FF000064FF0000773
:1011A0004FF000084FF0000B21F00701AC46ACE80F
:1011B000C009ACE8C009ACE8C009ACE8C0098D467C
:1011C0007047000010B500F005F8001D10BD00BF0D
:1011D000BD330000004870477C0200202DE9F0413B
:1011E0001F46044603260168072A01F4006004DB59
:1011F00008B116A505E016A503E008B115A500E0A5
:1012000015A521F010002060A069C01EA0610FB1DB
:10121000401EA0612046FFF770F94FB1D4E90121CB
:1012200038469047206A401C2062C01C206206E0BD
:10123000206AFAE7D4E9012115F8010B9047761EE0
:10124000F8D22046FFF76FF9BDE8F0814E414E001D
:101250006E616E00494E4600696E66002DE9F047EA
:10126000814616468AB0354878440DC88DE80D0091
:1012700032487844801C03AC0DC884E80D0041F668
:101280009B300844372190FBF1F290FBF1F5A5F17A
:10129000800501FB12041B3C02D56442012000E0E2
:1012A0000020DFF898A080460027FA44AAF1BE0A81
:1012B0000EE0E0070AD03246684607EB47010123FB
:1012C0000AEB810100F01BFB8DE8070064107F1C16
:1012D000002CEED1194F7F44AE3F19E0E80715D03E
:1012E00007EB04100DF1180A90E80E008AE80E00D2
:1012F000C068F04201D1981908903246012306A92E
:1013000003A800F0FCFA03AB83E807006D10641C2F
:10131000002DE3D14FF0010332466946B8F1000FCA
:1013200003A802D000F0D6FA01E000F0E8FAC9E91B
:101330000001C9F808200AB0BDE8F087BC450000EC
:1013400010B50446AFF300802046BDE81040FEF71C
:101350006ABF0000004870475C0200204FF0013C6B
:1013600050F8042B51F8043B9A4221D1A2EB0C0314
:10137000934313EACC1317D150F8042B51F8043BD4
:101380009A4215D1A2EB0C03934313EACC130BD171
:1013900050F8042B51F8043B9A4209D1A2EB0C03FC
:1013A000934313EACC13DBD04FF00000704700BF2B
:1013B000D01A01BAB1FA81F101F0180122FA01F054
:1013C000CB40C1F12001DBB2C0B2C01A2CFA01F34C
:1013D000D11A914311EAC311E6D170475FEA400C7C
:1013E00008BF91F0000F4FEA8C234FEAC12243EA75
:1013F00051514FEA1C5018BF00F5F0404FEA300041
:1014000018BF41F000415FEA6C5C00F02980BCF13C
:10141000FF3F08BF40F080407047130C06BF120426
:101420004FF0100C4FF0000C130E04BF12020CF121
:10143000080C130F04BF12010CF1040C930F04BF2E
:1014400092000CF1020CD30F04BF52000CF1010CFE
:1014500011464FF00002A0F11F00A0EB0C007047F6
:1014600011F0004F08BF704731F000413FF4D5AF95
:101470000B0C06BF09044FF0100C4FF0000C0B0EC4
:1014800004BF09020CF1080C0B0F04BF09010CF199
:10149000040C8B0F04BF89000CF1020CCB0F04BFAE
:1014A00049000CF1010CCCF12003A0EB0C0022FA56
:1014B00003F302FA0CF241EA030100F10100704764
:1014C00020F07F4C80EA030023F07F47ACEB07035A
:1014D00003F57C5300F0004003F1FF032DE9804940
:1014E0004FEA154B09B44FEA144325EA0B4E24EAA0
:1014F00003480FF2042606EB132749083E785FEAFB
:10150000320203FB0667C7F5000707FB06F64FEA42
:1015100054374FEAD64606F1020607FB066CCCF1BB
:10152000005C4FEA1C472CEA074C07FB06F40CFB57
:1015300006F504EB15464FEA961634BF00204FF02F
:1015400000404FEAD13706FB07FC4FEA1C4C0CFB6E
:101550000BF7D21B03FB0CF761EB07010CFB0EF73B
:10156000B0EB074072EB17420CFB08F734BFA2EB5D
:101570000742B2EB074261EB17414FEA0C444FEAD6
:10158000910706FB07FC4FEA1C4C0CFB0BF7B0EB7A
:10159000C74072EB573203FB0CF734BFA2EBC742D4
:1015A000B2EBC74261EB57310CFB0EF7B0EBC70053
:1015B00072EB57720CFB08F734BFA2EBC702B2EB19
:1015C000C70261EB5771039F4FEA816141EA9211B3
:1015D00004EBCC044FEAD1374FEA826206FB07FCEA
:1015E00042EA90124FEA80604FEA1C4C0CFB0BF76A
:1015F000D21B03FB0CF761EB07010CFB0EF7B0EB02
:10160000074072EB17420CFB08F734BFA2EB07420E
:10161000B2EB074261EB17414FEA8C554FEA910755
:1016200004EB9C2406FB07FC4FEA1C4C0CFB0BF75D
:10163000B0EBC74072EB573203FB0CF734BFA2EBA1
:10164000C742B2EBC74261EB57310CFB0EF7B0EB70
:10165000C70072EB57720CFB08F734BFA2EBC7024E
:10166000B2EBC70261EB577115EB4C254FEA816174
:1016700041EA92114FEA82624FEAD13742EA901270
:1016800006FB07FC44F100044FEA80604FEA1C4C63
:101690000CFB0BF7D21B03FB0CF761EB07010CFBF8
:1016A0000EF7B0EB074072EB17420CFB08F734BFA4
:1016B000A2EB0742B2EB074261EB174115EB1C1599
:1016C0004FEA813141EA92414FEA823242EA904246
:1016D0004FEA80304FEA0C7644F1000448EA0343B5
:1016E0004EEA0B484FF0000EB2EB080C71EB03070B
:1016F00024BF624639464EEB0E0E4FF0000B001829
:10170000524149414BEB0B0BB2EB080C71EB030759
:101710007BF1000B24BF624639464EEB0E0E4FF0B4
:10172000000B0018524149414BEB0B0BB2EB080C7C
:1017300071EB03077BF1000B24BF624639464EEB89
:101740000E0E51EA020718BF46F0010616EB0E76A0
:1017500055F1000254F1000103D5BDE88901BDE84F
:101760000088BDE88901BDE80048B619524141EB47
:101770000101A3F10103704780807F7E7D7C7B7A2D
:101780007978777676757473727171706F6E6E6D2D
:101790006C6C6B6A6A6968686766666564646363D3
:1017A00062616160605F5F5E5E5D5D5C5C5B5B5A59
:1017B0005A595958585757565655555554545353C6
:1017C00052525251515050504F4F4F4E4E4D4D4D21
:1017D0004C4C4C4B4B4B4A4A4A494949484848476C
:1017E00047474746464645454544444444434343AA
:1017F0004342424242414141002B9C4630D4770053
:101800002BD01CB54FEA370703B44FF010004FF050
:101810001001BAF1000F06D0BCF1000FDCBF40F0A0
:10182000080040F008014FF000000FBCBDE8104078
:101830000BF1010BBBF1010F08BF5FEA170722BFD5
:1018400012F1010211F101014FF0004143F10003D7
:1018500000F0004043EA00007047F9D35708D0E792
:1018600046EA064613F1400F4FEA16461FDD13F114
:10187000200FDFBF16430A46002120335B42BED053
:10188000C3F1200746EA064602FA07F74FEA164672
:1018900046EA0706C3F1200722FA03F201FA07F726
:1018A00021FA03F14FF0000342EA0702A7E746EAF4
:1018B000020646EA06464FEA164646EA0106BCBF5D
:1018C00046EA0646360C4FF000034FF000024FF098
:1018D000000194E72DE9804C9A46934670B491E854
:1018E000380007C831EA400C48BF34EA430C03D53E
:1018F000FFF7E6FDFFF780FFF0BCBDE8008C2DE9A7
:10190000804C9A46934670B491E8380007C810F0AE
:10191000804F08BF13F0804F03D100F005F8FFF7A8
:101920006BFFF0BCBDE8008C20F07F4780EA03002D
:1019300023F07F4C07EB0C03A3F57C5300F0004031
:10194000A3F1FE0392F0000F00F0B38095F0000FBA
:1019500000F077802DE901494FEA11404FEA144623
:1019600021EA004800FB06FC24EA064708FB06F6CD
:1019700007FB08F800FB07F718EB06484CEB164C82
:101980004FEA124B18EB07484FEA15464CEB17404D
:1019900022EA0B4E0BFB06FC25EA06470EFB06F679
:1019A00007FB0EFE0BFB07F71EEB064E4CEB164C2F
:1019B0004FF000061EEB074E4CEB174B18EB0B08D5
:1019C00040F1000018EB0E0B58EB000840F100004E
:1019D0008F1A4FF000013CBFC943661B14BFB5EB23
:1019E000040C00213CBFC943F61B4FEA17444EEAE2
:1019F0008E0E27EA04454FEA1C4704FB07622CEAD7
:101A0000074C05FB07F70CFB05F604FB0CFC16EB7B
:101A1000074642EB174216EB0C4642EB1C421BEB0F
:101A2000060658EB0202414146EA9E0601D5BDE892
:101A30000189B619524141EB0101A3F10103BDE84F
:101A400001894FEA14454FEA114724EA054621EA85
:101A5000074C05FB07F406FB07F70CFB06F105FB3B
:101A60000CFC11EB074144EB17444FEA124711EB12
:101A70000C4144EB1C4422EA074C05FB07F206FB31
:101A800007F70CFB06F605FB0CFC16EB074642EBD2
:101A9000174216EB0C4642EB1C456A1854F1000144
:101AA00048BF7047B619524141EB0101A3F1010350
:101AB000704795F0000F37D04FEA11424FEA1447B4
:101AC00021EA024624EA074C02FB07F106FB07F76E
:101AD0000CFB06F402FB0CFC14EB074441EB174132
:101AE0004FEA154714EB0C4441EB1C4125EA074C27
:101AF00002FB07F506FB07F70CFB06F602FB0CFCE6
:101B000016EB074645EB174516EB0C4645EB1C421A
:101B1000121951F1000148BF7047B619524141EB0B
:101B20000101A3F1010370474FEA14454FEA114741
:101B300024EA054621EA074C05FB07F106FB07F7F7
:101B40000CFB06F24FF0000605FB0CFC12EB074203
:101B500041EB174112EB0C4251EB1C4148BF70475F
:101B6000921841EB0101A3F10103704700BFFEE7AA
:101B700010B510220421024800F042FA10BD000006
:101B8000001401402DE9F0410446002033498870DB
:101B900048700120C870002008718871C8710872EF
:101BA0002F490880488048608860D4B92D482E4964
:101BB000C860C86802F088FF07464FF066322B4BBA
:101BC00002F084FE054602F0F7FC2749C8600120B8
:101BD00000F084FA002000F0A1FA01201F4988716A
:101BE00038E0012C1AD122481F49C860C86802F0A9
:101BF0006BFF07464FF066321C4B02F067FE05464E
:101C000002F0DAFC1849C860002000F067FA0120F1
:101C100000F084FA01201149C8711BE0022C19D18F
:101C200013481149C860C86802F04EFF07464FF0DC
:101C300066320E4B02F04AFE054602F0BDFC0A4930
:101C4000C860002000F04AFA012000F067FA012085
:101C50000249087202F0F8FBBDE8F0812002002082
:101C6000F4010020AB5A44C42C0200206666EE3F0B
:101C7000AB5A44442DE9F04782460020124988704F
:101C8000012048700020C870087110490880488001
:101C9000486088600846C0F820A0504602F014FF53
:101CA00006460B4A0B4B02F0B9FC044600220A4BD5
:101CB00002F00CFE804602F07FFC0849C86002F08A
:101CC000C3FBBDE8F087000020020020F4010020E3
:101CD000BE9F1A2FDD242E40004090402C02002091
:101CE00070472DE9F0410246002500260020002320
:101CF0000024002791F803C00CF00F0591F803C0F1
:101D00000CF0100CBCF1000F03D091F802C04CEAAB
:101D1000050591F800C0BCF1000F31D01468002017
:101D20002BE04FF0010C0CFA00F3B1F800C00CEA04
:101D300003069E4220D183004FF00F0C0CFA03F7EC
:101D4000BC4305FA03FC4CEA040491F803C0BCF15F
:101D5000280F06D14FF0010C0CFA00FCC2F814C099
:101D60000AE091F803C0BCF1480F05D14FF0010C17
:101D70000CFA00FCC2F810C0401C0828D1D3146033
:101D8000B1F800C0BCF1FF0F34DD546800202EE034
:101D900000F1080C4FF0010808FA0CF3B1F800C08C
:101DA0000CEA03069E4221D183004FF00F0C0CFA7F
:101DB00003F7BC4305FA03FC4CEA040491F803C0A2
:101DC000BCF1280F05D100F1080C08FA0CF8C2F894
:101DD000148091F803C0BCF1480F07D100F1080C42
:101DE0004FF0010808FA0CF8C2F81080401C0828CF
:101DF000CED35460BDE8F0810246002093680B40CA
:101E00000BB1012000E0002070470AB1016100E041
:101E10004161704700BFFEE710B5002401211E4854
:101E2000FFF7EAFF70B9142001F060FE00BF012146
:101E30001948FFF7E1FF0028F9D0142001F056FE01
:101E4000012426E002211448FFF7D6FF70B91420C0
:101E500001F04CFE00BF02210F48FFF7CDFF002824
:101E6000F9D0142001F042FE022412E004210A48B5
:101E7000FFF7C2FF68B9142001F038FE00BF04214B
:101E80000548FFF7B9FF0028F9D0142001F02EFE15
:101E90000324204610BD00000010014010B5482268
:101EA0000721024800F0ACF810BD0000001001400E
:101EB00010B510224FF4E051014800F0A1F810BD18
:101EC00000100140002801DD024600E042421046B9
:101ED000002901DD0A4600E04A421146B0F57A6F5A
:101EE00002DD4FF47A6200E002461046B1F57A6FE7
:101EF00002DD4FF47A6200E00A461146024B188078
:101F0000014B0C3B19807047402C014010B5002458
:101F10000B4840680B490861086900F029F804463D
:101F20000949204603F060F801D2074C05E0074953
:101F3000204602F059FF00D2044C204610BD00009C
:101F4000F40100202C0200200000DC420000DCC272
:101F500010B5FFF7DBFF0549486201F0DFFC0446DE
:101F600002F00EFF0149C86210BD00002C020020E3
:101F70002DE9F04104461D48C168204603F065F88C
:101F80001B490860084601681A48006802F0C8FD4D
:101F900018490860184801681548006803F060F89F
:101FA000074612488168384602F052FF05460F493D
:101FB00048681049096802F04BFF07460B4908685A
:101FC0000B49096802F044FF8046394602F0A8FD3B
:101FD0000646294602F0A4FD084908600448006846
:101FE0000549086005480068BDE8F0812C02002022
:101FF000440000204C000020480000205000002039
:10200000F8B504460E461546ADF800608DF803504D
:1020100003208DF802001E48844204D101210420CF
:1020200000F09EFA2EE01B48844204D101210820D2
:1020300000F096FA26E01848844204D101211020CD
:1020400000F08EFA1EE01548844204D101212020C0
:1020500000F086FA16E01248844204D101214020A3
:1020600000F07EFA0EE00F48844204D10121802066
:1020700000F076FA06E00C48844203D10121801575
:1020800000F06EFA69462046FFF72BFEF8BD00000F
:1020900000080140000C0140001001400014014004
:1020A00000180140001C01400020014000BFFEE775
:1020B00008B50121082000F053FA4FF47040ADF844
:1020C000000010208DF8030003208DF802006946FF
:1020D0000148FFF706FE08BD000C014038B9002199
:1020E0000C4A116001210C4AC2F8B41111E0012818
:1020F00007D10121074A11600021074AC2F8B41133
:1021000007E0022805D10021024A1160024AC2F804
:10211000B4117047B08121420080214238B90121B9
:102120000C4A116000210C4AC2F8B81111E00128D4
:1021300007D10021074A11600121074AC2F8B811EE
:1021400007E0022805D10021024A1160024AC2F8C4
:10215000B8117047BC81214200802142704710B500
:102160004FF4A06000F03AF810BD000070B50021F7
:1021700000230F22C47804B3154C246804F4E064EF
:10218000C4F5E064210AC1F10403CA40447804FAAA
:1021900003F184781440214309010E4C0678A155BF
:1021A000047804F01F050124AC4005786D11AD00E2
:1021B00005F1E025C5F8004109E0047804F01F05A9
:1021C0000124AC40044D0678761145F8264070BDD8
:1021D0000CED00E000E400E080E100E00249014392
:1021E000024A1160704700000000FA050CED00E0A3
:1021F00070B500240EE00021204600F0EAF800252A
:1022000004E0002000F062F9681CC5B2802DF8DB04
:10221000601CC4B2082CEEDB70BD000008B50121C3
:10222000102000F09DF914208DF8030003208DF894
:1022300002002020ADF8000069460A48FFF751FD72
:102240001020ADF8000069460648FFF74AFD01225C
:1022500020210448FFF7D9FD012210210148FFF792
:10226000D4FD08BD0010014070B50546002413E000
:102270008020204100EA050210210E48FFF7C5FD2D
:10228000012220210B48FFF7C0FD00222021094830
:10229000FFF7BBFD601CC4B2082CE9DB0122202142
:1022A0000448FFF7B2FD002220210248FFF7ADFDF0
:1022B00070BD00000010014010B501221021094836
:1022C000FFF7A3FD012220210648FFF79EFD002213
:1022D00010210448FFF799FD002220210148FFF753
:1022E00094FD10BD0010014010B5002210210748D8
:1022F000FFF78BFD012220210448FFF786FD012214
:1023000010210248FFF781FD10BD000000100140C0
:1023100070B5002406E0002500E06D1CB5F57A7F5D
:10232000FBD3641CB4F57A7FF5D3FFF777FFAE20BB
:1023300000F0BCF8D52000F0B9F8802000F0B6F825
:10234000A82000F0B3F83F2000F0B0F8D32000F050
:10235000ADF8002000F0AAF8402000F0A7F8A12076
:1023600000F0A4F8C82000F0A1F8DA2000F09EF8F0
:10237000122000F09BF8812000F098F8CF2000F0A8
:1023800095F8D92000F092F8F12000F08FF8DB20CA
:1023900000F08CF8302000F089F8A42000F086F8D6
:1023A000A62000F083F88D2000F080F8142000F0C3
:1023B0007DF8AF2000F07AF8FFF71AFF70BD10B576
:1023C0000246012000E050430B1EA1F10101FAD1A9
:1023D00010BD70B505460C4645F0B00000F066F83B
:1023E000102141EA141000F061F804F00F0000F031
:1023F0005DF870BD2DE9F04105460E461746721E88
:10240000D206110E6A1E5206100EFFF7E2FF0024DC
:1024100009E0A7F12001134A02EB0111085D00F069
:1024200055F8601CC4B2082CF3DB721ED206110EE4
:102430006A1E012303EB4202D0B2FFF7CAFF002459
:102440000BE0A7F12001074A02EB011204F1080199
:10245000505C00F03BF8601CC4B2082CF1DBBDE816
:10246000F0810000525100082DE9F04780460E46E9
:1024700017461D46002415E0281B411E0A20FFF7C1
:102480009EFFB7FBF0F00A21B0FBF1F201FB120056
:1024900000F130093019C1B24A464046FFF7AAFFA1
:1024A000601CC4B2AC42E7DBBDE8F08710B504465F
:1024B000FFF702FF7820FFF7D7FE0020FFF7D4FEDA
:1024C0002046FFF7D1FEFFF70FFF10BD10B5044601
:1024D000FFF7F2FE7820FFF7C7FE4020FFF7C4FEAB
:1024E0002046FFF7C1FEFFF7FFFE10BD4FF0804012
:1024F00007490860002048604FF080408860054828
:1025000088610548C8614FF082400862704700004A
:102510002C02002000000C429A99193E70470000DE
:1025200029B1064AD2690243044BDA6104E0034A46
:10253000D2698243014BDA6170470000001002400B
:1025400029B1064A12690243044B1A6104E0034AA6
:1025500012698243014B1A6170470000001002406B
:1025600029B1064A92690243044B9A6104E0034A86
:1025700092698243014B9A6170470000001002404B
:1025800029B1064AD2680243044BDA6004E0034AE8
:10259000D2688243014BDA607047000000100240AD
:1025A00030B500210022002400232D4D6D6805F078
:1025B0000C0121B1042905D0082923D105E0294DBA
:1025C000056022E0274D05601FE0254D6D6805F48C
:1025D0007012234D6D6805F48034022505EB92429C
:1025E0001CB9214D554305600BE01D4D6D6805F488
:1025F00000351DB11C4D5543056002E0194D554392
:10260000056002E0174D056000BF00BF144D6D6806
:1026100005F0F0010909154D6B5C0568DD4045606A
:102620000F4D6D6805F4E061090A104D6B5C45685B
:10263000DD4085600A4D6D6805F46051C90A0B4D97
:102640006B5C4568DD40C560054D6D6805F4404133
:10265000890B074D6B5CC568B5FBF3F5056130BDB3
:102660000010024000127A0000093D00180000200E
:10267000280000200146022902D0032910D108E0D9
:102680004FF08042928C10B200224FF080439A8427
:1026900008E0054A128810B20022034B1A8001E0BC
:1026A000002000BF00BF704724040040704710B5F1
:1026B00000F002F810BD00000CB500200190009061
:1026C0003348006840F480303149086000BF30482A
:1026D000006800F4003000900198401C01900098C0
:1026E00018B90198B0F5A06FF1D12948006800F43D
:1026F000003010B10120009001E00020009000980F
:10270000012843D12348006840F0100021490860A7
:102710000846006820F0030008600846006840F0A2
:10272000020008601A484068194948600846406835
:1027300048600846406840F4806048600846406849
:1027400020F47C1048600846406840F4E810486077
:102750000846006840F08070086000BF0C480068C0
:1027600000F000700028F9D00948406820F003000C
:10277000074948600846406840F00200486000BFD2
:102780000348406800F00C000828F9D10CBD000097
:102790000010024000200240042808D14FF0E02140
:1027A000096941F004014FF0E022116107E04FF0A8
:1027B000E021096921F004014FF0E0221161704726
:1027C0007047000010B51348006840F0010011493F
:1027D000086008464068104908400E4948600846AD
:1027E00000680E4908400B4908600846006820F45C
:1027F000802008600846406820F4FE0048604FF4DE
:102800001F008860FFF753FF4FF000600449086025
:1028100010BD0000001002400000FFF8FFFFF6FEB0
:1028200008ED00E0F0B50C46154600220021068CAC
:102830004FF6FE773E400684028B018C4FF60C76F5
:1028400032407E1C06EA03162E433243104EB0423D
:102850000ED0104EB0420BD0B0F1804F08D00E4ECB
:10286000B04205D00D4EB04202D00D4EB04206D15E
:102870004FF6FD76314044F00106314305E04FF656
:10288000F576314044F00106314302830184F0BD06
:10289000002C0140003401400004004000080040CA
:1028A000000C0040F0B50C46154600220021002621
:1028B000078C4FF6EF7C07EA0C070784028B018C2C
:1028C0004FF6FF7707EA041640F6FF473A404FF607
:1028D000FF7707EA03373A434FF6FF7707EA052702
:1028E0003A43114FB8420ED0104FB8420BD0B0F15E
:1028F000804F08D00E4FB84205D00E4FB84202D0DC
:102900000D4FB84206D14FF6DF77394046F0100739
:10291000394305E04FF65F77394044F010073943FB
:1029200002830184F0BD0000002C0140003401400E
:102930000004004000080040000C0040F0B50C46C8
:102940001546002200210026078C4FF6FF6C07EA8F
:102950000C070784828B018C4FF6FF7707EA042669
:102960004FF60C773A404FF6FF7707EA03172F43ED
:102970003A43114FB8420ED0104FB8420BD0B0F1CD
:10298000804F08D00E4FB84205D00E4FB84202D04B
:102990000D4FB84206D14FF6FF57394046F48077C5
:1029A000394305E04FF2FF57394044F4807739430B
:1029B00082830184F0BD0000002C014000340140FE
:1029C0000004004000080040000C0040F0B50C4638
:1029D0001546002200210026078C4EF6FF7C07EAF0
:1029E0000C070784828B018C4FF6FF7707EA0436C9
:1029F00040F6FF473A404FF6FF7707EA05273A438C
:102A00004FF6FF7707EA03373A43114FB8420ED02B
:102A1000104FB8420BD0B0F1804F08D00E4FB842E3
:102A200005D00E4FB84202D00D4FB84206D14DF638
:102A3000FF77394046F48057394305E047F6FF57A2
:102A4000394044F48057394382830184F0BD00004B
:102A5000002C014000340140000400400008004008
:102A6000000C004030B587B004460D460121C80275
:102A7000FFF776FD01210420FFF772FD18224FF4C5
:102A800010612048FFF7BCFA0020ADF81600ADF841
:102A90001200ADF81450ADF8104004A91A4800F027
:102AA000E1FC6020ADF800000020ADF80600012038
:102AB000ADF802000420ADF804000020ADF80C00D1
:102AC000ADF80E00ADF8080069460F4800F0FAFBBB
:102AD00069460D4800F04CFC08210B4800F03EFC14
:102AE0000821094800F082FC0121074800F020FA83
:102AF0000121054800F049FA0121034800F039FAA4
:102B000007B030BD00080140002C014030B587B04F
:102B100004460D4601210420FFF722FD012108464D
:102B2000FFF7FEFC042203211A48FFF769FA002090
:102B3000ADF81600ADF81200ADF81450ADF8104025
:102B400004A94FF0804000F08DFC00231A460321B9
:102B50004FF0804000F01CFB01A800F0A1FB0A2010
:102B6000ADF80C0001A9400700F044FB01218807E3
:102B700000F0F9F901221146900700F09AFB0021BC
:102B80004FF0804000F03FFC0121880700F0F1F990
:102B900007B030BD0008014010B50121880700F0E2
:102BA00018FB012803D10121800700F0DFF910BDD7
:102BB00030B587B004460D4601210420FFF7D0FC54
:102BC00001210220FFF7ACFC0422C0211948FFF7C5
:102BD00017FA0020ADF81600ADF81200ADF8145049
:102BE000ADF8104004A9144800F03CFC00231A463C
:102BF0000321114800F0CCFA01A800F051FB0A2093
:102C0000ADF80C0001A90C4800F0F4FA01210A48C3
:102C100000F0A9F901221146074800F04AFB002103
:102C2000054800F0F0FB0121034800F0A2F907B0CD
:102C300030BD0000000801400004004010B5012133
:102C4000044800F0C6FA012803D10121014800F030
:102C50008DF910BD000400402DE9FE430121A44878
:102C600000F0B7FA01287AD10121A14800F07EF9DD
:102C70000220FFF7FFFC404200B29E49088003207B
:102C8000FFF7F8FC00B29B494880B1F9000002F060
:102C900093F8044697484168204601F041FF954962
:102CA0004860B1F9020002F087F804469148816853
:102CB000204601F035FF8F49886048688E4901F051
:102CC0009DFF804601F000FF06468C4A8C4B01F0C8
:102CD000FDFD044601F070FC86494861886886491C
:102CE00001F08CFF804601F0EFFE0646834A844BDC
:102CF00001F0ECFD044601F05FFC7E49886100F0C4
:102D000041FC80484078012878D17A49086A7E4998
:102D100001F006FF044677484169204602F064F955
:102D20001ED87449086A784902F09AF90446714835
:102D30004169204602F058F812D874480078401CC7
:102D4000724908700846007864280ED10020087087
:102D50006C4948700120887001F062FB05E0C5E015
:102D600000206A4908706749887066480078012821
:102D70004DD1FFF7EDF85F48C069C0B95D4A916871
:102D8000506801F0CDFE05464FF0804101F036FF5E
:102D9000044601F0F5FF57494862486A02F00CF812
:102DA00054494860486A02F007F852498860584818
:102DB000C06A5049C96908444E49C8605448C06A4D
:102DC000C969401A4B4908610846C3690269C1686C
:102DD00050A0FDF763FA4748C068002803DD0020D3
:102DE000FFF77CF902E00120FFF778F94148C0685D
:102DF000002804DD0020FFF791F903E007E001203F
:102E0000FFF78CF93B4A1169D068FFF75BF83D4842
:102E1000C07801286AD13B48007801281DD1FFF70E
:102E200097F83B48C06A3349C8603948C06A0861AE
:102E30003749086901F048FE04460D463449C86820
:102E400001F042FE06462B48C06832460B46CDE9EB
:102E50000045029032A001F00BFB2A48807901283E
:102E600012D132480088401C80B23049088038288E
:102E700037D1002008802349C87001200871002044
:102E80001C49C86008612CE01E48C079012812D195
:102E900026480088401C80B2244908802D2820D173
:102EA000002008801749C8700120087100201149CE
:102EB000C860086115E01348007A012811D11B4849
:102EC0000088401C80B2194908804E2809D1002092
:102ED00008800C49C8700120087100200549C860AD
:102EE0000861044A1169D068FEF7ECFFBDE8FE8373
:102EF00000080040F401002000008244BE9F1A2F09
:102F0000DD242E40200200200000C84138000020AF
:102F10002C02002025642C25642C25640A00000066
:102F200025662C25662C25640A0000003A00002046
:102F300021B1028842F08002028004E002884FF64C
:102F40007F731A400280704730B5002301248C4003
:102F5000A3B2048C9C430484048C02FA01F5ADB244
:102F60002C43048430BDCA4302827047CA430282A4
:102F7000704721B1028842F00102028004E0028819
:102F80004FF6FE731A400280704731B1B0F844200A
:102F900042F40042A0F8442005E0B0F84420C2F317
:102FA0000E02A0F84420704710B5044668488442D9
:102FB00008D10121C014FFF7E3FA0021E014FFF764
:102FC000DFFAC4E0B4F1804F08D101210846FFF7D1
:102FD000B7FA00210120FFF7B3FAB8E05D48844258
:102FE00008D101210220FFF7ABFA00210220FFF7F0
:102FF000A7FAACE05848844208D101210420FFF729
:103000009FFA00210420FFF79BFAA0E05348844276
:1030100008D101210820FFF793FA00210820FFF7CB
:103020008FFA94E04E48844208D101211020FFF726
:1030300087FA00211020FFF783FA88E0494884428C
:1030400008D101212020FFF77BFA00212020FFF783
:1030500077FA7CE04448844208D101214014FFF70C
:103060008FFA00216014FFF78BFA70E03F4884422A
:1030700009D10121C804FFF783FA00214FF4002091
:10308000FFF77EFA63E03A48844209D1012108053E
:10309000FFF776FA00214FF48010FFF771FA56E03F
:1030A0003448844209D101214805FFF769FA00211B
:1030B0004FF40010FFF764FA49E02F48844208D12A
:1030C00001214020FFF73CFA00214020FFF738FAA9
:1030D0003DE02A48844208D101218020FFF730FAE0
:1030E00000218020FFF72CFA31E02548844208D1E6
:1030F00001218015FFF724FA0021A015FFF720FA1F
:1031000025E02048844209D101210804FFF738FA5C
:1031100000214FF48030FFF733FA18E01A48844258
:1031200009D101214804FFF72BFA00214FF40030A8
:10313000FFF726FA0BE01548844208D101218804E4
:10314000FFF71EFA00214FF48020FFF719FA10BD97
:10315000002C01400004004000080040000C00402A
:10316000001000400014004000340140004C0140B9
:10317000005001400054014000180040001C004075
:103180000020004000400140004401400048014050
:10319000F0B50C4615461E46002100220023018989
:1031A000028B038C4FF6F877394021434FF6FC47EA
:1031B0003A4040F201173A434FF6DD773B404FF675
:1031C000FF7707EA06172F433B43018102830384FD
:1031D000F0BD30B50246002000230024158A05EA20
:1031E0000103958905EA010413B10CB1012000E047
:1031F000002030BD70B505460C46244885420ED0EF
:10320000234885420BD0B5F1804F08D02148854234
:1032100005D02148854202D02048854200D100E0F7
:1032200000BF208850B92389A28861882846FFF70B
:10323000F9FAE188284600F0E8F825E0208804281B
:103240000AD12389A28861882846FFF72BFBE188F1
:10325000284600F0E3F817E0208808280AD12389DF
:10326000A28861882846FFF769FBE188284600F0BC
:10327000E2F809E02389A28861882846FFF7A6FBC7
:10328000E188284600F0E0F870BD0000002C014005
:10329000003401400004004000080040000C0040E1
:1032A000002101804180012181800021C1800181B4
:1032B00070471AB183890B43838102E083898B4372
:1032C0008381704770B5002400220023058C4FF6DF
:1032D000FE7635400584028C8388048B4FF68F750B
:1032E0002C40B51E2C400D882C43751E2A400D899C
:1032F0002A434D882A43144DA8420BD0134DA842AF
:1033000008D0134DA84205D0124DA84202D0124D4C
:10331000A84213D14FF6F7752A404D892A434FF63C
:10332000FB752A408D882A434FF6FF652B404FF6E8
:10333000FF552B408D892B43CD892B4383800483FC
:10334000CD888586028470BD002C01400034014088
:103350000040014000440140004801400A4600216D
:10336000018B4FF6F773194011430183704700003A
:1033700070B5002200230024058C4EF6FF76354000
:103380000584038C8488828B48F6FF752A404FF6AB
:10339000FF452A400D884FF6FF7606EA05252A43A9
:1033A0004DF6FF752B400D8906EA05352B434D88F8
:1033B00006EA05352B430B4DA84202D00A4DA84220
:1033C00008D14BF6FF752C408D894FF6FF7606EA43
:1033D00085152C4384808283CD88A0F840500384D7
:1033E00070BD0000002C0140003401400A4600215D
:1033F000818B4FF2FF7319404FF6FF7303EA0223EC
:1034000019438183704781847047028B4FF6F373B1
:103410001A400283028B0A4302837047028B4FF2E9
:10342000FF331A400283028B4FF6FF7303EA012336
:103430001A4302837047828B4FF6F3731A408283DC
:10344000828B0A4382837047828B4FF2FF331A408C
:103450008283828B4FF6FF7303EA01231A43828330
:1034600070470000002202881D4B98420ED01D4B71
:1034700098420BD0B0F1804F08D01B4B984205D03A
:103480001A4B984202D01A4B984204D14FF68F73D0
:103490001A404B881A43174B984207D0164B984254
:1034A00004D04FF6FF431A40CB881A4302808B8822
:1034B00083850B8803850A4B98420BD0094B9842B1
:1034C00008D00E4B984205D00D4B984202D00D4BC0
:1034D000984201D10B7A0386012383827047000052
:1034E000002C01400034014000040040000800406E
:1034F000000C00400010004000140040004001405B
:1035000000440140004801407FB504460D460121BA
:103510000420FFF705F801210846FFF721F81848B5
:10352000FFF742FDADF80850ADF804400020ADF8BB
:103530000600ADF80A0001A91148FFF793FF1E200D
:103540008DF8000000208DF801008DF802000120A8
:103550008DF803006846FEF709FE01210848FFF7D1
:1035600002FD01210648FFF701FD01221146044832
:10357000FFF79FFE01210248FFF7FBFC7FBD000023
:103580000008004010B54FF400714548FEF734FCC8
:10359000012807D102214248FEF72EFC10B941480C
:1035A0004149C8614FF400713D48FEF725FC48B918
:1035B00001213B48FEF720FC012803D14FF416708F
:1035C0003949C8614FF480713548FEF715FC70B970
:1035D0004FF480713548FEF70FFC012807D1022116
:1035E0002F48FEF709FC10B900202F49C8614FF49D
:1035F00080712B48FEF700FC80B94FF480712B4896
:10360000FEF7FAFB012809D102212548FEF7F4FB59
:10361000012803D14FF4C8702349C8614FF4807169
:103620001F48FEF7E9FB78B94FF480711F48FEF799
:10363000E3FB48B902211A48FEF7DEFB012803D15B
:103640004FF4E1701849C8614FF480711448FEF7D7
:10365000D3FB01280DD101021448FEF7CDFB40B980
:1036600002210F48FEF7C8FB18B90E4896300E49E4
:10367000C8614FF480710A48FEF7BEFB01280ED1E5
:1036800001020A48FEF7B8FB012808D102210448CC
:10369000FEF7B2FB18B90348C8300349C86110BD32
:1036A000000C0140A8FDFFFFF401002000100140C4
:1036B00010B5482240F203310448FEF7A1FC48222D
:1036C0004FF480710248FEF79BFC10BD000C0140D6
:1036D0000010014010B540F225511D4800F057F888
:1036E00010B31B4800F00EF9C4B21A48008800F469
:1036F0000040C8B91748008800F4804060B10A2C27
:1037000003D000201349088020E01248008840F4CC
:1037100000401049088019E00D2C06D10D480088A2
:1037200040F480400B49088010E00A480088C0F34C
:103730000D0009490C5407480088401C05490880C1
:1037400008460088C72801DD0020088010BD000061
:1037500000380140340000206400002021B182893B
:1037600042F40052828104E082894DF6FF731A40D0
:103770008281704702460020B1F5007F00D100BF72
:1037800013880B400BB1012000E00020704770B59A
:103790000246002400230025002040F66A16B142AC
:1037A00000D100BFC1F3421501F01F03012606FA44
:1037B00003F3012D02D19689334006E0022D02D198
:1037C000168A334001E0968A33400C12012606FA2D
:1037D00004F41688344013B10CB1012000E000203D
:1037E00070BDF0B50346002400260025002040F6F9
:1037F0006A17B94200D100BF1846C1F3421401F064
:103800001F06012707FA06F5012C01D10C3004E050
:10381000022C01D1103000E014301AB107682F4398
:10382000076002E00768AF430760F0BD2DE9F0478D
:1038300086B005460E460024A24600BFA1460027DA
:10384000B08900B100BF2F462C8A4CF6FF700440AF
:10385000F08804432C82AC894EF6F3100440B08803
:1038600031890843718908430443AC81AC8A4FF61F
:10387000FF400440B0890443AC8201A8FEF790FEEB
:103880001F48874202D1DDF810A001E0DDF80CA04E
:10389000A88900F4004040B10AEBCA0000EB0A100E
:1038A00031684900B0FBF1F807E00AEBCA0000EB11
:1038B0000A1031688900B0FBF1F86420B8FBF0F021
:1038C00004012009642101FB1089A88900F400404B
:1038D00040B1322000EBC900B0FBF1F000F007006E
:1038E000044308E0322000EB09106421B0FBF1F042
:1038F00000F00F0004432C8106B0BDE8F087000003
:103900000038014001468888C0F308007047C1F3C1
:1039100008028280704700BFFEE700002DE9FC5FCF
:10392000002001901149B1F9000001F045FA009022
:1039300001F0CAF8804600220D4B00F0C7FF064692
:1039400000220C4B00F0C2FF044600220A4B00F09C
:1039500065FE824600F030FE08498862886A00F001
:103960000FF801900198BDE8FC9F0000F4010020D1
:1039700000408F4000004E400050C4402C02002008
:103980002DE9F04104463248416A204601F05DFBD2
:10399000304908604FF082412E48006801F024FA57
:1039A00009D24FF041412B48006801F01DFB02D2C3
:1039B000002028490860274801682748006801F06E
:1039C000AFF82549086025492348006801F00CFB41
:1039D00003D22248204908600BE021491E480068B4
:1039E00001F002FA03D21E481B49086001E01A48A0
:1039F0000068194908601B4801681648006801F012
:103A00002FFB07461248016A384601F021FA0546A5
:103A10000F49C8691049096801F01AFA07460C49AC
:103A200088690C49096801F013FA8046394601F0AB
:103A300077F80646294601F073F80B4908600548F7
:103A400000680849086008480068BDE8F081000087
:103A50002C020020540000205C0000200020CB46F7
:103A60000020CBC65800002060000020490050EA2A
:103A7000C12018BF04204A0D18BF40F0010040F2D9
:103A8000FF72B2EB515F08BF40F00200012808BF8F
:103A90000520704730380A2801D2012070470020E5
:103AA000704700BF7047000010B56FF00400FEF7CC
:103AB00073FE0A4800680A49B0FBF1F00949087032
:103AC0000846007800EB4001C1EBC0104FF6FF71D3
:103AD00001EAC0000449088010BD00000400002075
:103AE00000127A002C0000202E0000200146114A0E
:103AF00012884A434FF0E0235A6100229A611A4625
:103B0000126942F001021A6100BF4FF0E022106911
:103B100000F001021AB100F48032002AF5D04FF013
:103B2000E022126922F001024FF0E0231A61002224
:103B30009A6170472E00002000BF054A128802F0EB
:103B40004002002AF9D0C2B2014B1B1D1A807047F7
:103B500000380140FEF703FB4FF4E13000F0B0FC09
:103B6000FFF7A2FFFEF7A4F9FEF702F8FEF7A0FAAE
:103B7000FEF7CEFB632141F61F40FFF7C5FC4FF473
:103B8000E1510020FEF76EFF4FF6FF710020FEF7B7
:103B9000BDFF4FF6FF710020FFF70AF8FEF7A6FC05
:103BA000FFF786FDFEF77AF9412201210846FEF76C
:103BB00021FC72E20323FB48027801210220FEF778
:103BC00053FC0323F848027801211846FEF74CFC09
:103BD000FEF722F9F549087008460078012805D15A
:103BE000F3480078401CF249087011E0EF48007873
:103BF000022805D1EE480078401EED49087007E024
:103C0000EA480078032803D1E9480078E6490870BB
:103C1000E548007801286BD1E24800780A2865D28F
:103C2000DFE800F0050C17232E39444E5960E148B7
:103C3000FEF720F80120DB49087058E0DE48807864
:103C4000012805D10020FDF79DFF0220D54908700D
:103C50004DE0D9480079012806D14FF08440FEF7A5
:103C600009F80320CF49087041E0D3488078012843
:103C700005D10020FDF786FF0420CA49087036E010
:103C8000CD480079012805D10020FDF77BFF0520F4
:103C9000C44908702BE0C8480079012805D1C748FD
:103CA000FDF7E8FF0620BF49087020E0C248807891
:103CB000012804D1FDF766FF0720BA49087016E015
:103CC000BD480079012805D1BD48FDF7D3FF082084
:103CD000B44908700BE00120BA4908600920B149D5
:103CE000087004E00020B749086000E000BF8FE3DF
:103CF000AD48007802286BD1AA4800780A2865D21E
:103D0000DFE800F0050C16222D38434E5960A94813
:103D1000FDF7B0FF0120A349087058E0A64880785D
:103D2000012804D1FDF72EFF02209E4908704EE0C5
:103D3000A1480079012806D14FF08440FDF79AFF91
:103D400003209849087042E09B488078012805D1FB
:103D50000020FDF717FF04209249087037E09648CD
:103D60000079012805D10020FDF70CFF05208D49C1
:103D700008702CE090480079012805D18F48FDF7A4
:103D800079FF06208749087021E08B488078012858
:103D900005D10020FDF7F6FE07208249087016E0E5
:103DA00085480079012805D18548FDF763FF082083
:103DB0007C4908700BE0012082490860092079499C
:103DC000087004E000207F49086000E000BF1FE3A6
:103DD0007548007803285AD172480078082855D2CF
:103DE000DFE800F0040B16222D38434D7648FDF72E
:103DF00041FF01206B49087048E06F488078012836
:103E000005D10020FDF7BEFE0220664908703DE0A6
:103E100069480079012806D14FF08440FDF72AFF58
:103E200003206049087031E063488078012805D19B
:103E30000020FDF7A7FE04205A49087026E05E48DE
:103E40000079012805D10020FDF79CFE0520554989
:103E500008701BE058480079012805D15748FDF744
:103E600009FF06204F49087010E053488078012868
:103E700004D1FDF787FE07204A49087006E04E4846
:103E80000079012802D15148FDF7F4FEC0E246480E
:103E90000078042858D143480078082853D2DFE836
:103EA00000F0040B15212B35404B4748FDF7E2FE8F
:103EB00001203C49087046E03F488078012804D141
:103EC000FDF760FE0220374908703CE03A4800796F
:103ED000012806D14FF08440FDF7CCFE0320314984
:103EE000087030E034488078012804D1FDF74AFE9C
:103EF00004202C49087026E02F480079012804D1BD
:103F0000FDF740FE0520274908701CE02A4800798B
:103F1000012805D12E48FDF7ADFE06202149087085
:103F200011E025488078012805D10020FDF72AFE00
:103F300007201C49087006E01F480079012802D1BB
:103F40002248FDF797FE63E217480078052871D1F3
:103F5000144800780C280DD2DFE800F0060D184058
:103F60004B56616D78828D971A48FDF783FE0120CC
:103F70000C49087091E010488078012805D1002094
:103F8000FDF700FE02200749087086E00A48007924
:103F9000012805D11048FDF76DFE03200149087086
:103FA0007BE0000000000020010000200300002052
:103FB000020000200000AE42200200200000044267
:103FC00000005C4288812242000034430000144318
:103FD0000000F041000084430000A842F7488078C8
:103FE000012805D10020FDF7CDFD0420F44908701B
:103FF00053E0F2480079012805D1F248FDF73AFE76
:104000000520EF49087048E0EC488078012805D188
:104010000020FDF7B7FD0620E94908703DE0E748BC
:104020000079012805D10020FDF7ACFD0720E44907
:10403000087032E032E0E1480079012805D1E24819
:10404000FDF718FE0820DE49087026E0DB4880787E
:10405000012804D1FDF796FD0920D949087000BF59
:10406000D6480079012805D1D848FDF703FE0A207B
:10407000D349087011E0D1488078012804D1FDF7B8
:1040800081FD0B20CE49087007E0CC48007901285B
:1040900002D1CF48FDF7EEFD00BFB9E1CD48007871
:1040A000062874D1C64800780C280DD2DFE800F04D
:1040B000060D18232D38434E5964707AC448FDF715
:1040C000D9FD0120BE49087074E0BC488078012801
:1040D00005D10020FDF756FD0220B949087069E0BE
:1040E000B6480079012805D1BB48FDF7C3FD05207E
:1040F000B34908705EE0B1488078012804D1FDF72B
:1041000041FD0420AE49087054E0AC480079012814
:1041100005D1AC48FDF7AEFD0520A949087049E07E
:10412000A6488078012805D10020FDF72BFD062048
:10413000A34908703EE0A1480079012805D100207C
:10414000FDF720FD07209E49087033E09B48007969
:10415000012805D1A148FDF78DFD08209849087078
:1041600028E096488078012805D10020FDF70AFD57
:1041700009209349087000BF90480079012805D1B3
:104180009248FDF777FD0A208D49087012E012E091
:104190008A488078012804D1FDF7F4FC0B20884977
:1041A000087007E085480079012802D18848FDF7AA
:1041B00061FD00BF2CE187480078072870D1804856
:1041C00000780C280AD2DFE800F0060A141F293410
:1041D0003F4A55606C778248FDF74CFD74E07748A4
:1041E0008078012804D1FDF7CDFC022074490870C5
:1041F0006AE072480079012805D17A48FDF73AFD56
:1042000003206F4908705FE06C488078012804D172
:10421000FDF7B8FC04206A49087055E0674800794A
:10422000012805D16748FDF725FD05206449087080
:104230004AE062488078012805D10020FDF7A2FC01
:1042400006205F4908703FE05C480079012805D1ED
:104250000020FDF797FC07205949087034E05748C3
:104260000079012805D15848FDF704FD082054497C
:10427000087029E051488078012805D10020FDF719
:1042800081FC09204E49087000BF4C480079012884
:1042900005D14E48FDF7EEFC0A204949087013E0AD
:1042A00013E046488078012805D10020FDF76AFC1C
:1042B0000B204349087007E040480079012802D1EB
:1042C0004348FDF7D7FC00BFA2E042480078082829
:1042D00073D13B4800780C280DD2DFE800F0060DC2
:1042E00017222D38434E596385903948FDF7C2FC9B
:1042F0000120334908708AE030488078012804D1D1
:10430000FDF740FC02202E49087080E02B48007920
:10431000012805D13348FDF7ADFC0320284908707A
:1043200075E026488078012805D10020FDF72AFC99
:104330000420234908706AE020480079012805D14B
:104340002048FDF797FC05201D4908705FE01B48D9
:104350008078012805D10020FDF714FC06201849BB
:10436000087054E015480079012805D10020FDF7B8
:1043700009FC07201249087049E01048007901281B
:1043800005D11148FDF776FC08200D4908703EE084
:104390000A488078012804D1FDF7F4FB0920084978
:1043A000087000BF05480079012805D10748FDF7CE
:1043B00061FC0A200249087029E029E0200200205F
:1043C00000000020000008420000F0410000B2425E
:1043D00000008443010000200000FE42000014425F
:1043E000000089430000A8420A488078012805D1CE
:1043F0000020FDF7C7FB0B200749087007E00548C0
:104400000079012802D10548FDF734FC00BF00BF48
:10441000FFF7D0BB200200200000002000008443F2
:1044200010B5002006490870002211460548FEF725
:104430008BFD00220C210348FEF786FD10BD000015
:1044400020020020002C014010B501200649087010
:10445000012200210548FEF777FD01220C210348C7
:10446000FEF772FD10BD000020020020002C01406C
:104470000FB438B505A800900F48009A0499FBF7CF
:10448000FBFE002000900C48FCF714F885B20024D5
:104490000DE000BF40210948FFF76CF90028F9D072
:1044A0000548015D0548FFF732FA601C84B2AC4252
:1044B000EFDB38BC5DF814FB2C0100200038014014
:1044C00010B586B00446012144F20400FEF748F816
:1044D0004FF40070ADF8140003208DF8160018207A
:1044E0008DF8170005A91C48FDF7FBFB4FF4806011
:1044F000ADF8140004208DF8170005A91648FDF743
:10450000F0FB25208DF8000003208DF801008DF8C8
:10451000020001208DF803006846FDF727FE019494
:104520000020ADF80800ADF80A00ADF80C00ADF8B9
:1045300010000C20ADF80E0001A90848FFF776F92D
:10454000012240F225510548FFF74BF901210348AC
:10455000FFF704F906B010BD000801400038014023
:1045600010B500290AD00878002807D005487844FB
:10457000FCF7F4FE002801D0002010BD024878446A
:1045800010BD0000F2120000EA12000010B5002970
:104590000AD00878002807D005487844FCF7DEFEEA
:1045A000002801D0002010BD0248784410BD000052
:1045B000E2120000DA12000021F00042A2F1605283
:1045C000B2F5801F01F0004328BFD2F17F6C0BD9F8
:1045D0005FEA001C43EAC20242EB507018BF70470A
:1045E00028BF20F001007047B2F5801FBCBF1846FD
:1045F00070474FEA410C1CF5001F02D2084600F03C
:10460000EEBC70B500F00CFA00000089FFF7F6BFB1
:104610004FF00040A0F58000704700002DE9C04138
:1046200030B4DFF8A0C23CEA111418BF3CEA1314FE
:1046300000F0EC8081EA03051CEA111444EAD57409
:1046400018BF1CEA131500F0C780A4EB05044FF057
:10465000004545EAC12145EAC32341EA505143EAF6
:10466000525304F17F74994204F500344FEAC0209C
:104670004FEAC22208BF904200F09C804FEA1365C7
:104680000FF24016765D4FEA134506FB05F7C7F1BA
:10469000807706FB07F74FEAD737A7FB0368764218
:1046A000C8F58038A7FB06CE38BFA8F1010807FB84
:1046B00008E64FF0000EA6FB028CE6FB03CEDCF111
:1046C000000CCEF1004E38BFAEF1010EA6FB0C5827
:1046D0004FF000074FF00005E6FB0E87A1FB08C670
:1046E000A0FB07CE16EB0E0645F10005E1FB0765C2
:1046F00015F1E04E7EBFA4F580345FEA46066D41B9
:1047000016F1800745F100054FEA17274FEA0666C4
:1047100047EA0567A6F1DE46B6F1805F4FEA152548
:104720001FD9384624F0010C05EBC471BCF1FE6FB3
:1047300001EB0C1102D8F0BCBDE8008124425CBF43
:1047400001F5801E9EEAC47F02D4F0BCBDE8008162
:10475000244238D4F0BCA1F1C041BDE8004100F0D2
:10476000ADB94FEAD22242EA43524FEAD323A7FB24
:1047700002864FEAD02040EA415007FB03661EEA5A
:104780000E0F4FEAD12105FB026658BFA6EB00567B
:10479000B6EB00564FEA520E4EEAC37E18EB0E0EF1
:1047A00056EB530EBDD518EB02085E417F1C55F148
:1047B0000005B6E74FF480154FF000074FF00006F4
:1047C0004FF00008ADE7F0BC4FF0000001F1C04130
:1047D00001F00041BDE8008111EA0C1F0CEA13153D
:1047E00000D00CE013EA0C1F00F025804FF0000011
:1047F000F0BC81EA030101F00041BDE80081F0BC9A
:10480000BDE8004181EA030100F058B9F0BCBDE801
:10481000004170B500F004F9097EFC3E00F007B8D5
:1048200081EA03014FF0000001F00041704781EA86
:10483000030100F043B9F0BCBDE800414FF00000B7
:1048400021497047FFFDFBF9F7F5F4F2F0EEEDEBCF
:10485000E9E8E6E4E3E1E0DEDDDBDAD8D7D5D4D37E
:10486000D1D0CFCDCCCBCAC8C7C6C5C4C2C1C0BFCA
:10487000BEBDBCBBBAB9B8B7B6B5B4B3B2B1B0AFD0
:10488000AEADACABAAA9A8A8A7A6A5A4A3A3A2A1B4
:10489000A09F9F9E9D9C9C9B9A999998979796956F
:1048A00095949393929191908F8F8E8E8D8C8C8B0B
:1048B0008B8A898988888787868585848483838293
:1048C000828181800000FF070000F87FDFF848C187
:1048D00070B51CEA111E1EBF1CEA13159EEA0C0FD0
:1048E00095EA0C0F00F06F8081EA030423EA4C1371
:1048F0004EEAD47E21EA4C1141F4801143F4801336
:10490000AE44A1FB024CA0FB0365AEF17F7E3619DD
:1049100055EB0C05A1FB034C4CF10003A0FB021C62
:1049200016EB0C06654153F10003094218BF46F02F
:10493000010613F4007F0BD14FEA03314FEA053033
:10494000340341EA155140EA16506FF003020AE0C1
:104950004FEAC3214FEAC520F40241EA555140EA2B
:1049600056506FF0020202EB2E4201EB025585EA2F
:10497000CE710AD05FEA440C18BF24F0004450F115
:10498000000041F1000120EAD47040F2FE7C624553
:1049900000D270BDA84214BF4FF080444FF0404495
:1049A000002E08BF0024BEF1806FA8BFA1F1C04156
:1049B000BDE8704080F282804FF0000001F1C041FC
:1049C00001F0004170479EEA0C0F0CEA131518BF66
:1049D00095EA0C0F06D04FF0000081EA030E0EF0AE
:1049E000004170BD00F01CF88900013E00F007B8DE
:1049F00000F009B84FEA430C5FEA5C5C08D081EA3A
:104A0000030100F05BB84FEA410C5FEA5C5CF6D151
:104A10004FF00000014970470000FF070000F87FD9
:104A20000EF1020E2EF0030E5EF8046B364205D432
:104A3000012A43EB030515F5001F12D8012841EBAD
:104A4000010C1CF5001F0CD80ED14FEAD17C15F5D6
:104A5000001F0CEB4C0C0CF1020C08BF4CEBD37C90
:104A600004E04FF0080C01E04FEAD37C0CEB4C055E
:104A700026FA05F606F00706B6F1040C06D20EEB90
:104A8000860CBDE870404CF0010C6047DFE80CF08C
:104A9000090B02024FF000414FF00000A1F5002188
:104AA00070BD19461046012851EB010418BFD4F51A
:104AB000001484BF002001F0004170BD0808A0F57B
:104AC00000114FEA3101704743004FEAD30C4FEA1F
:104AD0003C0C43401FBF40070CF1605113F0FE4FE8
:104AE00070471CF0006F03D100200CF000417047AC
:104AF0000CF0004343EA507010B540EACC0000F0DF
:104B000028FA00BF000000924FEA0001FFF7D6BF6D
:104B10004FF000414FF00000A1F500217047000068
:104B200090EA010F48BF81F0004100F1A082421AD3
:104B30003CBF801A89184FEAD0524FF07F4C1CEAD4
:104B4000410FA2EBD15318BF9CEA026F00F03B80EB
:104B50004FF0004C4CEA00204CEA012121FA03FC02
:104B600010EB0C0C1ED202F1FF325FEA1C2040EB6E
:104B7000C25038BF70471CF07F0F4FEA400C18BF7F
:104B8000BCF17F4F38BF7047C3F12003994008BF85
:104B900020F00100BCF17F4F38BF7047A0F1C0404A
:104BA00000F01DBA4FEA3C00000A40EBC25028BF9B
:104BB0001CF0FF0F4FEA400CE6D018BFBCF17F4F4E
:104BC00038BF7047EAE79CEA026F05D010EA5C0F35
:104BD00008BF00F00040704710B500F0BAF900BF00
:104BE00064FBBE3E401058BFC0F14040491058BF62
:104BF000C1F140418142EFF3008070474FF47F0CD8
:104C00001CEAD0121EBF1CEAD11392EA0C0F93EAE1
:104C10000C0F00F0858090EA010F48BF42F48072CB
:104C200040F4000C41F400002CF07F4120F07F4064
:104C300000B58142A2EB03020FF2081CACEB504E10
:104C4000C0F100009EF800E04FEA4E0E00FB0EFCA3
:104C500038BF49004FEA2C1C02F5FA020CFB0EF398
:104C60004FEACE1E4FEA112C4FEAC1210EEB635ED4
:104C700042EB22420EFB0CFC4FEA1C5300FB0311DB
:104C80004FEA112C4FEA01310EFB0CFC4FEADC4CD1
:104C900000FB0C11C14228BF09184CEB03335DF82F
:104CA00004EB10EB410143EBC250B2F57C0F38BF6F
:104CB000704729D512F0F00F1CBF00F1C04000F082
:104CC00000407047008182838485868788898B8C29
:104CD0008D8E8F919293959697999A9C9D9FA0A265
:104CE000A3A5A7A8AAACAEB0B2B3B5B7B9BCBEC0B5
:104CF000C2C5C7C9CCCED1D4D7D9DCDFE2E6E9EC56
:104D0000F0F3F7FAFE0000004FEA400C0CF1807C53
:104D1000BCF17E4F28BF7047B0F1C04000F05FB9D2
:104D200090EA010F0CEAD11348BF42F48072624549
:104D300038BF634507D213F47F0F16D080EA010015
:104D400000F00040704710B500F003F9097EFC3E0A
:104D500000F005B880EA010000F00040704780EAEA
:104D6000010000F0004000F03AB912F47F0F04BFD8
:104D70000248704780EA010000F031B90000C07FAE
:104D800041000B0ED3F19E0208D950F400034FEA04
:104D9000032323FA02F048BF4042704710B500F0E9
:104DA000D8F800BF49922480002070476FF000427D
:104DB00082EA20007047000010F0004148BF4042E6
:104DC000B0FA80F310FA03F2C3F19D030BD051EA5D
:104DD000C35101EB1220530638BF704700F10100A8
:104DE00008BF20F00100704750EA010C00F1138069
:104DF0001CF5000F58BFBCF5000F01D48842704766
:104E000007D710F5000F58BF11F5000F15D48842D1
:104E10007047894270471CF5000F04D5BCF5000FA0
:104E2000F7D5814270474FF0807C1CEB400F38BFB4
:104E30001CEB410F01D28142704710B500F089F898
:104E4000922449004FF000504FF08051FFF7CABE46
:104E50004FF47F0C1CEAD0121EBF1CEAD11392EA59
:104E60000C0F93EA0C0F00F0478090EA010F48BF47
:104E700042F480724FF0004C4CEA00204CEA0121D1
:104E800002EB0302A0FB0113A2F50002002918BFE8
:104E900043F001035B0028BF4FEA330342EB224299
:104EA0005FEA132C4CEBC2502EBFBCEB436FB2F544
:104EB0007C0F70474FEA036CBCF1004F08BF20F035
:104EC0000100B2F57C0F38BF70470BD582F0FF02AE
:104ED00012F5803FC8BF704700F1C040D8BF00F056
:104EE0000040704700F5000C5FEA4C0C48BF70476B
:104EF000B0F1C04000F073B890EA010F0CEAD11392
:104F000048BF42F48072624538BF634504D280EAEC
:104F1000010000F00040704710B500F01AF800BF23
:104F20008900013E00F007B800F009B85FEA410CC3
:104F30005FEA1C6C08D080EA010000F050B85FEA1C
:104F4000400C5FEA1C6CF6D14FF00040A0F58000E9
:104F500070470EF1020E2EF0030E5EF8044B244251
:104F600004D44FEA4102B2F17F4F11D84FEA400317
:104F7000B3F17F4F0CD80ED14FEAD07CB2F17F4F06
:104F80000CEB4C0C0CF1020C08BF4CEBD17C04E098
:104F90004FF0080C01E04FEAD17C0CEB4C0324FAF3
:104FA00003F404F00704B4F1040C06D20EEB840CF5
:104FB000BDE810404CF0010C6047DFE80CF007083A
:104FC00002024FF00040A0F5800010BD08464200EC
:104FD00018BFD2F1807288BF00F0004010BDFF21E1
:104FE00041EAD050C005704751EA000C00F113802F
:104FF0001CF5000F58BFBCF5000F01D4814270476B
:1050000007D711F5000F58BF10F5000F15D48142D6
:105010007047894270471CF5000F04D5BCF5000F9E
:10502000F7D5884270474FF0807C1CEB410F38BFAA
:105030001CEB400F01D28842704780EA010081EAF0
:10504000000180EA0100FFF7F8BE80F0004090EA1E
:10505000010F7FF56CAD81F0004100F008B8000051
:1050600090EA010F48BF81F000413FF560AD421A60
:1050700004D882F00042A0EB020011444FEAD05263
:105080004FF07F4C1CEA410FA2EBD15318BF9CEAB2
:10509000026F4AD04FF0004C4CEA00204CEA01214C
:1050A00021FA03FCB0EB0C0C0FD412F0FE0F36D03B
:1050B0005FEA4C001DD5001240EBC25038BF70476C
:1050C0001CF03F0F18BF70470BE0A2F101025FEA2E
:1050D0001C2040EBC25038BF70471CF07F0F18BF38
:1050E0007047C3F12003994014BF401E20F0010017
:1050F000704780084FEA122308BF7047B0FA80FC5F
:10510000A2EB0C02CCF1280C60FA0CF093EA122FFF
:1051100004BF00EBC25070474FEAC3707047130AD8
:105120005FEADC1008BF7047F6E79CEA026F04D024
:1051300010EA5C0F08BF0020704710B5FFF709FFA9
:1051400040DFF63E81F000407047FBF711BDFBF7F2
:1051500045BE00000000000000000000000000004C
:105160000000000000F800000000000000333000E4
:10517000000000100C06100C0600000000000000EB
:10518000000040C07840C0784000043F04043F0461
:105190000400007088FC08300000001820FF211E69
:1051A0000000F008F000E018000000211C031E21A0
:1051B0001E0000F00888700000001E21232419271B
:1051C000211010160E00000000000000000000007A
:1051D0000000000000E01804020000000007182092
:1051E000400000020418E000000000402018070002
:1051F0000000404080F0804040000202010F0102A8
:105200000200000000F0000000000101011F010188
:105210000100000000000000000080B070000000ED
:105220000000000000000000000000010101010179
:10523000010100000000000000000030300000000C
:1052400000000000000080601804006018060100E3
:10525000000000E010080810E000000F10202010EF
:105260000F00001010F8000000000020203F202058
:1052700000000070080808887000003028242221EF
:1052800030000030088888483000001820202011A5
:105290000E000000C02010F8000000070424243F86
:1052A000240000F80888880808000019212020112F
:1052B0000E0000E0108888180000000F1120201157
:1052C0000E0000380808C83808000000003F000041
:1052D00000000070880808887000001C222121222C
:1052E0001C0000E010080810E0000000312222112C
:1052F0000F00000000C0C0000000000000303000BF
:10530000000000000080000000000000806000003D
:105310000000000080402010080000010204081076
:105320002000404040404040400004040404040485
:105330000400000810204080000000201008040233
:105340000100007048080808F00000000030360135
:105350000000C030C828E810E000071827242314F4
:105360000B000000C038E0000000203C23020227B0
:10537000382008F8888888700000203F20202011FD
:105380000E00C03008080808380007182020201038
:10539000080008F808080810E000203F202020102E
:1053A0000F0008F88888E8081000203F20202320FC
:1053B000180008F88888E8081000203F2000030043
:1053C0000000C03008080838000007182020221EFE
:1053D000020008F808000008F808203F2101012118
:1053E0003F20000808F8080800000020203F202087
:1053F000000000000808F8080800C08080807F00D6
:10540000000008F888C028180800203F200126382E
:10541000200008F8080000000000203F2020202085
:10542000300008F8F800F8F80800203F003F003F7F
:10543000200008F830C00008F808203F20000718B6
:105440003F00E01008080810E0000F102020201096
:105450000F0008F808080808F000203F21010101AA
:105460000000E01008080810E0000F18242438504D
:105470004F0008F8888888887000203F2000030CBF
:1054800030200070880808083800003820212122C8
:105490001C00180808F8080818000000203F200029
:1054A000000008F808000008F808001F202020204D
:1054B0001F000878880000C83808000007380E016F
:1054C0000000F80800F80008F800033C0700073C5B
:1054D0000300081868808068180820302C03032C0B
:1054E00030200838C800C83808000000203F2000DD
:1054F000000010080808C83808002038262120209D
:105500001800000000FE020202000000007F404080
:105510004000000C30C00000000000000001063810
:10552000C00000020202FE000000004040407F0078
:10553000000000000402020204000000000000005D
:10554000000000000000000000008080808080805B
:105550008080000202040000000000000000000043
:105560000000000080808080000000192422222298
:105570003F2008F8008080000000003F112020112B
:105580000E000000008080800000000E112020200E
:105590001100000000808088F800000E112020100B
:1055A0003F200000808080800000001F22222222F5
:1055B0001300008080F0888888180020203F202079
:1055C00000000000808080808000006B94949493A1
:1055D000600008F8008080800000203F210000204B
:1055E0003F2000809898000000000020203F2020ED
:1055F0000000000000809898000000C08080807F3C
:10560000000008F8000080808000203F24022D3038
:105610002000000808F8000000000020203F2020A3
:1056200000008080808080808000203F20003F201C
:10563000003F8080008080800000203F210000200B
:105640003F200000808080800000001F202020205C
:105650001F00808000808000000080FFA1202011BA
:105660000E000000008080808000000E112020A02D
:10567000FF80808080008080800020203F212000EB
:1056800001000000808080808000003324242424D6
:105690001900008080E0808000000000001F2020B2
:1056A00000008080000000808000001F202020106B
:1056B0003F20808080000080808000010E3008063E
:1056C000010080800080008080800F300C030C304F
:1056D0000F0000808000808080000020312E0E317D
:1056E0002000808080000080808080818E7018067D
:1056F000010000808080808080000021302C2221E9
:10570000300000000000807C020200000000003F2A
:10571000404000000000FF00000000000000FF000B
:1057200000000002027C800000000040403F0000BA
:105730000000000601010202040400000000000055
:10574000000004000008000000000000000200014A
:105750000000100000000000000000003031323373
:105760003435363738394142434445464030580095
:1057700030313233343536373839616263646566C7
:105780004030780030313233343536373839616261
:1057900063646566787000303132333435363738BB
:1057A0003941424344454658500000000240000041
:1057B000000000A00000000005400000000000C83C
:1057C000000000000C4000000000409C00000000B1
:1057D000194000000020BCBE000000003440000062
:1057E000BFC91B8E00000004B5400000504BCFD055
:1057F0006607E2CF010000006C4100003E8251AA22
:10580000DFEEA73401000000D9420000DCB5A0E2C1
:105810003A301F97FFFFFFFFB4450000FD25A0C8E9
:10582000E9A3C14FFFFFFFFFFF3F00000000008022
:1058300000000000FF3F00000000008000000000AA
:105840008C590008000000206400000028010008B6
:10585000F0590008640000205C08000044010008C2
:105860001C00000043000000F8FFFFFF0C000000D8
:105870000E0000000F0000002E00000010010000CC
:1058800043000000F8FFFFFF004040404040404020
:105890004040414141414140404040404040404003
:1058A00040404040404040404005020202020202A7
:1058B00002020202020202020220202020202020F6
:1058C000202020020202020202029090909090900A
:1058D00010101010101010101010101010101010C8
:1058E000101010100202020202028888888888883C
:1058F0000808080808080808080808080808080828
:10590000080808080202020240000000000000002F
:105910000000000000000000000000000000000087
:105920000000000000000000000000000000000077
:105930000000000000000000000000000000000067
:105940000000000000000000000000000000000057
:105950000000000000000000000000000000000047
:105960000000000000000000000000000000000037
:105970000000000000000000000000000000000027
:105980000000000000000000000000000000000017
:1059900000A24A040000000000000000010203040D
:1059A00006070809000000000102030401020304C5
:1059B00006070809020406080000000000000000B5
:1059C00000000000000000000000000000000000D7
:1059D00000000000000000000000000000000000C7
:1059E00000000000000000000000000000000000B7
:04000005080000ED02
:00000001FF
